{"abi":[{"type":"constructor","inputs":[{"name":"_vaultName","type":"string","internalType":"string"},{"name":"_initialRewardRate","type":"uint256","internalType":"uint256"}],"stateMutability":"nonpayable"},{"type":"function","name":"STREAMING_FEE_BPS","inputs":[],"outputs":[{"name":"","type":"uint256","internalType":"uint256"}],"stateMutability":"view"},{"type":"function","name":"cancelStream","inputs":[{"name":"streamId","type":"uint256","internalType":"uint256"}],"outputs":[],"stateMutability":"nonpayable"},{"type":"function","name":"claimRewards","inputs":[],"outputs":[],"stateMutability":"nonpayable"},{"type":"function","name":"createStream","inputs":[{"name":"recipient","type":"address","internalType":"address"},{"name":"duration","type":"uint256","internalType":"uint256"}],"outputs":[],"stateMutability":"payable"},{"type":"function","name":"emergencyPause","inputs":[],"outputs":[],"stateMutability":"nonpayable"},{"type":"function","name":"getClaimableBalance","inputs":[{"name":"streamId","type":"uint256","internalType":"uint256"}],"outputs":[{"name":"","type":"uint256","internalType":"uint256"}],"stateMutability":"view"},{"type":"function","name":"getClaimableRewards","inputs":[{"name":"user","type":"address","internalType":"address"}],"outputs":[{"name":"","type":"uint256","internalType":"uint256"}],"stateMutability":"view"},{"type":"function","name":"getFeeInfo","inputs":[],"outputs":[{"name":"","type":"uint256","internalType":"uint256"},{"name":"","type":"uint256","internalType":"uint256"}],"stateMutability":"view"},{"type":"function","name":"getRealisticClaimableRewards","inputs":[{"name":"user","type":"address","internalType":"address"}],"outputs":[{"name":"","type":"uint256","internalType":"uint256"}],"stateMutability":"view"},{"type":"function","name":"getStream","inputs":[{"name":"streamId","type":"uint256","internalType":"uint256"}],"outputs":[{"name":"","type":"tuple","internalType":"struct TimeFlowVault.Stream","components":[{"name":"sender","type":"address","internalType":"address"},{"name":"recipient","type":"address","internalType":"address"},{"name":"totalAmount","type":"uint256","internalType":"uint256"},{"name":"flowRate","type":"uint256","internalType":"uint256"},{"name":"startTime","type":"uint256","internalType":"uint256"},{"name":"stopTime","type":"uint256","internalType":"uint256"},{"name":"amountWithdrawn","type":"uint256","internalType":"uint256"},{"name":"isActive","type":"bool","internalType":"bool"}]}],"stateMutability":"view"},{"type":"function","name":"getTotalStreams","inputs":[],"outputs":[{"name":"","type":"uint256","internalType":"uint256"}],"stateMutability":"view"},{"type":"function","name":"getUserStake","inputs":[{"name":"user","type":"address","internalType":"address"}],"outputs":[{"name":"","type":"tuple","internalType":"struct TimeFlowVault.Stake","components":[{"name":"amount","type":"uint256","internalType":"uint256"},{"name":"startTime","type":"uint256","internalType":"uint256"},{"name":"lastClaimTime","type":"uint256","internalType":"uint256"},{"name":"accumulatedRewards","type":"uint256","internalType":"uint256"},{"name":"isActive","type":"bool","internalType":"bool"}]}],"stateMutability":"view"},{"type":"function","name":"getVaultInfo","inputs":[],"outputs":[{"name":"name","type":"string","internalType":"string"},{"name":"staked","type":"uint256","internalType":"uint256"},{"name":"rewards","type":"uint256","internalType":"uint256"},{"name":"rate","type":"uint256","internalType":"uint256"},{"name":"active","type":"bool","internalType":"bool"}],"stateMutability":"view"},{"type":"function","name":"getVaultStats","inputs":[],"outputs":[{"name":"","type":"uint256","internalType":"uint256"},{"name":"","type":"uint256","internalType":"uint256"},{"name":"","type":"uint256","internalType":"uint256"}],"stateMutability":"view"},{"type":"function","name":"lastUpdateTime","inputs":[],"outputs":[{"name":"","type":"uint256","internalType":"uint256"}],"stateMutability":"view"},{"type":"function","name":"nextStreamId","inputs":[],"outputs":[{"name":"","type":"uint256","internalType":"uint256"}],"stateMutability":"view"},{"type":"function","name":"owner","inputs":[],"outputs":[{"name":"","type":"address","internalType":"address"}],"stateMutability":"view"},{"type":"function","name":"rewardRate","inputs":[],"outputs":[{"name":"","type":"uint256","internalType":"uint256"}],"stateMutability":"view"},{"type":"function","name":"setVaultPaused","inputs":[{"name":"paused","type":"bool","internalType":"bool"}],"outputs":[],"stateMutability":"nonpayable"},{"type":"function","name":"stake","inputs":[],"outputs":[],"stateMutability":"payable"},{"type":"function","name":"stakes","inputs":[{"name":"","type":"address","internalType":"address"}],"outputs":[{"name":"amount","type":"uint256","internalType":"uint256"},{"name":"startTime","type":"uint256","internalType":"uint256"},{"name":"lastClaimTime","type":"uint256","internalType":"uint256"},{"name":"accumulatedRewards","type":"uint256","internalType":"uint256"},{"name":"isActive","type":"bool","internalType":"bool"}],"stateMutability":"view"},{"type":"function","name":"streams","inputs":[{"name":"","type":"uint256","internalType":"uint256"}],"outputs":[{"name":"sender","type":"address","internalType":"address"},{"name":"recipient","type":"address","internalType":"address"},{"name":"totalAmount","type":"uint256","internalType":"uint256"},{"name":"flowRate","type":"uint256","internalType":"uint256"},{"name":"startTime","type":"uint256","internalType":"uint256"},{"name":"stopTime","type":"uint256","internalType":"uint256"},{"name":"amountWithdrawn","type":"uint256","internalType":"uint256"},{"name":"isActive","type":"bool","internalType":"bool"}],"stateMutability":"view"},{"type":"function","name":"totalFeesCollected","inputs":[],"outputs":[{"name":"","type":"uint256","internalType":"uint256"}],"stateMutability":"view"},{"type":"function","name":"totalRewardsAvailable","inputs":[],"outputs":[{"name":"","type":"uint256","internalType":"uint256"}],"stateMutability":"view"},{"type":"function","name":"totalStaked","inputs":[],"outputs":[{"name":"","type":"uint256","internalType":"uint256"}],"stateMutability":"view"},{"type":"function","name":"unstake","inputs":[{"name":"amount","type":"uint256","internalType":"uint256"}],"outputs":[],"stateMutability":"nonpayable"},{"type":"function","name":"updateRewardRate","inputs":[{"name":"newRate","type":"uint256","internalType":"uint256"}],"outputs":[],"stateMutability":"nonpayable"},{"type":"function","name":"updateVaultParams","inputs":[{"name":"_vaultName","type":"string","internalType":"string"}],"outputs":[],"stateMutability":"nonpayable"},{"type":"function","name":"userRewards","inputs":[{"name":"","type":"address","internalType":"address"}],"outputs":[{"name":"","type":"uint256","internalType":"uint256"}],"stateMutability":"view"},{"type":"function","name":"vaultActive","inputs":[],"outputs":[{"name":"","type":"bool","internalType":"bool"}],"stateMutability":"view"},{"type":"function","name":"vaultName","inputs":[],"outputs":[{"name":"","type":"string","internalType":"string"}],"stateMutability":"view"},{"type":"function","name":"withdrawFromStream","inputs":[{"name":"streamId","type":"uint256","internalType":"uint256"}],"outputs":[],"stateMutability":"nonpayable"},{"type":"event","name":"RewardRateUpdated","inputs":[{"name":"newRate","type":"uint256","indexed":false,"internalType":"uint256"}],"anonymous":false},{"type":"event","name":"RewardsClaimed","inputs":[{"name":"user","type":"address","indexed":true,"internalType":"address"},{"name":"amount","type":"uint256","indexed":false,"internalType":"uint256"}],"anonymous":false},{"type":"event","name":"Staked","inputs":[{"name":"user","type":"address","indexed":true,"internalType":"address"},{"name":"amount","type":"uint256","indexed":false,"internalType":"uint256"}],"anonymous":false},{"type":"event","name":"StreamCancelled","inputs":[{"name":"streamId","type":"uint256","indexed":true,"internalType":"uint256"},{"name":"sender","type":"address","indexed":true,"internalType":"address"},{"name":"recipient","type":"address","indexed":true,"internalType":"address"},{"name":"senderBalance","type":"uint256","indexed":false,"internalType":"uint256"},{"name":"recipientBalance","type":"uint256","indexed":false,"internalType":"uint256"}],"anonymous":false},{"type":"event","name":"StreamCreated","inputs":[{"name":"streamId","type":"uint256","indexed":true,"internalType":"uint256"},{"name":"sender","type":"address","indexed":true,"internalType":"address"},{"name":"recipient","type":"address","indexed":true,"internalType":"address"},{"name":"totalAmount","type":"uint256","indexed":false,"internalType":"uint256"},{"name":"flowRate","type":"uint256","indexed":false,"internalType":"uint256"},{"name":"startTime","type":"uint256","indexed":false,"internalType":"uint256"},{"name":"stopTime","type":"uint256","indexed":false,"internalType":"uint256"},{"name":"feeCollected","type":"uint256","indexed":false,"internalType":"uint256"}],"anonymous":false},{"type":"event","name":"Unstaked","inputs":[{"name":"user","type":"address","indexed":true,"internalType":"address"},{"name":"amount","type":"uint256","indexed":false,"internalType":"uint256"}],"anonymous":false},{"type":"event","name":"VaultCreated","inputs":[{"name":"vaultName","type":"string","indexed":false,"internalType":"string"},{"name":"initialRewardRate","type":"uint256","indexed":false,"internalType":"uint256"}],"anonymous":false},{"type":"event","name":"VaultPaused","inputs":[{"name":"paused","type":"bool","indexed":false,"internalType":"bool"}],"anonymous":false},{"type":"event","name":"Withdrawn","inputs":[{"name":"streamId","type":"uint256","indexed":true,"internalType":"uint256"},{"name":"recipient","type":"address","indexed":true,"internalType":"address"},{"name":"amount","type":"uint256","indexed":false,"internalType":"uint256"}],"anonymous":false}],"bytecode":{"object":"0x608060405234801561000f575f5ffd5b5060405161444838038061444883398181016040528101906100319190610268565b335f5f6101000a81548173ffffffffffffffffffffffffffffffffffffffff021916908373ffffffffffffffffffffffffffffffffffffffff160217905550816004908161007f91906104c9565b5080600881905550600160095f6101000a81548160ff021916908315150217905550426007819055507f680471857f6a7a56e8056d015c139b564359a0754bdb17688090b1d09953047782826040516100d99291906105ef565b60405180910390a1505061061d565b5f604051905090565b5f5ffd5b5f5ffd5b5f5ffd5b5f5ffd5b5f601f19601f8301169050919050565b7f4e487b71000000000000000000000000000000000000000000000000000000005f52604160045260245ffd5b61014782610101565b810181811067ffffffffffffffff8211171561016657610165610111565b5b80604052505050565b5f6101786100e8565b9050610184828261013e565b919050565b5f67ffffffffffffffff8211156101a3576101a2610111565b5b6101ac82610101565b9050602081019050919050565b8281835e5f83830152505050565b5f6101d96101d484610189565b61016f565b9050828152602081018484840111156101f5576101f46100fd565b5b6102008482856101b9565b509392505050565b5f82601f83011261021c5761021b6100f9565b5b815161022c8482602086016101c7565b91505092915050565b5f819050919050565b61024781610235565b8114610251575f5ffd5b50565b5f815190506102628161023e565b92915050565b5f5f6040838503121561027e5761027d6100f1565b5b5f83015167ffffffffffffffff81111561029b5761029a6100f5565b5b6102a785828601610208565b92505060206102b885828601610254565b9150509250929050565b5f81519050919050565b7f4e487b71000000000000000000000000000000000000000000000000000000005f52602260045260245ffd5b5f600282049050600182168061031057607f821691505b602082108103610323576103226102cc565b5b50919050565b5f819050815f5260205f209050919050565b5f6020601f8301049050919050565b5f82821b905092915050565b5f600883026103857fffffffffffffffffffffffffffffffffffffffffffffffffffffffffffffffff8261034a565b61038f868361034a565b95508019841693508086168417925050509392505050565b5f819050919050565b5f6103ca6103c56103c084610235565b6103a7565b610235565b9050919050565b5f819050919050565b6103e3836103b0565b6103f76103ef826103d1565b848454610356565b825550505050565b5f5f905090565b61040e6103ff565b6104198184846103da565b505050565b5b8181101561043c576104315f82610406565b60018101905061041f565b5050565b601f8211156104815761045281610329565b61045b8461033b565b8101602085101561046a578190505b61047e6104768561033b565b83018261041e565b50505b505050565b5f82821c905092915050565b5f6104a15f1984600802610486565b1980831691505092915050565b5f6104b98383610492565b9150826002028217905092915050565b6104d2826102c2565b67ffffffffffffffff8111156104eb576104ea610111565b5b6104f582546102f9565b610500828285610440565b5f60209050601f831160018114610531575f841561051f578287015190505b61052985826104ae565b865550610590565b601f19841661053f86610329565b5f5b8281101561056657848901518255600182019150602085019450602081019050610541565b86831015610583578489015161057f601f891682610492565b8355505b6001600288020188555050505b505050505050565b5f82825260208201905092915050565b5f6105b2826102c2565b6105bc8185610598565b93506105cc8185602086016101b9565b6105d581610101565b840191505092915050565b6105e981610235565b82525050565b5f6040820190508181035f83015261060781856105a8565b905061061660208301846105e0565b9392505050565b613e1e8061062a5f395ff3fe6080604052600436106101e1575f3560e01c806364d60d91116101015780639e591bc611610094578063bbadc93a11610063578063bbadc93a14610699578063c8f33c91146106d5578063e126559a146106ff578063ef42466c14610729576101e1565b80639e591bc6146105df5780639ef3a26114610609578063a4424d5a14610631578063a59aa5a61461066d576101e1565b80637f98aa71116100d05780637f98aa7114610521578063817b1cd21461054f578063894e9a0d146105795780638da5cb5b146105b5576101e1565b806364d60d91146104625780636db9241b146104a55780636de813f1146104cd5780637b0a47ee146104f7576101e1565b8063315e4ec3116101795780633a597f48116101485780633a597f48146103de5780633df7fb8c1461040657806351858e271461042257806360c6d8ae14610438576101e1565b8063315e4ec31461036e578063320541b214610396578063372500ab146103be5780633a4b66f1146103d4576101e1565b80631e99d569116101b55780631e99d569146102b65780632914051f146102e05780632e17de781461030a578063308e401e14610332576101e1565b806202eab7146101e55780630660f1e8146102105780630ace9ca01461024c57806316934fc414610276575b5f5ffd5b3480156101f0575f5ffd5b506101f9610765565b604051610207929190612877565b60405180910390f35b34801561021b575f5ffd5b5061023660048036038101906102319190612909565b610774565b6040516102439190612934565b60405180910390f35b348015610257575f5ffd5b50610260610789565b60405161026d91906129bd565b60405180910390f35b348015610281575f5ffd5b5061029c60048036038101906102979190612909565b610815565b6040516102ad9594939291906129f7565b60405180910390f35b3480156102c1575f5ffd5b506102ca610853565b6040516102d79190612934565b60405180910390f35b3480156102eb575f5ffd5b506102f4610859565b6040516103019190612934565b60405180910390f35b348015610315575f5ffd5b50610330600480360381019061032b9190612a72565b61085e565b005b34801561033d575f5ffd5b5061035860048036038101906103539190612909565b610b9a565b6040516103659190612934565b60405180910390f35b348015610379575f5ffd5b50610394600480360381019061038f9190612ac7565b610d3b565b005b3480156103a1575f5ffd5b506103bc60048036038101906103b79190612c1e565b610e1d565b005b3480156103c9575f5ffd5b506103d2610ebe565b005b6103dc611353565b005b3480156103e9575f5ffd5b5061040460048036038101906103ff9190612a72565b61160b565b005b610420600480360381019061041b9190612c65565b611924565b005b34801561042d575f5ffd5b50610436611cec565b005b348015610443575f5ffd5b5061044c611dcd565b6040516104599190612934565b60405180910390f35b34801561046d575f5ffd5b5061048860048036038101906104839190612a72565b611dd3565b60405161049c989796959493929190612cb2565b60405180910390f35b3480156104b0575f5ffd5b506104cb60048036038101906104c69190612a72565b611e61565b005b3480156104d8575f5ffd5b506104e16122d5565b6040516104ee9190612934565b60405180910390f35b348015610502575f5ffd5b5061050b6122db565b6040516105189190612934565b60405180910390f35b34801561052c575f5ffd5b506105356122e1565b604051610546959493929190612d2e565b60405180910390f35b34801561055a575f5ffd5b5061056361239c565b6040516105709190612934565b60405180910390f35b348015610584575f5ffd5b5061059f600480360381019061059a9190612a72565b6123a2565b6040516105ac9190612e53565b60405180910390f35b3480156105c0575f5ffd5b506105c96124c3565b6040516105d69190612e6d565b60405180910390f35b3480156105ea575f5ffd5b506105f36124e7565b6040516106009190612e86565b60405180910390f35b348015610614575f5ffd5b5061062f600480360381019061062a9190612a72565b6124f9565b005b34801561063c575f5ffd5b5061065760048036038101906106529190612a72565b6125c8565b6040516106649190612934565b60405180910390f35b348015610678575f5ffd5b50610681612673565b60405161069093929190612e9f565b60405180910390f35b3480156106a4575f5ffd5b506106bf60048036038101906106ba9190612909565b61268a565b6040516106cc9190612f3a565b60405180910390f35b3480156106e0575f5ffd5b506106e9612722565b6040516106f69190612934565b60405180910390f35b34801561070a575f5ffd5b50610713612728565b6040516107209190612934565b60405180910390f35b348015610734575f5ffd5b5061074f600480360381019061074a9190612909565b612731565b60405161075c9190612934565b60405180910390f35b5f5f600a600354915091509091565b600b602052805f5260405f205f915090505481565b6004805461079690612f80565b80601f01602080910402602001604051908101604052809291908181526020018280546107c290612f80565b801561080d5780601f106107e45761010080835404028352916020019161080d565b820191905f5260205f20905b8154815290600101906020018083116107f057829003601f168201915b505050505081565b600a602052805f5260405f205f91509050805f015490806001015490806002015490806003015490806004015f9054906101000a900460ff16905085565b60025481565b600a81565b60095f9054906101000a900460ff166108ac576040517f08c379a00000000000000000000000000000000000000000000000000000000081526004016108a390612ffa565b60405180910390fd5b805f81116108ef576040517f08c379a00000000000000000000000000000000000000000000000000000000081526004016108e690613088565b60405180910390fd5b5f60149054906101000a900460ff161561093e576040517f08c379a0000000000000000000000000000000000000000000000000000000008152600401610935906130f0565b60405180910390fd5b60015f60146101000a81548160ff0219169083151502179055505f600a5f3373ffffffffffffffffffffffffffffffffffffffff1673ffffffffffffffffffffffffffffffffffffffff1681526020019081526020015f209050806004015f9054906101000a900460ff166109e8576040517f08c379a00000000000000000000000000000000000000000000000000000000081526004016109df90613158565b60405180910390fd5b805f0154831115610a2e576040517f08c379a0000000000000000000000000000000000000000000000000000000008152600401610a25906131e6565b60405180910390fd5b82815f015f828254610a409190613231565b925050819055508260055f828254610a589190613231565b925050819055505f815f015403610a85575f816004015f6101000a81548160ff0219169083151502179055505b5f3373ffffffffffffffffffffffffffffffffffffffff1684604051610aaa90613291565b5f6040518083038185875af1925050503d805f8114610ae4576040519150601f19603f3d011682016040523d82523d5f602084013e610ae9565b606091505b5050905080610b2d576040517f08c379a0000000000000000000000000000000000000000000000000000000008152600401610b24906132ef565b60405180910390fd5b3373ffffffffffffffffffffffffffffffffffffffff167f0f5bb82176feb1b5e747e28471aa92156a04d9f3ab9f45f28e2d704232b93f7585604051610b739190612934565b60405180910390a250505f5f60146101000a81548160ff0219169083151502179055505050565b5f600a5f8373ffffffffffffffffffffffffffffffffffffffff1673ffffffffffffffffffffffffffffffffffffffff1681526020019081526020015f206004015f9054906101000a900460ff16610c3157600b5f8373ffffffffffffffffffffffffffffffffffffffff1673ffffffffffffffffffffffffffffffffffffffff1681526020019081526020015f20549050610d36565b5f600a5f8473ffffffffffffffffffffffffffffffffffffffff1673ffffffffffffffffffffffffffffffffffffffff1681526020019081526020015f206002015442610c7e9190613231565b90505f61271082600854600a5f8873ffffffffffffffffffffffffffffffffffffffff1673ffffffffffffffffffffffffffffffffffffffff1681526020019081526020015f205f0154610cd2919061330d565b610cdc919061330d565b610ce6919061337b565b905080600b5f8673ffffffffffffffffffffffffffffffffffffffff1673ffffffffffffffffffffffffffffffffffffffff1681526020019081526020015f2054610d3191906133ab565b925050505b919050565b5f5f9054906101000a900473ffffffffffffffffffffffffffffffffffffffff1673ffffffffffffffffffffffffffffffffffffffff163373ffffffffffffffffffffffffffffffffffffffff1614610dc9576040517f08c379a0000000000000000000000000000000000000000000000000000000008152600401610dc090613428565b60405180910390fd5b801560095f6101000a81548160ff0219169083151502179055507f152cbfe4e8597a33181d2da9ed5162e734ca8b263b9eb6105f169287a39908f681604051610e129190612e86565b60405180910390a150565b5f5f9054906101000a900473ffffffffffffffffffffffffffffffffffffffff1673ffffffffffffffffffffffffffffffffffffffff163373ffffffffffffffffffffffffffffffffffffffff1614610eab576040517f08c379a0000000000000000000000000000000000000000000000000000000008152600401610ea290613428565b60405180910390fd5b8060049081610eba91906135e6565b5050565b60095f9054906101000a900460ff16610f0c576040517f08c379a0000000000000000000000000000000000000000000000000000000008152600401610f0390612ffa565b60405180910390fd5b5f60149054906101000a900460ff1615610f5b576040517f08c379a0000000000000000000000000000000000000000000000000000000008152600401610f52906130f0565b60405180910390fd5b60015f60146101000a81548160ff021916908315150217905550600a5f3373ffffffffffffffffffffffffffffffffffffffff1673ffffffffffffffffffffffffffffffffffffffff1681526020019081526020015f206004015f9054906101000a900460ff16611001576040517f08c379a0000000000000000000000000000000000000000000000000000000008152600401610ff890613158565b60405180910390fd5b5f600a5f3373ffffffffffffffffffffffffffffffffffffffff1673ffffffffffffffffffffffffffffffffffffffff1681526020019081526020015f20600201544261104e9190613231565b90505f61271082600854600a5f3373ffffffffffffffffffffffffffffffffffffffff1673ffffffffffffffffffffffffffffffffffffffff1681526020019081526020015f205f01546110a2919061330d565b6110ac919061330d565b6110b6919061337b565b90505f81600b5f3373ffffffffffffffffffffffffffffffffffffffff1673ffffffffffffffffffffffffffffffffffffffff1681526020019081526020015f205461110291906133ab565b90505f8111611146576040517f08c379a000000000000000000000000000000000000000000000000000000000815260040161113d90613725565b60405180910390fd5b5f6006548211611156578161115a565b6006545b90505f811161119e576040517f08c379a0000000000000000000000000000000000000000000000000000000008152600401611195906137b3565b60405180910390fd5b42600a5f3373ffffffffffffffffffffffffffffffffffffffff1673ffffffffffffffffffffffffffffffffffffffff1681526020019081526020015f20600201819055505f600b5f3373ffffffffffffffffffffffffffffffffffffffff1673ffffffffffffffffffffffffffffffffffffffff1681526020019081526020015f20819055508060065f8282546112369190613231565b925050819055505f3373ffffffffffffffffffffffffffffffffffffffff168260405161126290613291565b5f6040518083038185875af1925050503d805f811461129c576040519150601f19603f3d011682016040523d82523d5f602084013e6112a1565b606091505b50509050806112e5576040517f08c379a00000000000000000000000000000000000000000000000000000000081526004016112dc906132ef565b60405180910390fd5b3373ffffffffffffffffffffffffffffffffffffffff167ffc30cddea38e2bf4d6ea7d3f9ed3b6ad7f176419f4963bd81318067a4aee73fe8360405161132b9190612934565b60405180910390a250505050505f5f60146101000a81548160ff021916908315150217905550565b60095f9054906101000a900460ff166113a1576040517f08c379a000000000000000000000000000000000000000000000000000000000815260040161139890612ffa565b60405180910390fd5b345f81116113e4576040517f08c379a00000000000000000000000000000000000000000000000000000000081526004016113db90613088565b60405180910390fd5b5f60149054906101000a900460ff1615611433576040517f08c379a000000000000000000000000000000000000000000000000000000000815260040161142a906130f0565b60405180910390fd5b60015f60146101000a81548160ff021916908315150217905550600a5f3373ffffffffffffffffffffffffffffffffffffffff1673ffffffffffffffffffffffffffffffffffffffff1681526020019081526020015f206004015f9054906101000a900460ff16156114da576040517f08c379a00000000000000000000000000000000000000000000000000000000081526004016114d19061381b565b60405180910390fd5b6040518060a001604052803481526020014281526020014281526020015f815260200160011515815250600a5f3373ffffffffffffffffffffffffffffffffffffffff1673ffffffffffffffffffffffffffffffffffffffff1681526020019081526020015f205f820151815f01556020820151816001015560408201518160020155606082015181600301556080820151816004015f6101000a81548160ff0219169083151502179055509050503460055f82825461159a91906133ab565b925050819055503373ffffffffffffffffffffffffffffffffffffffff167f9e71bc8eea02a63969f509818f2dafb9254532904319f9dbda79b67bd34a5f3d346040516115e79190612934565b60405180910390a25f5f60146101000a81548160ff02191690831515021790555050565b5f60149054906101000a900460ff161561165a576040517f08c379a0000000000000000000000000000000000000000000000000000000008152600401611651906130f0565b60405180910390fd5b60015f60146101000a81548160ff0219169083151502179055505f60015f8381526020019081526020015f209050806007015f9054906101000a900460ff166116d8576040517f08c379a00000000000000000000000000000000000000000000000000000000081526004016116cf906138a9565b60405180910390fd5b806001015f9054906101000a900473ffffffffffffffffffffffffffffffffffffffff1673ffffffffffffffffffffffffffffffffffffffff163373ffffffffffffffffffffffffffffffffffffffff1614611769576040517f08c379a000000000000000000000000000000000000000000000000000000000815260040161176090613937565b60405180910390fd5b5f611773836125c8565b90505f81116117b7576040517f08c379a00000000000000000000000000000000000000000000000000000000081526004016117ae906139c5565b60405180910390fd5b80826006015f8282546117ca91906133ab565b92505081905550816005015442101580156117ed57508160020154826006015410155b1561180e575f826007015f6101000a81548160ff0219169083151502179055505b5f3373ffffffffffffffffffffffffffffffffffffffff168260405161183390613291565b5f6040518083038185875af1925050503d805f811461186d576040519150601f19603f3d011682016040523d82523d5f602084013e611872565b606091505b50509050806118b6576040517f08c379a00000000000000000000000000000000000000000000000000000000081526004016118ad906132ef565b60405180910390fd5b3373ffffffffffffffffffffffffffffffffffffffff16847fcf7d23a3cbe4e8b36ff82fd1b05b1b17373dc7804b4ebbd6e2356716ef202372846040516118fd9190612934565b60405180910390a35050505f5f60146101000a81548160ff02191690831515021790555050565b5f73ffffffffffffffffffffffffffffffffffffffff168273ffffffffffffffffffffffffffffffffffffffff1603611992576040517f08c379a000000000000000000000000000000000000000000000000000000000815260040161198990613a2d565b60405180910390fd5b3373ffffffffffffffffffffffffffffffffffffffff168273ffffffffffffffffffffffffffffffffffffffff1603611a00576040517f08c379a00000000000000000000000000000000000000000000000000000000081526004016119f790613abb565b60405180910390fd5b5f8111611a42576040517f08c379a0000000000000000000000000000000000000000000000000000000008152600401611a3990613b49565b60405180910390fd5b5f3411611a84576040517f08c379a0000000000000000000000000000000000000000000000000000000008152600401611a7b90613088565b60405180910390fd5b5f612710600a34611a95919061330d565b611a9f919061337b565b90505f8134611aae9190613231565b90508160035f828254611ac191906133ab565b925050819055508160065f828254611ad991906133ab565b925050819055505f60025f815480929190611af390613b67565b9190505590505f8483611b06919061337b565b90506040518061010001604052803373ffffffffffffffffffffffffffffffffffffffff1681526020018773ffffffffffffffffffffffffffffffffffffffff1681526020018481526020018281526020014281526020018642611b6a91906133ab565b81526020015f81526020016001151581525060015f8481526020019081526020015f205f820151815f015f6101000a81548173ffffffffffffffffffffffffffffffffffffffff021916908373ffffffffffffffffffffffffffffffffffffffff1602179055506020820151816001015f6101000a81548173ffffffffffffffffffffffffffffffffffffffff021916908373ffffffffffffffffffffffffffffffffffffffff16021790555060408201518160020155606082015181600301556080820151816004015560a0820151816005015560c0820151816006015560e0820151816007015f6101000a81548160ff0219169083151502179055509050508573ffffffffffffffffffffffffffffffffffffffff163373ffffffffffffffffffffffffffffffffffffffff16837f360a3fae4d070a6af85254071927df48a7e8e1b650ec58213474511fb83811ec8685428b42611cca91906133ab565b8b604051611cdc959493929190613bae565b60405180910390a4505050505050565b5f5f9054906101000a900473ffffffffffffffffffffffffffffffffffffffff1673ffffffffffffffffffffffffffffffffffffffff163373ffffffffffffffffffffffffffffffffffffffff1614611d7a576040517f08c379a0000000000000000000000000000000000000000000000000000000008152600401611d7190613428565b60405180910390fd5b5f60095f6101000a81548160ff0219169083151502179055507f152cbfe4e8597a33181d2da9ed5162e734ca8b263b9eb6105f169287a39908f66001604051611dc39190612e86565b60405180910390a1565b60035481565b6001602052805f5260405f205f91509050805f015f9054906101000a900473ffffffffffffffffffffffffffffffffffffffff1690806001015f9054906101000a900473ffffffffffffffffffffffffffffffffffffffff1690806002015490806003015490806004015490806005015490806006015490806007015f9054906101000a900460ff16905088565b5f60149054906101000a900460ff1615611eb0576040517f08c379a0000000000000000000000000000000000000000000000000000000008152600401611ea7906130f0565b60405180910390fd5b60015f60146101000a81548160ff0219169083151502179055505f60015f8381526020019081526020015f209050806007015f9054906101000a900460ff16611f2e576040517f08c379a0000000000000000000000000000000000000000000000000000000008152600401611f25906138a9565b60405180910390fd5b805f015f9054906101000a900473ffffffffffffffffffffffffffffffffffffffff1673ffffffffffffffffffffffffffffffffffffffff163373ffffffffffffffffffffffffffffffffffffffff161480611fd85750806001015f9054906101000a900473ffffffffffffffffffffffffffffffffffffffff1673ffffffffffffffffffffffffffffffffffffffff163373ffffffffffffffffffffffffffffffffffffffff16145b612017576040517f08c379a000000000000000000000000000000000000000000000000000000000815260040161200e90613c6f565b60405180910390fd5b5f612021836125c8565b90505f81836006015484600201546120399190613231565b6120439190613231565b90505f836007015f6101000a81548160ff0219169083151502179055505f821115612135575f836001015f9054906101000a900473ffffffffffffffffffffffffffffffffffffffff1673ffffffffffffffffffffffffffffffffffffffff16836040516120b090613291565b5f6040518083038185875af1925050503d805f81146120ea576040519150601f19603f3d011682016040523d82523d5f602084013e6120ef565b606091505b5050905080612133576040517f08c379a000000000000000000000000000000000000000000000000000000000815260040161212a90613cfd565b60405180910390fd5b505b5f811115612209575f835f015f9054906101000a900473ffffffffffffffffffffffffffffffffffffffff1673ffffffffffffffffffffffffffffffffffffffff168260405161218490613291565b5f6040518083038185875af1925050503d805f81146121be576040519150601f19603f3d011682016040523d82523d5f602084013e6121c3565b606091505b5050905080612207576040517f08c379a00000000000000000000000000000000000000000000000000000000081526004016121fe90613d8b565b60405180910390fd5b505b826001015f9054906101000a900473ffffffffffffffffffffffffffffffffffffffff1673ffffffffffffffffffffffffffffffffffffffff16835f015f9054906101000a900473ffffffffffffffffffffffffffffffffffffffff1673ffffffffffffffffffffffffffffffffffffffff16857fb6e64e9a8283cc563b12fc25832dcf2be0fe8b949c63eccb2ba81a4f997c8a1e84866040516122ae929190612877565b60405180910390a45050505f5f60146101000a81548160ff02191690831515021790555050565b60065481565b60085481565b60605f5f5f5f600460055460065460085460095f9054906101000a900460ff1684805461230d90612f80565b80601f016020809104026020016040519081016040528092919081815260200182805461233990612f80565b80156123845780601f1061235b57610100808354040283529160200191612384565b820191905f5260205f20905b81548152906001019060200180831161236757829003601f168201915b50505050509450945094509450945094509091929394565b60055481565b6123aa6127c8565b60015f8381526020019081526020015f20604051806101000160405290815f82015f9054906101000a900473ffffffffffffffffffffffffffffffffffffffff1673ffffffffffffffffffffffffffffffffffffffff1673ffffffffffffffffffffffffffffffffffffffff168152602001600182015f9054906101000a900473ffffffffffffffffffffffffffffffffffffffff1673ffffffffffffffffffffffffffffffffffffffff1673ffffffffffffffffffffffffffffffffffffffff1681526020016002820154815260200160038201548152602001600482015481526020016005820154815260200160068201548152602001600782015f9054906101000a900460ff1615151515815250509050919050565b5f5f9054906101000a900473ffffffffffffffffffffffffffffffffffffffff1681565b60095f9054906101000a900460ff1681565b5f5f9054906101000a900473ffffffffffffffffffffffffffffffffffffffff1673ffffffffffffffffffffffffffffffffffffffff163373ffffffffffffffffffffffffffffffffffffffff1614612587576040517f08c379a000000000000000000000000000000000000000000000000000000000815260040161257e90613428565b60405180910390fd5b806008819055507f41d466ebd06fb97e7786086ac8b69b7eb7da798592036251291d34e9791cde01816040516125bd9190612934565b60405180910390a150565b5f5f60015f8481526020019081526020015f209050806007015f9054906101000a900460ff166125fb575f91505061266e565b5f4290505f826005015482116126115781612617565b82600501545b90505f83600401548261262a9190613231565b90505f84600301548261263d919061330d565b90505f85600601548211612651575f612662565b8560060154826126619190613231565b5b90508096505050505050505b919050565b5f5f5f600554600654600854925092509250909192565b612692612833565b600a5f8373ffffffffffffffffffffffffffffffffffffffff1673ffffffffffffffffffffffffffffffffffffffff1681526020019081526020015f206040518060a00160405290815f8201548152602001600182015481526020016002820154815260200160038201548152602001600482015f9054906101000a900460ff1615151515815250509050919050565b60075481565b5f600254905090565b5f5f3073ffffffffffffffffffffffffffffffffffffffff1663308e401e846040518263ffffffff1660e01b815260040161276c9190612e6d565b602060405180830381865afa158015612787573d5f5f3e3d5ffd5b505050506040513d601f19601f820116820180604052508101906127ab9190613dbd565b905060065481116127bc57806127c0565b6006545b915050919050565b6040518061010001604052805f73ffffffffffffffffffffffffffffffffffffffff1681526020015f73ffffffffffffffffffffffffffffffffffffffff1681526020015f81526020015f81526020015f81526020015f81526020015f81526020015f151581525090565b6040518060a001604052805f81526020015f81526020015f81526020015f81526020015f151581525090565b5f819050919050565b6128718161285f565b82525050565b5f60408201905061288a5f830185612868565b6128976020830184612868565b9392505050565b5f604051905090565b5f5ffd5b5f5ffd5b5f73ffffffffffffffffffffffffffffffffffffffff82169050919050565b5f6128d8826128af565b9050919050565b6128e8816128ce565b81146128f2575f5ffd5b50565b5f81359050612903816128df565b92915050565b5f6020828403121561291e5761291d6128a7565b5b5f61292b848285016128f5565b91505092915050565b5f6020820190506129475f830184612868565b92915050565b5f81519050919050565b5f82825260208201905092915050565b8281835e5f83830152505050565b5f601f19601f8301169050919050565b5f61298f8261294d565b6129998185612957565b93506129a9818560208601612967565b6129b281612975565b840191505092915050565b5f6020820190508181035f8301526129d58184612985565b905092915050565b5f8115159050919050565b6129f1816129dd565b82525050565b5f60a082019050612a0a5f830188612868565b612a176020830187612868565b612a246040830186612868565b612a316060830185612868565b612a3e60808301846129e8565b9695505050505050565b612a518161285f565b8114612a5b575f5ffd5b50565b5f81359050612a6c81612a48565b92915050565b5f60208284031215612a8757612a866128a7565b5b5f612a9484828501612a5e565b91505092915050565b612aa6816129dd565b8114612ab0575f5ffd5b50565b5f81359050612ac181612a9d565b92915050565b5f60208284031215612adc57612adb6128a7565b5b5f612ae984828501612ab3565b91505092915050565b5f5ffd5b5f5ffd5b7f4e487b71000000000000000000000000000000000000000000000000000000005f52604160045260245ffd5b612b3082612975565b810181811067ffffffffffffffff82111715612b4f57612b4e612afa565b5b80604052505050565b5f612b6161289e565b9050612b6d8282612b27565b919050565b5f67ffffffffffffffff821115612b8c57612b8b612afa565b5b612b9582612975565b9050602081019050919050565b828183375f83830152505050565b5f612bc2612bbd84612b72565b612b58565b905082815260208101848484011115612bde57612bdd612af6565b5b612be9848285612ba2565b509392505050565b5f82601f830112612c0557612c04612af2565b5b8135612c15848260208601612bb0565b91505092915050565b5f60208284031215612c3357612c326128a7565b5b5f82013567ffffffffffffffff811115612c5057612c4f6128ab565b5b612c5c84828501612bf1565b91505092915050565b5f5f60408385031215612c7b57612c7a6128a7565b5b5f612c88858286016128f5565b9250506020612c9985828601612a5e565b9150509250929050565b612cac816128ce565b82525050565b5f61010082019050612cc65f83018b612ca3565b612cd3602083018a612ca3565b612ce06040830189612868565b612ced6060830188612868565b612cfa6080830187612868565b612d0760a0830186612868565b612d1460c0830185612868565b612d2160e08301846129e8565b9998505050505050505050565b5f60a0820190508181035f830152612d468188612985565b9050612d556020830187612868565b612d626040830186612868565b612d6f6060830185612868565b612d7c60808301846129e8565b9695505050505050565b612d8f816128ce565b82525050565b612d9e8161285f565b82525050565b612dad816129dd565b82525050565b61010082015f820151612dc85f850182612d86565b506020820151612ddb6020850182612d86565b506040820151612dee6040850182612d95565b506060820151612e016060850182612d95565b506080820151612e146080850182612d95565b5060a0820151612e2760a0850182612d95565b5060c0820151612e3a60c0850182612d95565b5060e0820151612e4d60e0850182612da4565b50505050565b5f61010082019050612e675f830184612db3565b92915050565b5f602082019050612e805f830184612ca3565b92915050565b5f602082019050612e995f8301846129e8565b92915050565b5f606082019050612eb25f830186612868565b612ebf6020830185612868565b612ecc6040830184612868565b949350505050565b60a082015f820151612ee85f850182612d95565b506020820151612efb6020850182612d95565b506040820151612f0e6040850182612d95565b506060820151612f216060850182612d95565b506080820151612f346080850182612da4565b50505050565b5f60a082019050612f4d5f830184612ed4565b92915050565b7f4e487b71000000000000000000000000000000000000000000000000000000005f52602260045260245ffd5b5f6002820490506001821680612f9757607f821691505b602082108103612faa57612fa9612f53565b5b50919050565b7f54696d65466c6f775661756c743a205661756c742069732070617573656400005f82015250565b5f612fe4601e83612957565b9150612fef82612fb0565b602082019050919050565b5f6020820190508181035f83015261301181612fd8565b9050919050565b7f54696d65466c6f775661756c743a20416d6f756e74206d75737420626520706f5f8201527f7369746976650000000000000000000000000000000000000000000000000000602082015250565b5f613072602683612957565b915061307d82613018565b604082019050919050565b5f6020820190508181035f83015261309f81613066565b9050919050565b7f54696d65466c6f775661756c743a205265656e7472616e742063616c6c0000005f82015250565b5f6130da601d83612957565b91506130e5826130a6565b602082019050919050565b5f6020820190508181035f830152613107816130ce565b9050919050565b7f54696d65466c6f775661756c743a204e6f20616374697665207374616b6500005f82015250565b5f613142601e83612957565b915061314d8261310e565b602082019050919050565b5f6020820190508181035f83015261316f81613136565b9050919050565b7f54696d65466c6f775661756c743a20496e73756666696369656e74207374616b5f8201527f656420616d6f756e740000000000000000000000000000000000000000000000602082015250565b5f6131d0602983612957565b91506131db82613176565b604082019050919050565b5f6020820190508181035f8301526131fd816131c4565b9050919050565b7f4e487b71000000000000000000000000000000000000000000000000000000005f52601160045260245ffd5b5f61323b8261285f565b91506132468361285f565b925082820390508181111561325e5761325d613204565b5b92915050565b5f81905092915050565b50565b5f61327c5f83613264565b91506132878261326e565b5f82019050919050565b5f61329b82613271565b9150819050919050565b7f54696d65466c6f775661756c743a205472616e73666572206661696c656400005f82015250565b5f6132d9601e83612957565b91506132e4826132a5565b602082019050919050565b5f6020820190508181035f830152613306816132cd565b9050919050565b5f6133178261285f565b91506133228361285f565b92508282026133308161285f565b9150828204841483151761334757613346613204565b5b5092915050565b7f4e487b71000000000000000000000000000000000000000000000000000000005f52601260045260245ffd5b5f6133858261285f565b91506133908361285f565b9250826133a05761339f61334e565b5b828204905092915050565b5f6133b58261285f565b91506133c08361285f565b92508282019050808211156133d8576133d7613204565b5b92915050565b7f54696d65466c6f775661756c743a204e6f7420746865206f776e6572000000005f82015250565b5f613412601c83612957565b915061341d826133de565b602082019050919050565b5f6020820190508181035f83015261343f81613406565b9050919050565b5f819050815f5260205f209050919050565b5f6020601f8301049050919050565b5f82821b905092915050565b5f600883026134a27fffffffffffffffffffffffffffffffffffffffffffffffffffffffffffffffff82613467565b6134ac8683613467565b95508019841693508086168417925050509392505050565b5f819050919050565b5f6134e76134e26134dd8461285f565b6134c4565b61285f565b9050919050565b5f819050919050565b613500836134cd565b61351461350c826134ee565b848454613473565b825550505050565b5f5f905090565b61352b61351c565b6135368184846134f7565b505050565b5b818110156135595761354e5f82613523565b60018101905061353c565b5050565b601f82111561359e5761356f81613446565b61357884613458565b81016020851015613587578190505b61359b61359385613458565b83018261353b565b50505b505050565b5f82821c905092915050565b5f6135be5f19846008026135a3565b1980831691505092915050565b5f6135d683836135af565b9150826002028217905092915050565b6135ef8261294d565b67ffffffffffffffff81111561360857613607612afa565b5b6136128254612f80565b61361d82828561355d565b5f60209050601f83116001811461364e575f841561363c578287015190505b61364685826135cb565b8655506136ad565b601f19841661365c86613446565b5f5b828110156136835784890151825560018201915060208501945060208101905061365e565b868310156136a0578489015161369c601f8916826135af565b8355505b6001600288020188555050505b505050505050565b7f54696d65466c6f775661756c743a204e6f207265776172647320746f20636c615f8201527f696d000000000000000000000000000000000000000000000000000000000000602082015250565b5f61370f602283612957565b915061371a826136b5565b604082019050919050565b5f6020820190508181035f83015261373c81613703565b9050919050565b7f54696d65466c6f775661756c743a204e6f207265776172647320617661696c615f8201527f626c6520746f20636c61696d0000000000000000000000000000000000000000602082015250565b5f61379d602c83612957565b91506137a882613743565b604082019050919050565b5f6020820190508181035f8301526137ca81613791565b9050919050565b7f54696d65466c6f775661756c743a20416c7265616479207374616b65640000005f82015250565b5f613805601d83612957565b9150613810826137d1565b602082019050919050565b5f6020820190508181035f830152613832816137f9565b9050919050565b7f54696d65466c6f775661756c743a2053747265616d206973206e6f74206163745f8201527f6976650000000000000000000000000000000000000000000000000000000000602082015250565b5f613893602383612957565b915061389e82613839565b604082019050919050565b5f6020820190508181035f8301526138c081613887565b9050919050565b7f54696d65466c6f775661756c743a204f6e6c7920726563697069656e742063615f8201527f6e20776974686472617700000000000000000000000000000000000000000000602082015250565b5f613921602a83612957565b915061392c826138c7565b604082019050919050565b5f6020820190508181035f83015261394e81613915565b9050919050565b7f54696d65466c6f775661756c743a204e6f7468696e6720746f207769746864725f8201527f6177000000000000000000000000000000000000000000000000000000000000602082015250565b5f6139af602283612957565b91506139ba82613955565b604082019050919050565b5f6020820190508181035f8301526139dc816139a3565b9050919050565b7f54696d65466c6f775661756c743a20496e76616c696420726563697069656e745f82015250565b5f613a17602083612957565b9150613a22826139e3565b602082019050919050565b5f6020820190508181035f830152613a4481613a0b565b9050919050565b7f54696d65466c6f775661756c743a2043616e6e6f742073747265616d20746f205f8201527f73656c6600000000000000000000000000000000000000000000000000000000602082015250565b5f613aa5602483612957565b9150613ab082613a4b565b604082019050919050565b5f6020820190508181035f830152613ad281613a99565b9050919050565b7f54696d65466c6f775661756c743a204475726174696f6e206d757374206265205f8201527f706f736974697665000000000000000000000000000000000000000000000000602082015250565b5f613b33602883612957565b9150613b3e82613ad9565b604082019050919050565b5f6020820190508181035f830152613b6081613b27565b9050919050565b5f613b718261285f565b91507fffffffffffffffffffffffffffffffffffffffffffffffffffffffffffffffff8203613ba357613ba2613204565b5b600182019050919050565b5f60a082019050613bc15f830188612868565b613bce6020830187612868565b613bdb6040830186612868565b613be86060830185612868565b613bf56080830184612868565b9695505050505050565b7f54696d65466c6f775661756c743a204f6e6c792073656e646572206f722072655f8201527f63697069656e742063616e2063616e63656c0000000000000000000000000000602082015250565b5f613c59603283612957565b9150613c6482613bff565b604082019050919050565b5f6020820190508181035f830152613c8681613c4d565b9050919050565b7f54696d65466c6f775661756c743a20526563697069656e7420726566756e64205f8201527f6661696c65640000000000000000000000000000000000000000000000000000602082015250565b5f613ce7602683612957565b9150613cf282613c8d565b604082019050919050565b5f6020820190508181035f830152613d1481613cdb565b9050919050565b7f54696d65466c6f775661756c743a2053656e64657220726566756e64206661695f8201527f6c65640000000000000000000000000000000000000000000000000000000000602082015250565b5f613d75602383612957565b9150613d8082613d1b565b604082019050919050565b5f6020820190508181035f830152613da281613d69565b9050919050565b5f81519050613db781612a48565b92915050565b5f60208284031215613dd257613dd16128a7565b5b5f613ddf84828501613da9565b9150509291505056fea264697066735822122086ac048c4a33c945b65cbdc48aafaa6087358e7ef1f2684e976d7fb7ee81047964736f6c634300081e0033","linkReferences":{}},"methodIdentifiers":{"STREAMING_FEE_BPS()":"2914051f","cancelStream(uint256)":"6db9241b","claimRewards()":"372500ab","createStream(address,uint256)":"3df7fb8c","emergencyPause()":"51858e27","getClaimableBalance(uint256)":"a4424d5a","getClaimableRewards(address)":"308e401e","getFeeInfo()":"0002eab7","getRealisticClaimableRewards(address)":"ef42466c","getStream(uint256)":"894e9a0d","getTotalStreams()":"e126559a","getUserStake(address)":"bbadc93a","getVaultInfo()":"7f98aa71","getVaultStats()":"a59aa5a6","lastUpdateTime()":"c8f33c91","nextStreamId()":"1e99d569","owner()":"8da5cb5b","rewardRate()":"7b0a47ee","setVaultPaused(bool)":"315e4ec3","stake()":"3a4b66f1","stakes(address)":"16934fc4","streams(uint256)":"64d60d91","totalFeesCollected()":"60c6d8ae","totalRewardsAvailable()":"6de813f1","totalStaked()":"817b1cd2","unstake(uint256)":"2e17de78","updateRewardRate(uint256)":"9ef3a261","updateVaultParams(string)":"320541b2","userRewards(address)":"0660f1e8","vaultActive()":"9e591bc6","vaultName()":"0ace9ca0","withdrawFromStream(uint256)":"3a597f48"},"id":18}