{"abi":[{"type":"constructor","inputs":[{"name":"_vaultName","type":"string","internalType":"string"},{"name":"_initialRewardRate","type":"uint256","internalType":"uint256"},{"name":"_baseAPY","type":"uint256","internalType":"uint256"},{"name":"_charityAddress","type":"address","internalType":"address"}],"stateMutability":"nonpayable"},{"type":"receive","stateMutability":"payable"},{"type":"function","name":"OWNER_SHARE_BPS","inputs":[],"outputs":[{"name":"","type":"uint256","internalType":"uint256"}],"stateMutability":"view"},{"type":"function","name":"STAKER_SHARE_BPS","inputs":[],"outputs":[{"name":"","type":"uint256","internalType":"uint256"}],"stateMutability":"view"},{"type":"function","name":"STREAMING_FEE_BPS","inputs":[],"outputs":[{"name":"","type":"uint256","internalType":"uint256"}],"stateMutability":"view"},{"type":"function","name":"baseAPY","inputs":[],"outputs":[{"name":"","type":"uint256","internalType":"uint256"}],"stateMutability":"view"},{"type":"function","name":"calculateExcessFunds","inputs":[],"outputs":[{"name":"","type":"uint256","internalType":"uint256"}],"stateMutability":"view"},{"type":"function","name":"cancelStream","inputs":[{"name":"streamId","type":"uint256","internalType":"uint256"}],"outputs":[],"stateMutability":"nonpayable"},{"type":"function","name":"charityAddress","inputs":[],"outputs":[{"name":"","type":"address","internalType":"address"}],"stateMutability":"view"},{"type":"function","name":"charityFunds","inputs":[],"outputs":[{"name":"","type":"uint256","internalType":"uint256"}],"stateMutability":"view"},{"type":"function","name":"claimRewards","inputs":[],"outputs":[],"stateMutability":"nonpayable"},{"type":"function","name":"createStream","inputs":[{"name":"recipient","type":"address","internalType":"address"},{"name":"duration","type":"uint256","internalType":"uint256"}],"outputs":[],"stateMutability":"payable"},{"type":"function","name":"distributeExcessFunds","inputs":[],"outputs":[],"stateMutability":"nonpayable"},{"type":"function","name":"emergencyPause","inputs":[],"outputs":[],"stateMutability":"nonpayable"},{"type":"function","name":"getBalanceInfo","inputs":[],"outputs":[{"name":"balance","type":"uint256","internalType":"uint256"},{"name":"totalStakedAmount","type":"uint256","internalType":"uint256"},{"name":"availableForRewards","type":"uint256","internalType":"uint256"},{"name":"ownerRevenueAvailable","type":"uint256","internalType":"uint256"},{"name":"charityFundsAvailable","type":"uint256","internalType":"uint256"}],"stateMutability":"view"},{"type":"function","name":"getClaimableBalance","inputs":[{"name":"streamId","type":"uint256","internalType":"uint256"}],"outputs":[{"name":"","type":"uint256","internalType":"uint256"}],"stateMutability":"view"},{"type":"function","name":"getClaimableRewards","inputs":[{"name":"user","type":"address","internalType":"address"}],"outputs":[{"name":"","type":"uint256","internalType":"uint256"}],"stateMutability":"view"},{"type":"function","name":"getCurrentAPY","inputs":[],"outputs":[{"name":"","type":"uint256","internalType":"uint256"}],"stateMutability":"view"},{"type":"function","name":"getFeeInfo","inputs":[],"outputs":[{"name":"","type":"uint256","internalType":"uint256"},{"name":"","type":"uint256","internalType":"uint256"},{"name":"","type":"uint256","internalType":"uint256"},{"name":"","type":"uint256","internalType":"uint256"}],"stateMutability":"view"},{"type":"function","name":"getRealisticClaimableRewards","inputs":[{"name":"user","type":"address","internalType":"address"}],"outputs":[{"name":"","type":"uint256","internalType":"uint256"}],"stateMutability":"view"},{"type":"function","name":"getRevenueSplit","inputs":[],"outputs":[{"name":"","type":"uint256","internalType":"uint256"},{"name":"","type":"uint256","internalType":"uint256"}],"stateMutability":"view"},{"type":"function","name":"getStream","inputs":[{"name":"streamId","type":"uint256","internalType":"uint256"}],"outputs":[{"name":"","type":"tuple","internalType":"struct SonicRushImproved.Stream","components":[{"name":"sender","type":"address","internalType":"address"},{"name":"recipient","type":"address","internalType":"address"},{"name":"totalAmount","type":"uint256","internalType":"uint256"},{"name":"flowRate","type":"uint256","internalType":"uint256"},{"name":"startTime","type":"uint256","internalType":"uint256"},{"name":"stopTime","type":"uint256","internalType":"uint256"},{"name":"amountWithdrawn","type":"uint256","internalType":"uint256"},{"name":"isActive","type":"bool","internalType":"bool"}]}],"stateMutability":"view"},{"type":"function","name":"getTotalStreams","inputs":[],"outputs":[{"name":"","type":"uint256","internalType":"uint256"}],"stateMutability":"view"},{"type":"function","name":"getUserStake","inputs":[{"name":"user","type":"address","internalType":"address"}],"outputs":[{"name":"","type":"tuple","internalType":"struct SonicRushImproved.Stake","components":[{"name":"amount","type":"uint256","internalType":"uint256"},{"name":"startTime","type":"uint256","internalType":"uint256"},{"name":"lastClaimTime","type":"uint256","internalType":"uint256"},{"name":"accumulatedRewards","type":"uint256","internalType":"uint256"},{"name":"isActive","type":"bool","internalType":"bool"}]}],"stateMutability":"view"},{"type":"function","name":"getVaultInfo","inputs":[],"outputs":[{"name":"name","type":"string","internalType":"string"},{"name":"staked","type":"uint256","internalType":"uint256"},{"name":"rewards","type":"uint256","internalType":"uint256"},{"name":"rate","type":"uint256","internalType":"uint256"},{"name":"active","type":"bool","internalType":"bool"}],"stateMutability":"view"},{"type":"function","name":"getVaultStats","inputs":[],"outputs":[{"name":"","type":"uint256","internalType":"uint256"},{"name":"","type":"uint256","internalType":"uint256"},{"name":"","type":"uint256","internalType":"uint256"}],"stateMutability":"view"},{"type":"function","name":"isSolvent","inputs":[],"outputs":[{"name":"","type":"bool","internalType":"bool"}],"stateMutability":"view"},{"type":"function","name":"lastUpdateTime","inputs":[],"outputs":[{"name":"","type":"uint256","internalType":"uint256"}],"stateMutability":"view"},{"type":"function","name":"nextStreamId","inputs":[],"outputs":[{"name":"","type":"uint256","internalType":"uint256"}],"stateMutability":"view"},{"type":"function","name":"owner","inputs":[],"outputs":[{"name":"","type":"address","internalType":"address"}],"stateMutability":"view"},{"type":"function","name":"ownerRevenue","inputs":[],"outputs":[{"name":"","type":"uint256","internalType":"uint256"}],"stateMutability":"view"},{"type":"function","name":"rewardRate","inputs":[],"outputs":[{"name":"","type":"uint256","internalType":"uint256"}],"stateMutability":"view"},{"type":"function","name":"setVaultPaused","inputs":[{"name":"paused","type":"bool","internalType":"bool"}],"outputs":[],"stateMutability":"nonpayable"},{"type":"function","name":"stake","inputs":[],"outputs":[],"stateMutability":"payable"},{"type":"function","name":"stakes","inputs":[{"name":"","type":"address","internalType":"address"}],"outputs":[{"name":"amount","type":"uint256","internalType":"uint256"},{"name":"startTime","type":"uint256","internalType":"uint256"},{"name":"lastClaimTime","type":"uint256","internalType":"uint256"},{"name":"accumulatedRewards","type":"uint256","internalType":"uint256"},{"name":"isActive","type":"bool","internalType":"bool"}],"stateMutability":"view"},{"type":"function","name":"streams","inputs":[{"name":"","type":"uint256","internalType":"uint256"}],"outputs":[{"name":"sender","type":"address","internalType":"address"},{"name":"recipient","type":"address","internalType":"address"},{"name":"totalAmount","type":"uint256","internalType":"uint256"},{"name":"flowRate","type":"uint256","internalType":"uint256"},{"name":"startTime","type":"uint256","internalType":"uint256"},{"name":"stopTime","type":"uint256","internalType":"uint256"},{"name":"amountWithdrawn","type":"uint256","internalType":"uint256"},{"name":"isActive","type":"bool","internalType":"bool"}],"stateMutability":"view"},{"type":"function","name":"totalFeesCollected","inputs":[],"outputs":[{"name":"","type":"uint256","internalType":"uint256"}],"stateMutability":"view"},{"type":"function","name":"totalRewardsAvailable","inputs":[],"outputs":[{"name":"","type":"uint256","internalType":"uint256"}],"stateMutability":"view"},{"type":"function","name":"totalStaked","inputs":[],"outputs":[{"name":"","type":"uint256","internalType":"uint256"}],"stateMutability":"view"},{"type":"function","name":"unstake","inputs":[{"name":"amount","type":"uint256","internalType":"uint256"}],"outputs":[],"stateMutability":"nonpayable"},{"type":"function","name":"updateRewardRate","inputs":[{"name":"newRate","type":"uint256","internalType":"uint256"}],"outputs":[],"stateMutability":"nonpayable"},{"type":"function","name":"updateVaultParams","inputs":[{"name":"_vaultName","type":"string","internalType":"string"}],"outputs":[],"stateMutability":"nonpayable"},{"type":"function","name":"userRewards","inputs":[{"name":"","type":"address","internalType":"address"}],"outputs":[{"name":"","type":"uint256","internalType":"uint256"}],"stateMutability":"view"},{"type":"function","name":"vaultActive","inputs":[],"outputs":[{"name":"","type":"bool","internalType":"bool"}],"stateMutability":"view"},{"type":"function","name":"vaultName","inputs":[],"outputs":[{"name":"","type":"string","internalType":"string"}],"stateMutability":"view"},{"type":"function","name":"withdrawCharityFunds","inputs":[{"name":"amount","type":"uint256","internalType":"uint256"}],"outputs":[],"stateMutability":"nonpayable"},{"type":"function","name":"withdrawFromStream","inputs":[{"name":"streamId","type":"uint256","internalType":"uint256"}],"outputs":[],"stateMutability":"nonpayable"},{"type":"function","name":"withdrawOwnerRevenue","inputs":[{"name":"amount","type":"uint256","internalType":"uint256"}],"outputs":[],"stateMutability":"nonpayable"},{"type":"event","name":"CharityFundsWithdrawn","inputs":[{"name":"amount","type":"uint256","indexed":false,"internalType":"uint256"}],"anonymous":false},{"type":"event","name":"ExcessFundsDistributed","inputs":[{"name":"ownerShare","type":"uint256","indexed":false,"internalType":"uint256"},{"name":"charityShare","type":"uint256","indexed":false,"internalType":"uint256"},{"name":"stakerBonus","type":"uint256","indexed":false,"internalType":"uint256"}],"anonymous":false},{"type":"event","name":"OwnerRevenueWithdrawn","inputs":[{"name":"amount","type":"uint256","indexed":false,"internalType":"uint256"}],"anonymous":false},{"type":"event","name":"RewardRateUpdated","inputs":[{"name":"newRate","type":"uint256","indexed":false,"internalType":"uint256"}],"anonymous":false},{"type":"event","name":"RewardsClaimed","inputs":[{"name":"user","type":"address","indexed":true,"internalType":"address"},{"name":"amount","type":"uint256","indexed":false,"internalType":"uint256"}],"anonymous":false},{"type":"event","name":"Staked","inputs":[{"name":"user","type":"address","indexed":true,"internalType":"address"},{"name":"amount","type":"uint256","indexed":false,"internalType":"uint256"}],"anonymous":false},{"type":"event","name":"StreamCancelled","inputs":[{"name":"streamId","type":"uint256","indexed":true,"internalType":"uint256"},{"name":"sender","type":"address","indexed":true,"internalType":"address"},{"name":"recipient","type":"address","indexed":true,"internalType":"address"},{"name":"senderBalance","type":"uint256","indexed":false,"internalType":"uint256"},{"name":"recipientBalance","type":"uint256","indexed":false,"internalType":"uint256"}],"anonymous":false},{"type":"event","name":"StreamCreated","inputs":[{"name":"streamId","type":"uint256","indexed":true,"internalType":"uint256"},{"name":"sender","type":"address","indexed":true,"internalType":"address"},{"name":"recipient","type":"address","indexed":true,"internalType":"address"},{"name":"totalAmount","type":"uint256","indexed":false,"internalType":"uint256"},{"name":"flowRate","type":"uint256","indexed":false,"internalType":"uint256"},{"name":"startTime","type":"uint256","indexed":false,"internalType":"uint256"},{"name":"stopTime","type":"uint256","indexed":false,"internalType":"uint256"},{"name":"feeCollected","type":"uint256","indexed":false,"internalType":"uint256"},{"name":"stakerShare","type":"uint256","indexed":false,"internalType":"uint256"},{"name":"ownerShare","type":"uint256","indexed":false,"internalType":"uint256"}],"anonymous":false},{"type":"event","name":"Unstaked","inputs":[{"name":"user","type":"address","indexed":true,"internalType":"address"},{"name":"amount","type":"uint256","indexed":false,"internalType":"uint256"}],"anonymous":false},{"type":"event","name":"VaultCreated","inputs":[{"name":"vaultName","type":"string","indexed":false,"internalType":"string"},{"name":"initialRewardRate","type":"uint256","indexed":false,"internalType":"uint256"}],"anonymous":false},{"type":"event","name":"VaultPaused","inputs":[{"name":"paused","type":"bool","indexed":false,"internalType":"bool"}],"anonymous":false},{"type":"event","name":"Withdrawn","inputs":[{"name":"streamId","type":"uint256","indexed":true,"internalType":"uint256"},{"name":"recipient","type":"address","indexed":true,"internalType":"address"},{"name":"amount","type":"uint256","indexed":false,"internalType":"uint256"}],"anonymous":false}],"bytecode":{"object":"0x608060405234801561000f575f5ffd5b506040516156fc3803806156fc833981810160405281019061003191906103e7565b5f73ffffffffffffffffffffffffffffffffffffffff168173ffffffffffffffffffffffffffffffffffffffff160361009f576040517f08c379a0000000000000000000000000000000000000000000000000000000008152600401610096906104e7565b60405180910390fd5b3373ffffffffffffffffffffffffffffffffffffffff168173ffffffffffffffffffffffffffffffffffffffff160361010d576040517f08c379a000000000000000000000000000000000000000000000000000000000815260040161010490610575565b60405180910390fd5b335f5f6101000a81548173ffffffffffffffffffffffffffffffffffffffff021916908373ffffffffffffffffffffffffffffffffffffffff1602179055508060015f6101000a81548173ffffffffffffffffffffffffffffffffffffffff021916908373ffffffffffffffffffffffffffffffffffffffff160217905550836007908161019b919061079a565b5082600b8190555081600c819055506001600d5f6101000a81548160ff02191690831515021790555042600a819055507f680471857f6a7a56e8056d015c139b564359a0754bdb17688090b1d09953047784846040516101fc9291906108b0565b60405180910390a1505050506108de565b5f604051905090565b5f5ffd5b5f5ffd5b5f5ffd5b5f5ffd5b5f601f19601f8301169050919050565b7f4e487b71000000000000000000000000000000000000000000000000000000005f52604160045260245ffd5b61026c82610226565b810181811067ffffffffffffffff8211171561028b5761028a610236565b5b80604052505050565b5f61029d61020d565b90506102a98282610263565b919050565b5f67ffffffffffffffff8211156102c8576102c7610236565b5b6102d182610226565b9050602081019050919050565b8281835e5f83830152505050565b5f6102fe6102f9846102ae565b610294565b90508281526020810184848401111561031a57610319610222565b5b6103258482856102de565b509392505050565b5f82601f8301126103415761034061021e565b5b81516103518482602086016102ec565b91505092915050565b5f819050919050565b61036c8161035a565b8114610376575f5ffd5b50565b5f8151905061038781610363565b92915050565b5f73ffffffffffffffffffffffffffffffffffffffff82169050919050565b5f6103b68261038d565b9050919050565b6103c6816103ac565b81146103d0575f5ffd5b50565b5f815190506103e1816103bd565b92915050565b5f5f5f5f608085870312156103ff576103fe610216565b5b5f85015167ffffffffffffffff81111561041c5761041b61021a565b5b6104288782880161032d565b945050602061043987828801610379565b935050604061044a87828801610379565b925050606061045b878288016103d3565b91505092959194509250565b5f82825260208201905092915050565b7f536f6e6963527573683a20496e76616c696420636861726974792061646472655f8201527f7373000000000000000000000000000000000000000000000000000000000000602082015250565b5f6104d1602283610467565b91506104dc82610477565b604082019050919050565b5f6020820190508181035f8301526104fe816104c5565b9050919050565b7f536f6e6963527573683a20436861726974792063616e6e6f74206265206f776e5f8201527f6572000000000000000000000000000000000000000000000000000000000000602082015250565b5f61055f602283610467565b915061056a82610505565b604082019050919050565b5f6020820190508181035f83015261058c81610553565b9050919050565b5f81519050919050565b7f4e487b71000000000000000000000000000000000000000000000000000000005f52602260045260245ffd5b5f60028204905060018216806105e157607f821691505b6020821081036105f4576105f361059d565b5b50919050565b5f819050815f5260205f209050919050565b5f6020601f8301049050919050565b5f82821b905092915050565b5f600883026106567fffffffffffffffffffffffffffffffffffffffffffffffffffffffffffffffff8261061b565b610660868361061b565b95508019841693508086168417925050509392505050565b5f819050919050565b5f61069b6106966106918461035a565b610678565b61035a565b9050919050565b5f819050919050565b6106b483610681565b6106c86106c0826106a2565b848454610627565b825550505050565b5f5f905090565b6106df6106d0565b6106ea8184846106ab565b505050565b5b8181101561070d576107025f826106d7565b6001810190506106f0565b5050565b601f82111561075257610723816105fa565b61072c8461060c565b8101602085101561073b578190505b61074f6107478561060c565b8301826106ef565b50505b505050565b5f82821c905092915050565b5f6107725f1984600802610757565b1980831691505092915050565b5f61078a8383610763565b9150826002028217905092915050565b6107a382610593565b67ffffffffffffffff8111156107bc576107bb610236565b5b6107c682546105ca565b6107d1828285610711565b5f60209050601f831160018114610802575f84156107f0578287015190505b6107fa858261077f565b865550610861565b601f198416610810866105fa565b5f5b8281101561083757848901518255600182019150602085019450602081019050610812565b868310156108545784890151610850601f891682610763565b8355505b6001600288020188555050505b505050505050565b5f61087382610593565b61087d8185610467565b935061088d8185602086016102de565b61089681610226565b840191505092915050565b6108aa8161035a565b82525050565b5f6040820190508181035f8301526108c88185610869565b90506108d760208301846108a1565b9392505050565b614e11806108eb5f395ff3fe60806040526004361061027e575f3560e01c806365242a241161014e5780639ef3a261116100c0578063e126559a11610079578063e126559a14610931578063e17901d81461095b578063e1d37e6014610985578063ef42466c146109b0578063f4ed1743146109ec578063fc00e62814610a1657610285565b80639ef3a26114610811578063a4424d5a14610839578063a59aa5a614610875578063afcf2fc4146108a1578063bbadc93a146108cb578063c8f33c911461090757610285565b8063817b1cd211610112578063817b1cd214610717578063894e9a0d146107415780638da5cb5b1461077d578063962ca496146107a75780639a97b078146107d15780639e591bc6146107e757610285565b806365242a24146106435780636db9241b1461066d5780636de813f1146106955780637b0a47ee146106bf5780637f98aa71146106e957610285565b8063320541b2116101f257806351858e27116101ab57806351858e27146105445780635c69d3a61461055a5780635c9a5101146105845780635ce23950146105ac57806360c6d8ae146105d657806364d60d911461060057610285565b8063320541b214610490578063372500ab146104b85780633a4b66f1146104ce5780633a597f48146104d85780633df7fb8c14610500578063492406291461051c57610285565b80631e99d569116102445780631e99d56914610386578063214405a9146103b05780632914051f146103da5780632e17de7814610404578063308e401e1461042c578063315e4ec31461046857610285565b806202eab714610289578062292526146102b65780630660f1e8146102e05780630ace9ca01461031c57806316934fc41461034657610285565b3661028557005b5f5ffd5b348015610294575f5ffd5b5061029d610a44565b6040516102ad94939291906135d8565b60405180910390f35b3480156102c1575f5ffd5b506102ca610a61565b6040516102d7919061361b565b60405180910390f35b3480156102eb575f5ffd5b506103066004803603810190610301919061369f565b610a67565b604051610313919061361b565b60405180910390f35b348015610327575f5ffd5b50610330610a7c565b60405161033d919061373a565b60405180910390f35b348015610351575f5ffd5b5061036c6004803603810190610367919061369f565b610b08565b60405161037d959493929190613774565b60405180910390f35b348015610391575f5ffd5b5061039a610b46565b6040516103a7919061361b565b60405180910390f35b3480156103bb575f5ffd5b506103c4610b4c565b6040516103d1919061361b565b60405180910390f35b3480156103e5575f5ffd5b506103ee610b52565b6040516103fb919061361b565b60405180910390f35b34801561040f575f5ffd5b5061042a600480360381019061042591906137ef565b610b57565b005b348015610437575f5ffd5b50610452600480360381019061044d919061369f565b610e95565b60405161045f919061361b565b60405180910390f35b348015610473575f5ffd5b5061048e60048036038101906104899190613844565b611043565b005b34801561049b575f5ffd5b506104b660048036038101906104b1919061399b565b611125565b005b3480156104c3575f5ffd5b506104cc6111c6565b005b6104d66116f2565b005b3480156104e3575f5ffd5b506104fe60048036038101906104f991906137ef565b6119ac565b005b61051a600480360381019061051591906139e2565b611cc7565b005b348015610527575f5ffd5b50610542600480360381019061053d91906137ef565b6120da565b005b34801561054f575f5ffd5b5061055861239c565b005b348015610565575f5ffd5b5061056e61247d565b60405161057b919061361b565b60405180910390f35b34801561058f575f5ffd5b506105aa60048036038101906105a591906137ef565b612483565b005b3480156105b7575f5ffd5b506105c0612747565b6040516105cd9190613a20565b60405180910390f35b3480156105e1575f5ffd5b506105ea612753565b6040516105f7919061361b565b60405180910390f35b34801561060b575f5ffd5b50610626600480360381019061062191906137ef565b612759565b60405161063a989796959493929190613a48565b60405180910390f35b34801561064e575f5ffd5b506106576127e7565b604051610664919061361b565b60405180910390f35b348015610678575f5ffd5b50610693600480360381019061068e91906137ef565b61288f565b005b3480156106a0575f5ffd5b506106a9612d05565b6040516106b6919061361b565b60405180910390f35b3480156106ca575f5ffd5b506106d3612d0b565b6040516106e0919061361b565b60405180910390f35b3480156106f4575f5ffd5b506106fd612d11565b60405161070e959493929190613ac4565b60405180910390f35b348015610722575f5ffd5b5061072b612dcc565b604051610738919061361b565b60405180910390f35b34801561074c575f5ffd5b50610767600480360381019061076291906137ef565b612dd2565b6040516107749190613be9565b60405180910390f35b348015610788575f5ffd5b50610791612ef3565b60405161079e9190613c03565b60405180910390f35b3480156107b2575f5ffd5b506107bb612f17565b6040516107c8919061361b565b60405180910390f35b3480156107dc575f5ffd5b506107e5612fa8565b005b3480156107f2575f5ffd5b506107fb6131e4565b6040516108089190613a20565b60405180910390f35b34801561081c575f5ffd5b50610837600480360381019061083291906137ef565b6131f6565b005b348015610844575f5ffd5b5061085f600480360381019061085a91906137ef565b6132c5565b60405161086c919061361b565b60405180910390f35b348015610880575f5ffd5b50610889613370565b60405161089893929190613c1c565b60405180910390f35b3480156108ac575f5ffd5b506108b5613387565b6040516108c29190613c03565b60405180910390f35b3480156108d6575f5ffd5b506108f160048036038101906108ec919061369f565b6133ac565b6040516108fe9190613cb7565b60405180910390f35b348015610912575f5ffd5b5061091b613444565b604051610928919061361b565b60405180910390f35b34801561093c575f5ffd5b5061094561344a565b604051610952919061361b565b60405180910390f35b348015610966575f5ffd5b5061096f613453565b60405161097c919061361b565b60405180910390f35b348015610990575f5ffd5b50610999613459565b6040516109a7929190613cd0565b60405180910390f35b3480156109bb575f5ffd5b506109d660048036038101906109d1919061369f565b613469565b6040516109e3919061361b565b60405180910390f35b3480156109f7575f5ffd5b50610a00613500565b604051610a0d919061361b565b60405180910390f35b348015610a21575f5ffd5b50610a2a613506565b604051610a3b959493929190613cf7565b60405180910390f35b5f5f5f5f600a600454600554600654935093509350935090919293565b60055481565b600f602052805f5260405f205f915090505481565b60078054610a8990613d75565b80601f0160208091040260200160405190810160405280929190818152602001828054610ab590613d75565b8015610b005780601f10610ad757610100808354040283529160200191610b00565b820191905f5260205f20905b815481529060010190602001808311610ae357829003601f168201915b505050505081565b600e602052805f5260405f205f91509050805f015490806001015490806002015490806003015490806004015f9054906101000a900460ff16905085565b60035481565b600c5481565b600a81565b600d5f9054906101000a900460ff16610ba5576040517f08c379a0000000000000000000000000000000000000000000000000000000008152600401610b9c90613def565b60405180910390fd5b805f8111610be8576040517f08c379a0000000000000000000000000000000000000000000000000000000008152600401610bdf90613e7d565b60405180910390fd5b600160149054906101000a900460ff1615610c38576040517f08c379a0000000000000000000000000000000000000000000000000000000008152600401610c2f90613ee5565b60405180910390fd5b60018060146101000a81548160ff0219169083151502179055505f600e5f3373ffffffffffffffffffffffffffffffffffffffff1673ffffffffffffffffffffffffffffffffffffffff1681526020019081526020015f209050806004015f9054906101000a900460ff16610ce2576040517f08c379a0000000000000000000000000000000000000000000000000000000008152600401610cd990613f4d565b60405180910390fd5b805f0154831115610d28576040517f08c379a0000000000000000000000000000000000000000000000000000000008152600401610d1f90613fdb565b60405180910390fd5b82815f015f828254610d3a9190614026565b925050819055508260085f828254610d529190614026565b925050819055505f815f015403610d7f575f816004015f6101000a81548160ff0219169083151502179055505b5f3373ffffffffffffffffffffffffffffffffffffffff1684604051610da490614086565b5f6040518083038185875af1925050503d805f8114610dde576040519150601f19603f3d011682016040523d82523d5f602084013e610de3565b606091505b5050905080610e27576040517f08c379a0000000000000000000000000000000000000000000000000000000008152600401610e1e906140e4565b60405180910390fd5b3373ffffffffffffffffffffffffffffffffffffffff167f0f5bb82176feb1b5e747e28471aa92156a04d9f3ab9f45f28e2d704232b93f7585604051610e6d919061361b565b60405180910390a250505f600160146101000a81548160ff0219169083151502179055505050565b5f600e5f8373ffffffffffffffffffffffffffffffffffffffff1673ffffffffffffffffffffffffffffffffffffffff1681526020019081526020015f206004015f9054906101000a900460ff16610f2c57600f5f8373ffffffffffffffffffffffffffffffffffffffff1673ffffffffffffffffffffffffffffffffffffffff1681526020019081526020015f2054905061103e565b5f610e10600e5f8573ffffffffffffffffffffffffffffffffffffffff1673ffffffffffffffffffffffffffffffffffffffff1681526020019081526020015f206002015442610f7c9190614026565b610f86919061412f565b90505f61271082600b54600e5f8873ffffffffffffffffffffffffffffffffffffffff1673ffffffffffffffffffffffffffffffffffffffff1681526020019081526020015f205f0154610fda919061415f565b610fe4919061415f565b610fee919061412f565b905080600f5f8673ffffffffffffffffffffffffffffffffffffffff1673ffffffffffffffffffffffffffffffffffffffff1681526020019081526020015f205461103991906141a0565b925050505b919050565b5f5f9054906101000a900473ffffffffffffffffffffffffffffffffffffffff1673ffffffffffffffffffffffffffffffffffffffff163373ffffffffffffffffffffffffffffffffffffffff16146110d1576040517f08c379a00000000000000000000000000000000000000000000000000000000081526004016110c89061421d565b60405180910390fd5b8015600d5f6101000a81548160ff0219169083151502179055507f152cbfe4e8597a33181d2da9ed5162e734ca8b263b9eb6105f169287a39908f68160405161111a9190613a20565b60405180910390a150565b5f5f9054906101000a900473ffffffffffffffffffffffffffffffffffffffff1673ffffffffffffffffffffffffffffffffffffffff163373ffffffffffffffffffffffffffffffffffffffff16146111b3576040517f08c379a00000000000000000000000000000000000000000000000000000000081526004016111aa9061421d565b60405180910390fd5b80600790816111c291906143db565b5050565b600d5f9054906101000a900460ff16611214576040517f08c379a000000000000000000000000000000000000000000000000000000000815260040161120b90613def565b60405180910390fd5b600160149054906101000a900460ff1615611264576040517f08c379a000000000000000000000000000000000000000000000000000000000815260040161125b90613ee5565b60405180910390fd5b60018060146101000a81548160ff021916908315150217905550600e5f3373ffffffffffffffffffffffffffffffffffffffff1673ffffffffffffffffffffffffffffffffffffffff1681526020019081526020015f206004015f9054906101000a900460ff1661130a576040517f08c379a000000000000000000000000000000000000000000000000000000000815260040161130190613f4d565b60405180910390fd5b5f600854612710600e5f3373ffffffffffffffffffffffffffffffffffffffff1673ffffffffffffffffffffffffffffffffffffffff1681526020019081526020015f205f015461135b919061415f565b611365919061412f565b90505f61271082600954611379919061415f565b611383919061412f565b90505f610e10600e5f3373ffffffffffffffffffffffffffffffffffffffff1673ffffffffffffffffffffffffffffffffffffffff1681526020019081526020015f2060020154426113d59190614026565b6113df919061412f565b90505f61271082600b54600e5f3373ffffffffffffffffffffffffffffffffffffffff1673ffffffffffffffffffffffffffffffffffffffff1681526020019081526020015f205f0154611433919061415f565b61143d919061415f565b611447919061412f565b90505f8382600f5f3373ffffffffffffffffffffffffffffffffffffffff1673ffffffffffffffffffffffffffffffffffffffff1681526020019081526020015f205461149491906141a0565b61149e91906141a0565b90505f81116114e2576040517f08c379a00000000000000000000000000000000000000000000000000000000081526004016114d9906144f4565b60405180910390fd5b5f60095482116114f257816114f6565b6009545b90505f811161153a576040517f08c379a000000000000000000000000000000000000000000000000000000000815260040161153190614582565b60405180910390fd5b42600e5f3373ffffffffffffffffffffffffffffffffffffffff1673ffffffffffffffffffffffffffffffffffffffff1681526020019081526020015f20600201819055505f600f5f3373ffffffffffffffffffffffffffffffffffffffff1673ffffffffffffffffffffffffffffffffffffffff1681526020019081526020015f20819055508060095f8282546115d29190614026565b925050819055505f3373ffffffffffffffffffffffffffffffffffffffff16826040516115fe90614086565b5f6040518083038185875af1925050503d805f8114611638576040519150601f19603f3d011682016040523d82523d5f602084013e61163d565b606091505b5050905080611681576040517f08c379a0000000000000000000000000000000000000000000000000000000008152600401611678906140e4565b60405180910390fd5b3373ffffffffffffffffffffffffffffffffffffffff167ffc30cddea38e2bf4d6ea7d3f9ed3b6ad7f176419f4963bd81318067a4aee73fe836040516116c7919061361b565b60405180910390a2505050505050505f600160146101000a81548160ff021916908315150217905550565b600d5f9054906101000a900460ff16611740576040517f08c379a000000000000000000000000000000000000000000000000000000000815260040161173790613def565b60405180910390fd5b345f8111611783576040517f08c379a000000000000000000000000000000000000000000000000000000000815260040161177a90613e7d565b60405180910390fd5b600160149054906101000a900460ff16156117d3576040517f08c379a00000000000000000000000000000000000000000000000000000000081526004016117ca90613ee5565b60405180910390fd5b60018060146101000a81548160ff021916908315150217905550600e5f3373ffffffffffffffffffffffffffffffffffffffff1673ffffffffffffffffffffffffffffffffffffffff1681526020019081526020015f206004015f9054906101000a900460ff161561187a576040517f08c379a0000000000000000000000000000000000000000000000000000000008152600401611871906145ea565b60405180910390fd5b6040518060a001604052803481526020014281526020014281526020015f815260200160011515815250600e5f3373ffffffffffffffffffffffffffffffffffffffff1673ffffffffffffffffffffffffffffffffffffffff1681526020019081526020015f205f820151815f01556020820151816001015560408201518160020155606082015181600301556080820151816004015f6101000a81548160ff0219169083151502179055509050503460085f82825461193a91906141a0565b925050819055503373ffffffffffffffffffffffffffffffffffffffff167f9e71bc8eea02a63969f509818f2dafb9254532904319f9dbda79b67bd34a5f3d34604051611987919061361b565b60405180910390a25f600160146101000a81548160ff02191690831515021790555050565b600160149054906101000a900460ff16156119fc576040517f08c379a00000000000000000000000000000000000000000000000000000000081526004016119f390613ee5565b60405180910390fd5b60018060146101000a81548160ff0219169083151502179055505f60025f8381526020019081526020015f209050806007015f9054906101000a900460ff16611a7a576040517f08c379a0000000000000000000000000000000000000000000000000000000008152600401611a7190614652565b60405180910390fd5b806001015f9054906101000a900473ffffffffffffffffffffffffffffffffffffffff1673ffffffffffffffffffffffffffffffffffffffff163373ffffffffffffffffffffffffffffffffffffffff1614611b0b576040517f08c379a0000000000000000000000000000000000000000000000000000000008152600401611b02906146e0565b60405180910390fd5b5f611b15836132c5565b90505f8111611b59576040517f08c379a0000000000000000000000000000000000000000000000000000000008152600401611b5090614748565b60405180910390fd5b80826006015f828254611b6c91906141a0565b9250508190555081600501544210158015611b8f57508160020154826006015410155b15611bb0575f826007015f6101000a81548160ff0219169083151502179055505b5f3373ffffffffffffffffffffffffffffffffffffffff1682604051611bd590614086565b5f6040518083038185875af1925050503d805f8114611c0f576040519150601f19603f3d011682016040523d82523d5f602084013e611c14565b606091505b5050905080611c58576040517f08c379a0000000000000000000000000000000000000000000000000000000008152600401611c4f906140e4565b60405180910390fd5b3373ffffffffffffffffffffffffffffffffffffffff16847fcf7d23a3cbe4e8b36ff82fd1b05b1b17373dc7804b4ebbd6e2356716ef20237284604051611c9f919061361b565b60405180910390a35050505f600160146101000a81548160ff02191690831515021790555050565b5f73ffffffffffffffffffffffffffffffffffffffff168273ffffffffffffffffffffffffffffffffffffffff1603611d35576040517f08c379a0000000000000000000000000000000000000000000000000000000008152600401611d2c906147b0565b60405180910390fd5b3373ffffffffffffffffffffffffffffffffffffffff168273ffffffffffffffffffffffffffffffffffffffff1603611da3576040517f08c379a0000000000000000000000000000000000000000000000000000000008152600401611d9a90614818565b60405180910390fd5b5f8111611de5576040517f08c379a0000000000000000000000000000000000000000000000000000000008152600401611ddc906148a6565b60405180910390fd5b5f3411611e27576040517f08c379a0000000000000000000000000000000000000000000000000000000008152600401611e1e90613e7d565b60405180910390fd5b5f612710600a34611e38919061415f565b611e42919061412f565b90505f8134611e519190614026565b90505f612710611b5884611e65919061415f565b611e6f919061412f565b90505f8184611e7e9190614026565b90508360045f828254611e9191906141a0565b925050819055508160095f828254611ea991906141a0565b925050819055508060055f828254611ec191906141a0565b925050819055505f60035f815480929190611edb906148c4565b9190505590505f8685611eee919061412f565b90506040518061010001604052803373ffffffffffffffffffffffffffffffffffffffff1681526020018973ffffffffffffffffffffffffffffffffffffffff1681526020018681526020018281526020014281526020018842611f5291906141a0565b81526020015f81526020016001151581525060025f8481526020019081526020015f205f820151815f015f6101000a81548173ffffffffffffffffffffffffffffffffffffffff021916908373ffffffffffffffffffffffffffffffffffffffff1602179055506020820151816001015f6101000a81548173ffffffffffffffffffffffffffffffffffffffff021916908373ffffffffffffffffffffffffffffffffffffffff16021790555060408201518160020155606082015181600301556080820151816004015560a0820151816005015560c0820151816006015560e0820151816007015f6101000a81548160ff0219169083151502179055509050508773ffffffffffffffffffffffffffffffffffffffff163373ffffffffffffffffffffffffffffffffffffffff16837f43cb4d865b9c1192ef137dd712f4231e31430f82250c2600c2e6db99cb65cf2e8885428d426120b291906141a0565b8d8c8c6040516120c8979695949392919061490b565b60405180910390a45050505050505050565b5f5f9054906101000a900473ffffffffffffffffffffffffffffffffffffffff1673ffffffffffffffffffffffffffffffffffffffff163373ffffffffffffffffffffffffffffffffffffffff1614612168576040517f08c379a000000000000000000000000000000000000000000000000000000000815260040161215f9061421d565b60405180910390fd5b600160149054906101000a900460ff16156121b8576040517f08c379a00000000000000000000000000000000000000000000000000000000081526004016121af90613ee5565b60405180910390fd5b60018060146101000a81548160ff021916908315150217905550600554811115612217576040517f08c379a000000000000000000000000000000000000000000000000000000000815260040161220e906149e8565b60405180910390fd5b600854476122259190614026565b811115612267576040517f08c379a000000000000000000000000000000000000000000000000000000000815260040161225e90614a50565b60405180910390fd5b8060055f8282546122789190614026565b925050819055505f5f5f9054906101000a900473ffffffffffffffffffffffffffffffffffffffff1673ffffffffffffffffffffffffffffffffffffffff16826040516122c490614086565b5f6040518083038185875af1925050503d805f81146122fe576040519150601f19603f3d011682016040523d82523d5f602084013e612303565b606091505b5050905080612347576040517f08c379a000000000000000000000000000000000000000000000000000000000815260040161233e906140e4565b60405180910390fd5b7f4455dc2790fe3a7d24ee5fb3a1ce166d487d207d58e64ff9a603bf80f656a83782604051612376919061361b565b60405180910390a1505f600160146101000a81548160ff02191690831515021790555050565b5f5f9054906101000a900473ffffffffffffffffffffffffffffffffffffffff1673ffffffffffffffffffffffffffffffffffffffff163373ffffffffffffffffffffffffffffffffffffffff161461242a576040517f08c379a00000000000000000000000000000000000000000000000000000000081526004016124219061421d565b60405180910390fd5b5f600d5f6101000a81548160ff0219169083151502179055507f152cbfe4e8597a33181d2da9ed5162e734ca8b263b9eb6105f169287a39908f660016040516124739190613a20565b60405180910390a1565b611b5881565b600160149054906101000a900460ff16156124d3576040517f08c379a00000000000000000000000000000000000000000000000000000000081526004016124ca90613ee5565b60405180910390fd5b60018060146101000a81548160ff02191690831515021790555060015f9054906101000a900473ffffffffffffffffffffffffffffffffffffffff1673ffffffffffffffffffffffffffffffffffffffff163373ffffffffffffffffffffffffffffffffffffffff161461257c576040517f08c379a000000000000000000000000000000000000000000000000000000000815260040161257390614ade565b60405180910390fd5b6006548111156125c1576040517f08c379a00000000000000000000000000000000000000000000000000000000081526004016125b890614b6c565b60405180910390fd5b600854476125cf9190614026565b811115612611576040517f08c379a000000000000000000000000000000000000000000000000000000000815260040161260890614a50565b60405180910390fd5b8060065f8282546126229190614026565b925050819055505f60015f9054906101000a900473ffffffffffffffffffffffffffffffffffffffff1673ffffffffffffffffffffffffffffffffffffffff168260405161266f90614086565b5f6040518083038185875af1925050503d805f81146126a9576040519150601f19603f3d011682016040523d82523d5f602084013e6126ae565b606091505b50509050806126f2576040517f08c379a00000000000000000000000000000000000000000000000000000000081526004016126e9906140e4565b60405180910390fd5b7f2f93b796cd54da33cc82d63de6bf05b09779fdedf9ec3c8b6bd5f75856f4e3b582604051612721919061361b565b60405180910390a1505f600160146101000a81548160ff02191690831515021790555050565b5f600854471015905090565b60045481565b6002602052805f5260405f205f91509050805f015f9054906101000a900473ffffffffffffffffffffffffffffffffffffffff1690806001015f9054906101000a900473ffffffffffffffffffffffffffffffffffffffff1690806002015490806003015490806004015490806005015490806006015490806007015f9054906101000a900460ff16905088565b5f5f600854036127f9575f905061288c565b5f612710611b5860045461280d919061415f565b612817919061412f565b90505f60085461271061016d8461282e919061415f565b612838919061415f565b612842919061412f565b90506127108111612857575f9250505061288c565b5f61271090505f818361286a9190614026565b9050828160095461287b919061415f565b612885919061412f565b9450505050505b90565b600160149054906101000a900460ff16156128df576040517f08c379a00000000000000000000000000000000000000000000000000000000081526004016128d690613ee5565b60405180910390fd5b60018060146101000a81548160ff0219169083151502179055505f60025f8381526020019081526020015f209050806007015f9054906101000a900460ff1661295d576040517f08c379a000000000000000000000000000000000000000000000000000000000815260040161295490614652565b60405180910390fd5b805f015f9054906101000a900473ffffffffffffffffffffffffffffffffffffffff1673ffffffffffffffffffffffffffffffffffffffff163373ffffffffffffffffffffffffffffffffffffffff161480612a075750806001015f9054906101000a900473ffffffffffffffffffffffffffffffffffffffff1673ffffffffffffffffffffffffffffffffffffffff163373ffffffffffffffffffffffffffffffffffffffff16145b612a46576040517f08c379a0000000000000000000000000000000000000000000000000000000008152600401612a3d90614bfa565b60405180910390fd5b5f612a50836132c5565b90505f8183600601548460020154612a689190614026565b612a729190614026565b90505f836007015f6101000a81548160ff0219169083151502179055505f821115612b64575f836001015f9054906101000a900473ffffffffffffffffffffffffffffffffffffffff1673ffffffffffffffffffffffffffffffffffffffff1683604051612adf90614086565b5f6040518083038185875af1925050503d805f8114612b19576040519150601f19603f3d011682016040523d82523d5f602084013e612b1e565b606091505b5050905080612b62576040517f08c379a0000000000000000000000000000000000000000000000000000000008152600401612b5990614c88565b60405180910390fd5b505b5f811115612c38575f835f015f9054906101000a900473ffffffffffffffffffffffffffffffffffffffff1673ffffffffffffffffffffffffffffffffffffffff1682604051612bb390614086565b5f6040518083038185875af1925050503d805f8114612bed576040519150601f19603f3d011682016040523d82523d5f602084013e612bf2565b606091505b5050905080612c36576040517f08c379a0000000000000000000000000000000000000000000000000000000008152600401612c2d90614cf0565b60405180910390fd5b505b826001015f9054906101000a900473ffffffffffffffffffffffffffffffffffffffff1673ffffffffffffffffffffffffffffffffffffffff16835f015f9054906101000a900473ffffffffffffffffffffffffffffffffffffffff1673ffffffffffffffffffffffffffffffffffffffff16857fb6e64e9a8283cc563b12fc25832dcf2be0fe8b949c63eccb2ba81a4f997c8a1e8486604051612cdd929190613cd0565b60405180910390a45050505f600160146101000a81548160ff02191690831515021790555050565b60095481565b600b5481565b60605f5f5f5f6007600854600954600b54600d5f9054906101000a900460ff16848054612d3d90613d75565b80601f0160208091040260200160405190810160405280929190818152602001828054612d6990613d75565b8015612db45780601f10612d8b57610100808354040283529160200191612db4565b820191905f5260205f20905b815481529060010190602001808311612d9757829003601f168201915b50505050509450945094509450945094509091929394565b60085481565b612dda613529565b60025f8381526020019081526020015f20604051806101000160405290815f82015f9054906101000a900473ffffffffffffffffffffffffffffffffffffffff1673ffffffffffffffffffffffffffffffffffffffff1673ffffffffffffffffffffffffffffffffffffffff168152602001600182015f9054906101000a900473ffffffffffffffffffffffffffffffffffffffff1673ffffffffffffffffffffffffffffffffffffffff1673ffffffffffffffffffffffffffffffffffffffff1681526020016002820154815260200160038201548152602001600482015481526020016005820154815260200160068201548152602001600782015f9054906101000a900460ff1615151515815250509050919050565b5f5f9054906101000a900473ffffffffffffffffffffffffffffffffffffffff1681565b5f5f60085403612f2b57600c549050612fa5565b5f612710611b58600454612f3f919061415f565b612f49919061412f565b90505f60085461271061016d84612f60919061415f565b612f6a919061415f565b612f74919061412f565b90505f600c548211612f8857600c54612f8a565b815b90506127108111612f9b5780612f9f565b6127105b93505050505b90565b5f5f9054906101000a900473ffffffffffffffffffffffffffffffffffffffff1673ffffffffffffffffffffffffffffffffffffffff163373ffffffffffffffffffffffffffffffffffffffff1614613036576040517f08c379a000000000000000000000000000000000000000000000000000000000815260040161302d9061421d565b60405180910390fd5b600160149054906101000a900460ff1615613086576040517f08c379a000000000000000000000000000000000000000000000000000000000815260040161307d90613ee5565b60405180910390fd5b60018060146101000a81548160ff0219169083151502179055505f6130a96127e7565b90505f81116130ed576040517f08c379a00000000000000000000000000000000000000000000000000000000081526004016130e490614d7e565b60405180910390fd5b5f60646032836130fd919061415f565b613107919061412f565b90505f6064601e84613119919061415f565b613123919061412f565b90505f6064601485613135919061415f565b61313f919061412f565b90508260055f82825461315291906141a0565b925050819055508160065f82825461316a91906141a0565b925050819055508060095f82825461318291906141a0565b925050819055507f99f27ca32aa598bafb71033c083b20a220f11e8a53f0caf97405993d3a8d27348383836040516131bc93929190613c1c565b60405180910390a1505050505f600160146101000a81548160ff021916908315150217905550565b600d5f9054906101000a900460ff1681565b5f5f9054906101000a900473ffffffffffffffffffffffffffffffffffffffff1673ffffffffffffffffffffffffffffffffffffffff163373ffffffffffffffffffffffffffffffffffffffff1614613284576040517f08c379a000000000000000000000000000000000000000000000000000000000815260040161327b9061421d565b60405180910390fd5b80600b819055507f41d466ebd06fb97e7786086ac8b69b7eb7da798592036251291d34e9791cde01816040516132ba919061361b565b60405180910390a150565b5f5f60025f8481526020019081526020015f209050806007015f9054906101000a900460ff166132f8575f91505061336b565b5f4290505f8260050154821161330e5781613314565b82600501545b90505f8360040154826133279190614026565b90505f84600301548261333a919061415f565b90505f8560060154821161334e575f61335f565b85600601548261335e9190614026565b5b90508096505050505050505b919050565b5f5f5f600854600954600b54925092509250909192565b60015f9054906101000a900473ffffffffffffffffffffffffffffffffffffffff1681565b6133b4613594565b600e5f8373ffffffffffffffffffffffffffffffffffffffff1673ffffffffffffffffffffffffffffffffffffffff1681526020019081526020015f206040518060a00160405290815f8201548152602001600182015481526020016002820154815260200160038201548152602001600482015f9054906101000a900460ff1615151515815250509050919050565b600a5481565b5f600354905090565b60065481565b5f5f611b58610bb8915091509091565b5f5f3073ffffffffffffffffffffffffffffffffffffffff1663308e401e846040518263ffffffff1660e01b81526004016134a49190613c03565b602060405180830381865afa1580156134bf573d5f5f3e3d5ffd5b505050506040513d601f19601f820116820180604052508101906134e39190614db0565b905060095481116134f457806134f8565b6009545b915050919050565b610bb881565b5f5f5f5f5f47945060085493506009549250600554915060065490509091929394565b6040518061010001604052805f73ffffffffffffffffffffffffffffffffffffffff1681526020015f73ffffffffffffffffffffffffffffffffffffffff1681526020015f81526020015f81526020015f81526020015f81526020015f81526020015f151581525090565b6040518060a001604052805f81526020015f81526020015f81526020015f81526020015f151581525090565b5f819050919050565b6135d2816135c0565b82525050565b5f6080820190506135eb5f8301876135c9565b6135f860208301866135c9565b61360560408301856135c9565b61361260608301846135c9565b95945050505050565b5f60208201905061362e5f8301846135c9565b92915050565b5f604051905090565b5f5ffd5b5f5ffd5b5f73ffffffffffffffffffffffffffffffffffffffff82169050919050565b5f61366e82613645565b9050919050565b61367e81613664565b8114613688575f5ffd5b50565b5f8135905061369981613675565b92915050565b5f602082840312156136b4576136b361363d565b5b5f6136c18482850161368b565b91505092915050565b5f81519050919050565b5f82825260208201905092915050565b8281835e5f83830152505050565b5f601f19601f8301169050919050565b5f61370c826136ca565b61371681856136d4565b93506137268185602086016136e4565b61372f816136f2565b840191505092915050565b5f6020820190508181035f8301526137528184613702565b905092915050565b5f8115159050919050565b61376e8161375a565b82525050565b5f60a0820190506137875f8301886135c9565b61379460208301876135c9565b6137a160408301866135c9565b6137ae60608301856135c9565b6137bb6080830184613765565b9695505050505050565b6137ce816135c0565b81146137d8575f5ffd5b50565b5f813590506137e9816137c5565b92915050565b5f602082840312156138045761380361363d565b5b5f613811848285016137db565b91505092915050565b6138238161375a565b811461382d575f5ffd5b50565b5f8135905061383e8161381a565b92915050565b5f602082840312156138595761385861363d565b5b5f61386684828501613830565b91505092915050565b5f5ffd5b5f5ffd5b7f4e487b71000000000000000000000000000000000000000000000000000000005f52604160045260245ffd5b6138ad826136f2565b810181811067ffffffffffffffff821117156138cc576138cb613877565b5b80604052505050565b5f6138de613634565b90506138ea82826138a4565b919050565b5f67ffffffffffffffff82111561390957613908613877565b5b613912826136f2565b9050602081019050919050565b828183375f83830152505050565b5f61393f61393a846138ef565b6138d5565b90508281526020810184848401111561395b5761395a613873565b5b61396684828561391f565b509392505050565b5f82601f8301126139825761398161386f565b5b813561399284826020860161392d565b91505092915050565b5f602082840312156139b0576139af61363d565b5b5f82013567ffffffffffffffff8111156139cd576139cc613641565b5b6139d98482850161396e565b91505092915050565b5f5f604083850312156139f8576139f761363d565b5b5f613a058582860161368b565b9250506020613a16858286016137db565b9150509250929050565b5f602082019050613a335f830184613765565b92915050565b613a4281613664565b82525050565b5f61010082019050613a5c5f83018b613a39565b613a69602083018a613a39565b613a7660408301896135c9565b613a8360608301886135c9565b613a9060808301876135c9565b613a9d60a08301866135c9565b613aaa60c08301856135c9565b613ab760e0830184613765565b9998505050505050505050565b5f60a0820190508181035f830152613adc8188613702565b9050613aeb60208301876135c9565b613af860408301866135c9565b613b0560608301856135c9565b613b126080830184613765565b9695505050505050565b613b2581613664565b82525050565b613b34816135c0565b82525050565b613b438161375a565b82525050565b61010082015f820151613b5e5f850182613b1c565b506020820151613b716020850182613b1c565b506040820151613b846040850182613b2b565b506060820151613b976060850182613b2b565b506080820151613baa6080850182613b2b565b5060a0820151613bbd60a0850182613b2b565b5060c0820151613bd060c0850182613b2b565b5060e0820151613be360e0850182613b3a565b50505050565b5f61010082019050613bfd5f830184613b49565b92915050565b5f602082019050613c165f830184613a39565b92915050565b5f606082019050613c2f5f8301866135c9565b613c3c60208301856135c9565b613c4960408301846135c9565b949350505050565b60a082015f820151613c655f850182613b2b565b506020820151613c786020850182613b2b565b506040820151613c8b6040850182613b2b565b506060820151613c9e6060850182613b2b565b506080820151613cb16080850182613b3a565b50505050565b5f60a082019050613cca5f830184613c51565b92915050565b5f604082019050613ce35f8301856135c9565b613cf060208301846135c9565b9392505050565b5f60a082019050613d0a5f8301886135c9565b613d1760208301876135c9565b613d2460408301866135c9565b613d3160608301856135c9565b613d3e60808301846135c9565b9695505050505050565b7f4e487b71000000000000000000000000000000000000000000000000000000005f52602260045260245ffd5b5f6002820490506001821680613d8c57607f821691505b602082108103613d9f57613d9e613d48565b5b50919050565b7f536f6e6963527573683a205661756c74206973207061757365640000000000005f82015250565b5f613dd9601a836136d4565b9150613de482613da5565b602082019050919050565b5f6020820190508181035f830152613e0681613dcd565b9050919050565b7f536f6e6963527573683a20416d6f756e74206d75737420626520706f736974695f8201527f7665000000000000000000000000000000000000000000000000000000000000602082015250565b5f613e676022836136d4565b9150613e7282613e0d565b604082019050919050565b5f6020820190508181035f830152613e9481613e5b565b9050919050565b7f536f6e6963527573683a205265656e7472616e742063616c6c000000000000005f82015250565b5f613ecf6019836136d4565b9150613eda82613e9b565b602082019050919050565b5f6020820190508181035f830152613efc81613ec3565b9050919050565b7f536f6e6963527573683a204e6f20616374697665207374616b650000000000005f82015250565b5f613f37601a836136d4565b9150613f4282613f03565b602082019050919050565b5f6020820190508181035f830152613f6481613f2b565b9050919050565b7f536f6e6963527573683a20496e73756666696369656e74207374616b656420615f8201527f6d6f756e74000000000000000000000000000000000000000000000000000000602082015250565b5f613fc56025836136d4565b9150613fd082613f6b565b604082019050919050565b5f6020820190508181035f830152613ff281613fb9565b9050919050565b7f4e487b71000000000000000000000000000000000000000000000000000000005f52601160045260245ffd5b5f614030826135c0565b915061403b836135c0565b925082820390508181111561405357614052613ff9565b5b92915050565b5f81905092915050565b50565b5f6140715f83614059565b915061407c82614063565b5f82019050919050565b5f61409082614066565b9150819050919050565b7f536f6e6963527573683a205472616e73666572206661696c65640000000000005f82015250565b5f6140ce601a836136d4565b91506140d98261409a565b602082019050919050565b5f6020820190508181035f8301526140fb816140c2565b9050919050565b7f4e487b71000000000000000000000000000000000000000000000000000000005f52601260045260245ffd5b5f614139826135c0565b9150614144836135c0565b92508261415457614153614102565b5b828204905092915050565b5f614169826135c0565b9150614174836135c0565b9250828202614182816135c0565b9150828204841483151761419957614198613ff9565b5b5092915050565b5f6141aa826135c0565b91506141b5836135c0565b92508282019050808211156141cd576141cc613ff9565b5b92915050565b7f536f6e6963527573683a204e6f7420746865206f776e657200000000000000005f82015250565b5f6142076018836136d4565b9150614212826141d3565b602082019050919050565b5f6020820190508181035f830152614234816141fb565b9050919050565b5f819050815f5260205f209050919050565b5f6020601f8301049050919050565b5f82821b905092915050565b5f600883026142977fffffffffffffffffffffffffffffffffffffffffffffffffffffffffffffffff8261425c565b6142a1868361425c565b95508019841693508086168417925050509392505050565b5f819050919050565b5f6142dc6142d76142d2846135c0565b6142b9565b6135c0565b9050919050565b5f819050919050565b6142f5836142c2565b614309614301826142e3565b848454614268565b825550505050565b5f5f905090565b614320614311565b61432b8184846142ec565b505050565b5b8181101561434e576143435f82614318565b600181019050614331565b5050565b601f821115614393576143648161423b565b61436d8461424d565b8101602085101561437c578190505b6143906143888561424d565b830182614330565b50505b505050565b5f82821c905092915050565b5f6143b35f1984600802614398565b1980831691505092915050565b5f6143cb83836143a4565b9150826002028217905092915050565b6143e4826136ca565b67ffffffffffffffff8111156143fd576143fc613877565b5b6144078254613d75565b614412828285614352565b5f60209050601f831160018114614443575f8415614431578287015190505b61443b85826143c0565b8655506144a2565b601f1984166144518661423b565b5f5b8281101561447857848901518255600182019150602085019450602081019050614453565b868310156144955784890151614491601f8916826143a4565b8355505b6001600288020188555050505b505050505050565b7f536f6e6963527573683a204e6f207265776172647320746f20636c61696d00005f82015250565b5f6144de601e836136d4565b91506144e9826144aa565b602082019050919050565b5f6020820190508181035f83015261450b816144d2565b9050919050565b7f536f6e6963527573683a204e6f207265776172647320617661696c61626c65205f8201527f746f20636c61696d000000000000000000000000000000000000000000000000602082015250565b5f61456c6028836136d4565b915061457782614512565b604082019050919050565b5f6020820190508181035f83015261459981614560565b9050919050565b7f536f6e6963527573683a20416c7265616479207374616b6564000000000000005f82015250565b5f6145d46019836136d4565b91506145df826145a0565b602082019050919050565b5f6020820190508181035f830152614601816145c8565b9050919050565b7f536f6e6963527573683a2053747265616d206973206e6f7420616374697665005f82015250565b5f61463c601f836136d4565b915061464782614608565b602082019050919050565b5f6020820190508181035f83015261466981614630565b9050919050565b7f536f6e6963527573683a204f6e6c7920726563697069656e742063616e2077695f8201527f7468647261770000000000000000000000000000000000000000000000000000602082015250565b5f6146ca6026836136d4565b91506146d582614670565b604082019050919050565b5f6020820190508181035f8301526146f7816146be565b9050919050565b7f536f6e6963527573683a204e6f7468696e6720746f20776974686472617700005f82015250565b5f614732601e836136d4565b915061473d826146fe565b602082019050919050565b5f6020820190508181035f83015261475f81614726565b9050919050565b7f536f6e6963527573683a20496e76616c696420726563697069656e74000000005f82015250565b5f61479a601c836136d4565b91506147a582614766565b602082019050919050565b5f6020820190508181035f8301526147c78161478e565b9050919050565b7f536f6e6963527573683a2043616e6e6f742073747265616d20746f2073656c665f82015250565b5f6148026020836136d4565b915061480d826147ce565b602082019050919050565b5f6020820190508181035f83015261482f816147f6565b9050919050565b7f536f6e6963527573683a204475726174696f6e206d75737420626520706f73695f8201527f7469766500000000000000000000000000000000000000000000000000000000602082015250565b5f6148906024836136d4565b915061489b82614836565b604082019050919050565b5f6020820190508181035f8301526148bd81614884565b9050919050565b5f6148ce826135c0565b91507fffffffffffffffffffffffffffffffffffffffffffffffffffffffffffffffff8203614900576148ff613ff9565b5b600182019050919050565b5f60e08201905061491e5f83018a6135c9565b61492b60208301896135c9565b61493860408301886135c9565b61494560608301876135c9565b61495260808301866135c9565b61495f60a08301856135c9565b61496c60c08301846135c9565b98975050505050505050565b7f536f6e6963527573683a20416d6f756e74206578636565647320617661696c615f8201527f626c6520726576656e7565000000000000000000000000000000000000000000602082015250565b5f6149d2602b836136d4565b91506149dd82614978565b604082019050919050565b5f6020820190508181035f8301526149ff816149c6565b9050919050565b7f536f6e6963527573683a20496e73756666696369656e742062616c616e6365005f82015250565b5f614a3a601f836136d4565b9150614a4582614a06565b602082019050919050565b5f6020820190508181035f830152614a6781614a2e565b9050919050565b7f536f6e6963527573683a204f6e6c7920636861726974792063616e20776974685f8201527f6472617700000000000000000000000000000000000000000000000000000000602082015250565b5f614ac86024836136d4565b9150614ad382614a6e565b604082019050919050565b5f6020820190508181035f830152614af581614abc565b9050919050565b7f536f6e6963527573683a20416d6f756e74206578636565647320617661696c615f8201527f626c6520636861726974792066756e6473000000000000000000000000000000602082015250565b5f614b566031836136d4565b9150614b6182614afc565b604082019050919050565b5f6020820190508181035f830152614b8381614b4a565b9050919050565b7f536f6e6963527573683a204f6e6c792073656e646572206f72207265636970695f8201527f656e742063616e2063616e63656c000000000000000000000000000000000000602082015250565b5f614be4602e836136d4565b9150614bef82614b8a565b604082019050919050565b5f6020820190508181035f830152614c1181614bd8565b9050919050565b7f536f6e6963527573683a20526563697069656e7420726566756e64206661696c5f8201527f6564000000000000000000000000000000000000000000000000000000000000602082015250565b5f614c726022836136d4565b9150614c7d82614c18565b604082019050919050565b5f6020820190508181035f830152614c9f81614c66565b9050919050565b7f536f6e6963527573683a2053656e64657220726566756e64206661696c6564005f82015250565b5f614cda601f836136d4565b9150614ce582614ca6565b602082019050919050565b5f6020820190508181035f830152614d0781614cce565b9050919050565b7f536f6e6963527573683a204e6f206578636573732066756e647320746f2064695f8201527f7374726962757465000000000000000000000000000000000000000000000000602082015250565b5f614d686028836136d4565b9150614d7382614d0e565b604082019050919050565b5f6020820190508181035f830152614d9581614d5c565b9050919050565b5f81519050614daa816137c5565b92915050565b5f60208284031215614dc557614dc461363d565b5b5f614dd284828501614d9c565b9150509291505056fea26469706673582212205f14d7f497861311c7e70efc88d47acb68f81ba346e51f62a63e99abb81828b864736f6c634300081e0033","linkReferences":{}},"methodIdentifiers":{"OWNER_SHARE_BPS()":"f4ed1743","STAKER_SHARE_BPS()":"5c69d3a6","STREAMING_FEE_BPS()":"2914051f","baseAPY()":"214405a9","calculateExcessFunds()":"65242a24","cancelStream(uint256)":"6db9241b","charityAddress()":"afcf2fc4","charityFunds()":"e17901d8","claimRewards()":"372500ab","createStream(address,uint256)":"3df7fb8c","distributeExcessFunds()":"9a97b078","emergencyPause()":"51858e27","getBalanceInfo()":"fc00e628","getClaimableBalance(uint256)":"a4424d5a","getClaimableRewards(address)":"308e401e","getCurrentAPY()":"962ca496","getFeeInfo()":"0002eab7","getRealisticClaimableRewards(address)":"ef42466c","getRevenueSplit()":"e1d37e60","getStream(uint256)":"894e9a0d","getTotalStreams()":"e126559a","getUserStake(address)":"bbadc93a","getVaultInfo()":"7f98aa71","getVaultStats()":"a59aa5a6","isSolvent()":"5ce23950","lastUpdateTime()":"c8f33c91","nextStreamId()":"1e99d569","owner()":"8da5cb5b","ownerRevenue()":"00292526","rewardRate()":"7b0a47ee","setVaultPaused(bool)":"315e4ec3","stake()":"3a4b66f1","stakes(address)":"16934fc4","streams(uint256)":"64d60d91","totalFeesCollected()":"60c6d8ae","totalRewardsAvailable()":"6de813f1","totalStaked()":"817b1cd2","unstake(uint256)":"2e17de78","updateRewardRate(uint256)":"9ef3a261","updateVaultParams(string)":"320541b2","userRewards(address)":"0660f1e8","vaultActive()":"9e591bc6","vaultName()":"0ace9ca0","withdrawCharityFunds(uint256)":"5c9a5101","withdrawFromStream(uint256)":"3a597f48","withdrawOwnerRevenue(uint256)":"49240629"},"id":19}