{"abi":[{"type":"constructor","inputs":[{"name":"_vaultName","type":"string","internalType":"string"},{"name":"_initialRewardRate","type":"uint256","internalType":"uint256"},{"name":"_baseAPY","type":"uint256","internalType":"uint256"}],"stateMutability":"nonpayable"},{"type":"receive","stateMutability":"payable"},{"type":"function","name":"OWNER_SHARE_BPS","inputs":[],"outputs":[{"name":"","type":"uint256","internalType":"uint256"}],"stateMutability":"view"},{"type":"function","name":"STAKER_SHARE_BPS","inputs":[],"outputs":[{"name":"","type":"uint256","internalType":"uint256"}],"stateMutability":"view"},{"type":"function","name":"STREAMING_FEE_BPS","inputs":[],"outputs":[{"name":"","type":"uint256","internalType":"uint256"}],"stateMutability":"view"},{"type":"function","name":"baseAPY","inputs":[],"outputs":[{"name":"","type":"uint256","internalType":"uint256"}],"stateMutability":"view"},{"type":"function","name":"cancelStream","inputs":[{"name":"streamId","type":"uint256","internalType":"uint256"}],"outputs":[],"stateMutability":"nonpayable"},{"type":"function","name":"claimRewards","inputs":[],"outputs":[],"stateMutability":"nonpayable"},{"type":"function","name":"createStream","inputs":[{"name":"recipient","type":"address","internalType":"address"},{"name":"duration","type":"uint256","internalType":"uint256"}],"outputs":[],"stateMutability":"payable"},{"type":"function","name":"emergencyPause","inputs":[],"outputs":[],"stateMutability":"nonpayable"},{"type":"function","name":"emergencyReturnStakes","inputs":[],"outputs":[],"stateMutability":"nonpayable"},{"type":"function","name":"getBalanceInfo","inputs":[],"outputs":[{"name":"balance","type":"uint256","internalType":"uint256"},{"name":"totalStakedAmount","type":"uint256","internalType":"uint256"},{"name":"availableForRewards","type":"uint256","internalType":"uint256"},{"name":"ownerRevenueAvailable","type":"uint256","internalType":"uint256"}],"stateMutability":"view"},{"type":"function","name":"getClaimableBalance","inputs":[{"name":"streamId","type":"uint256","internalType":"uint256"}],"outputs":[{"name":"","type":"uint256","internalType":"uint256"}],"stateMutability":"view"},{"type":"function","name":"getClaimableRewards","inputs":[{"name":"user","type":"address","internalType":"address"}],"outputs":[{"name":"","type":"uint256","internalType":"uint256"}],"stateMutability":"view"},{"type":"function","name":"getCurrentAPY","inputs":[],"outputs":[{"name":"","type":"uint256","internalType":"uint256"}],"stateMutability":"view"},{"type":"function","name":"getFeeInfo","inputs":[],"outputs":[{"name":"","type":"uint256","internalType":"uint256"},{"name":"","type":"uint256","internalType":"uint256"},{"name":"","type":"uint256","internalType":"uint256"}],"stateMutability":"view"},{"type":"function","name":"getProjectedAPY","inputs":[{"name":"dailyVolume","type":"uint256","internalType":"uint256"}],"outputs":[{"name":"","type":"uint256","internalType":"uint256"}],"stateMutability":"view"},{"type":"function","name":"getRealisticClaimableRewards","inputs":[{"name":"user","type":"address","internalType":"address"}],"outputs":[{"name":"","type":"uint256","internalType":"uint256"}],"stateMutability":"view"},{"type":"function","name":"getRevenueSplit","inputs":[],"outputs":[{"name":"","type":"uint256","internalType":"uint256"},{"name":"","type":"uint256","internalType":"uint256"}],"stateMutability":"view"},{"type":"function","name":"getStream","inputs":[{"name":"streamId","type":"uint256","internalType":"uint256"}],"outputs":[{"name":"","type":"tuple","internalType":"struct SonicRush.Stream","components":[{"name":"sender","type":"address","internalType":"address"},{"name":"recipient","type":"address","internalType":"address"},{"name":"totalAmount","type":"uint256","internalType":"uint256"},{"name":"flowRate","type":"uint256","internalType":"uint256"},{"name":"startTime","type":"uint256","internalType":"uint256"},{"name":"stopTime","type":"uint256","internalType":"uint256"},{"name":"amountWithdrawn","type":"uint256","internalType":"uint256"},{"name":"isActive","type":"bool","internalType":"bool"}]}],"stateMutability":"view"},{"type":"function","name":"getStreamingActivity","inputs":[],"outputs":[{"name":"activeStreams","type":"uint256","internalType":"uint256"},{"name":"totalStreamValue","type":"uint256","internalType":"uint256"},{"name":"dailyFeeRevenue","type":"uint256","internalType":"uint256"},{"name":"stakerDailyRevenue","type":"uint256","internalType":"uint256"}],"stateMutability":"view"},{"type":"function","name":"getTotalStreams","inputs":[],"outputs":[{"name":"","type":"uint256","internalType":"uint256"}],"stateMutability":"view"},{"type":"function","name":"getUserStake","inputs":[{"name":"user","type":"address","internalType":"address"}],"outputs":[{"name":"","type":"tuple","internalType":"struct SonicRush.Stake","components":[{"name":"amount","type":"uint256","internalType":"uint256"},{"name":"startTime","type":"uint256","internalType":"uint256"},{"name":"lastClaimTime","type":"uint256","internalType":"uint256"},{"name":"accumulatedRewards","type":"uint256","internalType":"uint256"},{"name":"isActive","type":"bool","internalType":"bool"}]}],"stateMutability":"view"},{"type":"function","name":"getVaultInfo","inputs":[],"outputs":[{"name":"name","type":"string","internalType":"string"},{"name":"staked","type":"uint256","internalType":"uint256"},{"name":"rewards","type":"uint256","internalType":"uint256"},{"name":"rate","type":"uint256","internalType":"uint256"},{"name":"active","type":"bool","internalType":"bool"}],"stateMutability":"view"},{"type":"function","name":"getVaultStats","inputs":[],"outputs":[{"name":"","type":"uint256","internalType":"uint256"},{"name":"","type":"uint256","internalType":"uint256"},{"name":"","type":"uint256","internalType":"uint256"}],"stateMutability":"view"},{"type":"function","name":"isSolvent","inputs":[],"outputs":[{"name":"","type":"bool","internalType":"bool"}],"stateMutability":"view"},{"type":"function","name":"lastUpdateTime","inputs":[],"outputs":[{"name":"","type":"uint256","internalType":"uint256"}],"stateMutability":"view"},{"type":"function","name":"nextStreamId","inputs":[],"outputs":[{"name":"","type":"uint256","internalType":"uint256"}],"stateMutability":"view"},{"type":"function","name":"owner","inputs":[],"outputs":[{"name":"","type":"address","internalType":"address"}],"stateMutability":"view"},{"type":"function","name":"ownerRevenue","inputs":[],"outputs":[{"name":"","type":"uint256","internalType":"uint256"}],"stateMutability":"view"},{"type":"function","name":"rewardRate","inputs":[],"outputs":[{"name":"","type":"uint256","internalType":"uint256"}],"stateMutability":"view"},{"type":"function","name":"setVaultPaused","inputs":[{"name":"paused","type":"bool","internalType":"bool"}],"outputs":[],"stateMutability":"nonpayable"},{"type":"function","name":"stake","inputs":[],"outputs":[],"stateMutability":"payable"},{"type":"function","name":"stakes","inputs":[{"name":"","type":"address","internalType":"address"}],"outputs":[{"name":"amount","type":"uint256","internalType":"uint256"},{"name":"startTime","type":"uint256","internalType":"uint256"},{"name":"lastClaimTime","type":"uint256","internalType":"uint256"},{"name":"accumulatedRewards","type":"uint256","internalType":"uint256"},{"name":"isActive","type":"bool","internalType":"bool"}],"stateMutability":"view"},{"type":"function","name":"streams","inputs":[{"name":"","type":"uint256","internalType":"uint256"}],"outputs":[{"name":"sender","type":"address","internalType":"address"},{"name":"recipient","type":"address","internalType":"address"},{"name":"totalAmount","type":"uint256","internalType":"uint256"},{"name":"flowRate","type":"uint256","internalType":"uint256"},{"name":"startTime","type":"uint256","internalType":"uint256"},{"name":"stopTime","type":"uint256","internalType":"uint256"},{"name":"amountWithdrawn","type":"uint256","internalType":"uint256"},{"name":"isActive","type":"bool","internalType":"bool"}],"stateMutability":"view"},{"type":"function","name":"totalFeesCollected","inputs":[],"outputs":[{"name":"","type":"uint256","internalType":"uint256"}],"stateMutability":"view"},{"type":"function","name":"totalRewardsAvailable","inputs":[],"outputs":[{"name":"","type":"uint256","internalType":"uint256"}],"stateMutability":"view"},{"type":"function","name":"totalStaked","inputs":[],"outputs":[{"name":"","type":"uint256","internalType":"uint256"}],"stateMutability":"view"},{"type":"function","name":"unstake","inputs":[{"name":"amount","type":"uint256","internalType":"uint256"}],"outputs":[],"stateMutability":"nonpayable"},{"type":"function","name":"updateRewardRate","inputs":[{"name":"newRate","type":"uint256","internalType":"uint256"}],"outputs":[],"stateMutability":"nonpayable"},{"type":"function","name":"updateVaultParams","inputs":[{"name":"_vaultName","type":"string","internalType":"string"}],"outputs":[],"stateMutability":"nonpayable"},{"type":"function","name":"userRewards","inputs":[{"name":"","type":"address","internalType":"address"}],"outputs":[{"name":"","type":"uint256","internalType":"uint256"}],"stateMutability":"view"},{"type":"function","name":"vaultActive","inputs":[],"outputs":[{"name":"","type":"bool","internalType":"bool"}],"stateMutability":"view"},{"type":"function","name":"vaultName","inputs":[],"outputs":[{"name":"","type":"string","internalType":"string"}],"stateMutability":"view"},{"type":"function","name":"withdrawFromStream","inputs":[{"name":"streamId","type":"uint256","internalType":"uint256"}],"outputs":[],"stateMutability":"nonpayable"},{"type":"function","name":"withdrawOwnerRevenue","inputs":[{"name":"amount","type":"uint256","internalType":"uint256"}],"outputs":[],"stateMutability":"nonpayable"},{"type":"event","name":"OwnerRevenueWithdrawn","inputs":[{"name":"amount","type":"uint256","indexed":false,"internalType":"uint256"}],"anonymous":false},{"type":"event","name":"RewardRateUpdated","inputs":[{"name":"newRate","type":"uint256","indexed":false,"internalType":"uint256"}],"anonymous":false},{"type":"event","name":"RewardsClaimed","inputs":[{"name":"user","type":"address","indexed":true,"internalType":"address"},{"name":"amount","type":"uint256","indexed":false,"internalType":"uint256"}],"anonymous":false},{"type":"event","name":"Staked","inputs":[{"name":"user","type":"address","indexed":true,"internalType":"address"},{"name":"amount","type":"uint256","indexed":false,"internalType":"uint256"}],"anonymous":false},{"type":"event","name":"StreamCancelled","inputs":[{"name":"streamId","type":"uint256","indexed":true,"internalType":"uint256"},{"name":"sender","type":"address","indexed":true,"internalType":"address"},{"name":"recipient","type":"address","indexed":true,"internalType":"address"},{"name":"senderBalance","type":"uint256","indexed":false,"internalType":"uint256"},{"name":"recipientBalance","type":"uint256","indexed":false,"internalType":"uint256"}],"anonymous":false},{"type":"event","name":"StreamCreated","inputs":[{"name":"streamId","type":"uint256","indexed":true,"internalType":"uint256"},{"name":"sender","type":"address","indexed":true,"internalType":"address"},{"name":"recipient","type":"address","indexed":true,"internalType":"address"},{"name":"totalAmount","type":"uint256","indexed":false,"internalType":"uint256"},{"name":"flowRate","type":"uint256","indexed":false,"internalType":"uint256"},{"name":"startTime","type":"uint256","indexed":false,"internalType":"uint256"},{"name":"stopTime","type":"uint256","indexed":false,"internalType":"uint256"},{"name":"feeCollected","type":"uint256","indexed":false,"internalType":"uint256"},{"name":"stakerShare","type":"uint256","indexed":false,"internalType":"uint256"},{"name":"ownerShare","type":"uint256","indexed":false,"internalType":"uint256"}],"anonymous":false},{"type":"event","name":"Unstaked","inputs":[{"name":"user","type":"address","indexed":true,"internalType":"address"},{"name":"amount","type":"uint256","indexed":false,"internalType":"uint256"}],"anonymous":false},{"type":"event","name":"VaultCreated","inputs":[{"name":"vaultName","type":"string","indexed":false,"internalType":"string"},{"name":"initialRewardRate","type":"uint256","indexed":false,"internalType":"uint256"}],"anonymous":false},{"type":"event","name":"VaultPaused","inputs":[{"name":"paused","type":"bool","indexed":false,"internalType":"bool"}],"anonymous":false},{"type":"event","name":"Withdrawn","inputs":[{"name":"streamId","type":"uint256","indexed":true,"internalType":"uint256"},{"name":"recipient","type":"address","indexed":true,"internalType":"address"},{"name":"amount","type":"uint256","indexed":false,"internalType":"uint256"}],"anonymous":false}],"bytecode":{"object":"0x608060405234801561000f575f5ffd5b50604051614fc6380380614fc683398181016040528101906100319190610270565b335f5f6101000a81548173ffffffffffffffffffffffffffffffffffffffff021916908373ffffffffffffffffffffffffffffffffffffffff160217905550826005908161007f91906104e3565b508160098190555080600a819055506001600b5f6101000a81548160ff021916908315150217905550426008819055507f680471857f6a7a56e8056d015c139b564359a0754bdb17688090b1d09953047783836040516100e0929190610609565b60405180910390a1505050610637565b5f604051905090565b5f5ffd5b5f5ffd5b5f5ffd5b5f5ffd5b5f601f19601f8301169050919050565b7f4e487b71000000000000000000000000000000000000000000000000000000005f52604160045260245ffd5b61014f82610109565b810181811067ffffffffffffffff8211171561016e5761016d610119565b5b80604052505050565b5f6101806100f0565b905061018c8282610146565b919050565b5f67ffffffffffffffff8211156101ab576101aa610119565b5b6101b482610109565b9050602081019050919050565b8281835e5f83830152505050565b5f6101e16101dc84610191565b610177565b9050828152602081018484840111156101fd576101fc610105565b5b6102088482856101c1565b509392505050565b5f82601f83011261022457610223610101565b5b81516102348482602086016101cf565b91505092915050565b5f819050919050565b61024f8161023d565b8114610259575f5ffd5b50565b5f8151905061026a81610246565b92915050565b5f5f5f60608486031215610287576102866100f9565b5b5f84015167ffffffffffffffff8111156102a4576102a36100fd565b5b6102b086828701610210565b93505060206102c18682870161025c565b92505060406102d28682870161025c565b9150509250925092565b5f81519050919050565b7f4e487b71000000000000000000000000000000000000000000000000000000005f52602260045260245ffd5b5f600282049050600182168061032a57607f821691505b60208210810361033d5761033c6102e6565b5b50919050565b5f819050815f5260205f209050919050565b5f6020601f8301049050919050565b5f82821b905092915050565b5f6008830261039f7fffffffffffffffffffffffffffffffffffffffffffffffffffffffffffffffff82610364565b6103a98683610364565b95508019841693508086168417925050509392505050565b5f819050919050565b5f6103e46103df6103da8461023d565b6103c1565b61023d565b9050919050565b5f819050919050565b6103fd836103ca565b610411610409826103eb565b848454610370565b825550505050565b5f5f905090565b610428610419565b6104338184846103f4565b505050565b5b818110156104565761044b5f82610420565b600181019050610439565b5050565b601f82111561049b5761046c81610343565b61047584610355565b81016020851015610484578190505b61049861049085610355565b830182610438565b50505b505050565b5f82821c905092915050565b5f6104bb5f19846008026104a0565b1980831691505092915050565b5f6104d383836104ac565b9150826002028217905092915050565b6104ec826102dc565b67ffffffffffffffff81111561050557610504610119565b5b61050f8254610313565b61051a82828561045a565b5f60209050601f83116001811461054b575f8415610539578287015190505b61054385826104c8565b8655506105aa565b601f19841661055986610343565b5f5b828110156105805784890151825560018201915060208501945060208101905061055b565b8683101561059d5784890151610599601f8916826104ac565b8355505b6001600288020188555050505b505050505050565b5f82825260208201905092915050565b5f6105cc826102dc565b6105d681856105b2565b93506105e68185602086016101c1565b6105ef81610109565b840191505092915050565b6106038161023d565b82525050565b5f6040820190508181035f83015261062181856105c2565b905061063060208301846105fa565b9392505050565b614982806106445f395ff3fe608060405260043610610268575f3560e01c806364d60d9111610143578063a4424d5a116100b5578063e126559a11610079578063e126559a146108cb578063e1d37e60146108f5578063ef42466c14610920578063f4ed17431461095c578063fc00e62814610986578063fc10a6cc146109b35761026f565b8063a4424d5a146107e7578063a59aa5a614610823578063b7980d161461084f578063bbadc93a14610865578063c8f33c91146108a15761026f565b8063817b1cd211610107578063817b1cd2146106db578063894e9a0d146107055780638da5cb5b14610741578063962ca4961461076b5780639e591bc6146107955780639ef3a261146107bf5761026f565b806364d60d91146105ee5780636db9241b146106315780636de813f1146106595780637b0a47ee146106835780637f98aa71146106ad5761026f565b8063315e4ec3116101dc5780633df7fb8c116101a05780633df7fb8c14610516578063492406291461053257806351858e271461055a5780635c69d3a6146105705780635ce239501461059a57806360c6d8ae146105c45761026f565b8063315e4ec31461047e578063320541b2146104a6578063372500ab146104ce5780633a4b66f1146104e45780633a597f48146104ee5761026f565b806318d74c431161022e57806318d74c431461036f5780631e99d5691461039c578063214405a9146103c65780632914051f146103f05780632e17de781461041a578063308e401e146104425761026f565b806202eab7146102735780622925261461029f5780630660f1e8146102c95780630ace9ca01461030557806316934fc41461032f5761026f565b3661026f57005b5f5ffd5b34801561027e575f5ffd5b506102876109ef565b60405161029693929190613277565b60405180910390f35b3480156102aa575f5ffd5b506102b3610a05565b6040516102c091906132ac565b60405180910390f35b3480156102d4575f5ffd5b506102ef60048036038101906102ea9190613330565b610a0b565b6040516102fc91906132ac565b60405180910390f35b348015610310575f5ffd5b50610319610a20565b60405161032691906133cb565b60405180910390f35b34801561033a575f5ffd5b5061035560048036038101906103509190613330565b610aac565b604051610366959493929190613405565b60405180910390f35b34801561037a575f5ffd5b50610383610aea565b6040516103939493929190613456565b60405180910390f35b3480156103a7575f5ffd5b506103b0610ba7565b6040516103bd91906132ac565b60405180910390f35b3480156103d1575f5ffd5b506103da610bad565b6040516103e791906132ac565b60405180910390f35b3480156103fb575f5ffd5b50610404610bb3565b60405161041191906132ac565b60405180910390f35b348015610425575f5ffd5b50610440600480360381019061043b91906134c3565b610bb8565b005b34801561044d575f5ffd5b5061046860048036038101906104639190613330565b610ef4565b60405161047591906132ac565b60405180910390f35b348015610489575f5ffd5b506104a4600480360381019061049f9190613518565b6110a2565b005b3480156104b1575f5ffd5b506104cc60048036038101906104c7919061366f565b611184565b005b3480156104d9575f5ffd5b506104e2611225565b005b6104ec61174f565b005b3480156104f9575f5ffd5b50610514600480360381019061050f91906134c3565b611a07565b005b610530600480360381019061052b91906136b6565b611d20565b005b34801561053d575f5ffd5b50610558600480360381019061055391906134c3565b612133565b005b348015610565575f5ffd5b5061056e6123f3565b005b34801561057b575f5ffd5b506105846124d4565b60405161059191906132ac565b60405180910390f35b3480156105a5575f5ffd5b506105ae6124da565b6040516105bb91906136f4565b60405180910390f35b3480156105cf575f5ffd5b506105d86124e6565b6040516105e591906132ac565b60405180910390f35b3480156105f9575f5ffd5b50610614600480360381019061060f91906134c3565b6124ec565b60405161062898979695949392919061371c565b60405180910390f35b34801561063c575f5ffd5b50610657600480360381019061065291906134c3565b61257a565b005b348015610664575f5ffd5b5061066d6129ee565b60405161067a91906132ac565b60405180910390f35b34801561068e575f5ffd5b506106976129f4565b6040516106a491906132ac565b60405180910390f35b3480156106b8575f5ffd5b506106c16129fa565b6040516106d2959493929190613798565b60405180910390f35b3480156106e6575f5ffd5b506106ef612ab5565b6040516106fc91906132ac565b60405180910390f35b348015610710575f5ffd5b5061072b600480360381019061072691906134c3565b612abb565b60405161073891906138bd565b60405180910390f35b34801561074c575f5ffd5b50610755612bdc565b60405161076291906138d7565b60405180910390f35b348015610776575f5ffd5b5061077f612c00565b60405161078c91906132ac565b60405180910390f35b3480156107a0575f5ffd5b506107a9612c91565b6040516107b691906136f4565b60405180910390f35b3480156107ca575f5ffd5b506107e560048036038101906107e091906134c3565b612ca3565b005b3480156107f2575f5ffd5b5061080d600480360381019061080891906134c3565b612d72565b60405161081a91906132ac565b60405180910390f35b34801561082e575f5ffd5b50610837612e1d565b60405161084693929190613277565b60405180910390f35b34801561085a575f5ffd5b50610863612e34565b005b348015610870575f5ffd5b5061088b60048036038101906108869190613330565b612fc2565b6040516108989190613956565b60405180910390f35b3480156108ac575f5ffd5b506108b561305a565b6040516108c291906132ac565b60405180910390f35b3480156108d6575f5ffd5b506108df613060565b6040516108ec91906132ac565b60405180910390f35b348015610900575f5ffd5b50610909613069565b60405161091792919061396f565b60405180910390f35b34801561092b575f5ffd5b5061094660048036038101906109419190613330565b613079565b60405161095391906132ac565b60405180910390f35b348015610967575f5ffd5b50610970613110565b60405161097d91906132ac565b60405180910390f35b348015610991575f5ffd5b5061099a613116565b6040516109aa9493929190613456565b60405180910390f35b3480156109be575f5ffd5b506109d960048036038101906109d491906134c3565b613132565b6040516109e691906132ac565b60405180910390f35b5f5f5f600a600354600454925092509250909192565b60045481565b600d602052805f5260405f205f915090505481565b60058054610a2d906139c3565b80601f0160208091040260200160405190810160405280929190818152602001828054610a59906139c3565b8015610aa45780601f10610a7b57610100808354040283529160200191610aa4565b820191905f5260205f20905b815481529060010190602001808311610a8757829003601f168201915b505050505081565b600c602052805f5260405f205f91509050805f015490806001015490806002015490806003015490806004015f9054906101000a900460ff16905085565b5f5f5f5f5f93505f92505f5f90505b600254811015610b675760015f8281526020019081526020015f206007015f9054906101000a900460ff1615610b5a578480610b3490613a20565b95505060015f8281526020019081526020015f206002015484610b579190613a67565b93505b8080600101915050610af9565b50612710600a84610b789190613a9a565b610b829190613b08565b9150612710611b5883610b959190613a9a565b610b9f9190613b08565b905090919293565b60025481565b600a5481565b600a81565b600b5f9054906101000a900460ff16610c06576040517f08c379a0000000000000000000000000000000000000000000000000000000008152600401610bfd90613b82565b60405180910390fd5b805f8111610c49576040517f08c379a0000000000000000000000000000000000000000000000000000000008152600401610c4090613c10565b60405180910390fd5b5f60149054906101000a900460ff1615610c98576040517f08c379a0000000000000000000000000000000000000000000000000000000008152600401610c8f90613c78565b60405180910390fd5b60015f60146101000a81548160ff0219169083151502179055505f600c5f3373ffffffffffffffffffffffffffffffffffffffff1673ffffffffffffffffffffffffffffffffffffffff1681526020019081526020015f209050806004015f9054906101000a900460ff16610d42576040517f08c379a0000000000000000000000000000000000000000000000000000000008152600401610d3990613ce0565b60405180910390fd5b805f0154831115610d88576040517f08c379a0000000000000000000000000000000000000000000000000000000008152600401610d7f90613d6e565b60405180910390fd5b82815f015f828254610d9a9190613d8c565b925050819055508260065f828254610db29190613d8c565b925050819055505f815f015403610ddf575f816004015f6101000a81548160ff0219169083151502179055505b5f3373ffffffffffffffffffffffffffffffffffffffff1684604051610e0490613dec565b5f6040518083038185875af1925050503d805f8114610e3e576040519150601f19603f3d011682016040523d82523d5f602084013e610e43565b606091505b5050905080610e87576040517f08c379a0000000000000000000000000000000000000000000000000000000008152600401610e7e90613e4a565b60405180910390fd5b3373ffffffffffffffffffffffffffffffffffffffff167f0f5bb82176feb1b5e747e28471aa92156a04d9f3ab9f45f28e2d704232b93f7585604051610ecd91906132ac565b60405180910390a250505f5f60146101000a81548160ff0219169083151502179055505050565b5f600c5f8373ffffffffffffffffffffffffffffffffffffffff1673ffffffffffffffffffffffffffffffffffffffff1681526020019081526020015f206004015f9054906101000a900460ff16610f8b57600d5f8373ffffffffffffffffffffffffffffffffffffffff1673ffffffffffffffffffffffffffffffffffffffff1681526020019081526020015f2054905061109d565b5f610e10600c5f8573ffffffffffffffffffffffffffffffffffffffff1673ffffffffffffffffffffffffffffffffffffffff1681526020019081526020015f206002015442610fdb9190613d8c565b610fe59190613b08565b90505f61271082600954600c5f8873ffffffffffffffffffffffffffffffffffffffff1673ffffffffffffffffffffffffffffffffffffffff1681526020019081526020015f205f01546110399190613a9a565b6110439190613a9a565b61104d9190613b08565b905080600d5f8673ffffffffffffffffffffffffffffffffffffffff1673ffffffffffffffffffffffffffffffffffffffff1681526020019081526020015f20546110989190613a67565b925050505b919050565b5f5f9054906101000a900473ffffffffffffffffffffffffffffffffffffffff1673ffffffffffffffffffffffffffffffffffffffff163373ffffffffffffffffffffffffffffffffffffffff1614611130576040517f08c379a000000000000000000000000000000000000000000000000000000000815260040161112790613eb2565b60405180910390fd5b8015600b5f6101000a81548160ff0219169083151502179055507f152cbfe4e8597a33181d2da9ed5162e734ca8b263b9eb6105f169287a39908f68160405161117991906136f4565b60405180910390a150565b5f5f9054906101000a900473ffffffffffffffffffffffffffffffffffffffff1673ffffffffffffffffffffffffffffffffffffffff163373ffffffffffffffffffffffffffffffffffffffff1614611212576040517f08c379a000000000000000000000000000000000000000000000000000000000815260040161120990613eb2565b60405180910390fd5b80600590816112219190614070565b5050565b600b5f9054906101000a900460ff16611273576040517f08c379a000000000000000000000000000000000000000000000000000000000815260040161126a90613b82565b60405180910390fd5b5f60149054906101000a900460ff16156112c2576040517f08c379a00000000000000000000000000000000000000000000000000000000081526004016112b990613c78565b60405180910390fd5b60015f60146101000a81548160ff021916908315150217905550600c5f3373ffffffffffffffffffffffffffffffffffffffff1673ffffffffffffffffffffffffffffffffffffffff1681526020019081526020015f206004015f9054906101000a900460ff16611368576040517f08c379a000000000000000000000000000000000000000000000000000000000815260040161135f90613ce0565b60405180910390fd5b5f600654612710600c5f3373ffffffffffffffffffffffffffffffffffffffff1673ffffffffffffffffffffffffffffffffffffffff1681526020019081526020015f205f01546113b99190613a9a565b6113c39190613b08565b90505f612710826007546113d79190613a9a565b6113e19190613b08565b90505f610e10600c5f3373ffffffffffffffffffffffffffffffffffffffff1673ffffffffffffffffffffffffffffffffffffffff1681526020019081526020015f2060020154426114339190613d8c565b61143d9190613b08565b90505f61271082600954600c5f3373ffffffffffffffffffffffffffffffffffffffff1673ffffffffffffffffffffffffffffffffffffffff1681526020019081526020015f205f01546114919190613a9a565b61149b9190613a9a565b6114a59190613b08565b90505f8382600d5f3373ffffffffffffffffffffffffffffffffffffffff1673ffffffffffffffffffffffffffffffffffffffff1681526020019081526020015f20546114f29190613a67565b6114fc9190613a67565b90505f8111611540576040517f08c379a000000000000000000000000000000000000000000000000000000000815260040161153790614189565b60405180910390fd5b5f60075482116115505781611554565b6007545b90505f8111611598576040517f08c379a000000000000000000000000000000000000000000000000000000000815260040161158f90614217565b60405180910390fd5b42600c5f3373ffffffffffffffffffffffffffffffffffffffff1673ffffffffffffffffffffffffffffffffffffffff1681526020019081526020015f20600201819055505f600d5f3373ffffffffffffffffffffffffffffffffffffffff1673ffffffffffffffffffffffffffffffffffffffff1681526020019081526020015f20819055508060075f8282546116309190613d8c565b925050819055505f3373ffffffffffffffffffffffffffffffffffffffff168260405161165c90613dec565b5f6040518083038185875af1925050503d805f8114611696576040519150601f19603f3d011682016040523d82523d5f602084013e61169b565b606091505b50509050806116df576040517f08c379a00000000000000000000000000000000000000000000000000000000081526004016116d690613e4a565b60405180910390fd5b3373ffffffffffffffffffffffffffffffffffffffff167ffc30cddea38e2bf4d6ea7d3f9ed3b6ad7f176419f4963bd81318067a4aee73fe8360405161172591906132ac565b60405180910390a2505050505050505f5f60146101000a81548160ff021916908315150217905550565b600b5f9054906101000a900460ff1661179d576040517f08c379a000000000000000000000000000000000000000000000000000000000815260040161179490613b82565b60405180910390fd5b345f81116117e0576040517f08c379a00000000000000000000000000000000000000000000000000000000081526004016117d790613c10565b60405180910390fd5b5f60149054906101000a900460ff161561182f576040517f08c379a000000000000000000000000000000000000000000000000000000000815260040161182690613c78565b60405180910390fd5b60015f60146101000a81548160ff021916908315150217905550600c5f3373ffffffffffffffffffffffffffffffffffffffff1673ffffffffffffffffffffffffffffffffffffffff1681526020019081526020015f206004015f9054906101000a900460ff16156118d6576040517f08c379a00000000000000000000000000000000000000000000000000000000081526004016118cd9061427f565b60405180910390fd5b6040518060a001604052803481526020014281526020014281526020015f815260200160011515815250600c5f3373ffffffffffffffffffffffffffffffffffffffff1673ffffffffffffffffffffffffffffffffffffffff1681526020019081526020015f205f820151815f01556020820151816001015560408201518160020155606082015181600301556080820151816004015f6101000a81548160ff0219169083151502179055509050503460065f8282546119969190613a67565b925050819055503373ffffffffffffffffffffffffffffffffffffffff167f9e71bc8eea02a63969f509818f2dafb9254532904319f9dbda79b67bd34a5f3d346040516119e391906132ac565b60405180910390a25f5f60146101000a81548160ff02191690831515021790555050565b5f60149054906101000a900460ff1615611a56576040517f08c379a0000000000000000000000000000000000000000000000000000000008152600401611a4d90613c78565b60405180910390fd5b60015f60146101000a81548160ff0219169083151502179055505f60015f8381526020019081526020015f209050806007015f9054906101000a900460ff16611ad4576040517f08c379a0000000000000000000000000000000000000000000000000000000008152600401611acb906142e7565b60405180910390fd5b806001015f9054906101000a900473ffffffffffffffffffffffffffffffffffffffff1673ffffffffffffffffffffffffffffffffffffffff163373ffffffffffffffffffffffffffffffffffffffff1614611b65576040517f08c379a0000000000000000000000000000000000000000000000000000000008152600401611b5c90614375565b60405180910390fd5b5f611b6f83612d72565b90505f8111611bb3576040517f08c379a0000000000000000000000000000000000000000000000000000000008152600401611baa906143dd565b60405180910390fd5b80826006015f828254611bc69190613a67565b9250508190555081600501544210158015611be957508160020154826006015410155b15611c0a575f826007015f6101000a81548160ff0219169083151502179055505b5f3373ffffffffffffffffffffffffffffffffffffffff1682604051611c2f90613dec565b5f6040518083038185875af1925050503d805f8114611c69576040519150601f19603f3d011682016040523d82523d5f602084013e611c6e565b606091505b5050905080611cb2576040517f08c379a0000000000000000000000000000000000000000000000000000000008152600401611ca990613e4a565b60405180910390fd5b3373ffffffffffffffffffffffffffffffffffffffff16847fcf7d23a3cbe4e8b36ff82fd1b05b1b17373dc7804b4ebbd6e2356716ef20237284604051611cf991906132ac565b60405180910390a35050505f5f60146101000a81548160ff02191690831515021790555050565b5f73ffffffffffffffffffffffffffffffffffffffff168273ffffffffffffffffffffffffffffffffffffffff1603611d8e576040517f08c379a0000000000000000000000000000000000000000000000000000000008152600401611d8590614445565b60405180910390fd5b3373ffffffffffffffffffffffffffffffffffffffff168273ffffffffffffffffffffffffffffffffffffffff1603611dfc576040517f08c379a0000000000000000000000000000000000000000000000000000000008152600401611df3906144ad565b60405180910390fd5b5f8111611e3e576040517f08c379a0000000000000000000000000000000000000000000000000000000008152600401611e359061453b565b60405180910390fd5b5f3411611e80576040517f08c379a0000000000000000000000000000000000000000000000000000000008152600401611e7790613c10565b60405180910390fd5b5f612710600a34611e919190613a9a565b611e9b9190613b08565b90505f8134611eaa9190613d8c565b90505f612710611b5884611ebe9190613a9a565b611ec89190613b08565b90505f8184611ed79190613d8c565b90508360035f828254611eea9190613a67565b925050819055508160075f828254611f029190613a67565b925050819055508060045f828254611f1a9190613a67565b925050819055505f60025f815480929190611f3490613a20565b9190505590505f8685611f479190613b08565b90506040518061010001604052803373ffffffffffffffffffffffffffffffffffffffff1681526020018973ffffffffffffffffffffffffffffffffffffffff1681526020018681526020018281526020014281526020018842611fab9190613a67565b81526020015f81526020016001151581525060015f8481526020019081526020015f205f820151815f015f6101000a81548173ffffffffffffffffffffffffffffffffffffffff021916908373ffffffffffffffffffffffffffffffffffffffff1602179055506020820151816001015f6101000a81548173ffffffffffffffffffffffffffffffffffffffff021916908373ffffffffffffffffffffffffffffffffffffffff16021790555060408201518160020155606082015181600301556080820151816004015560a0820151816005015560c0820151816006015560e0820151816007015f6101000a81548160ff0219169083151502179055509050508773ffffffffffffffffffffffffffffffffffffffff163373ffffffffffffffffffffffffffffffffffffffff16837f43cb4d865b9c1192ef137dd712f4231e31430f82250c2600c2e6db99cb65cf2e8885428d4261210b9190613a67565b8d8c8c6040516121219796959493929190614559565b60405180910390a45050505050505050565b5f5f9054906101000a900473ffffffffffffffffffffffffffffffffffffffff1673ffffffffffffffffffffffffffffffffffffffff163373ffffffffffffffffffffffffffffffffffffffff16146121c1576040517f08c379a00000000000000000000000000000000000000000000000000000000081526004016121b890613eb2565b60405180910390fd5b5f60149054906101000a900460ff1615612210576040517f08c379a000000000000000000000000000000000000000000000000000000000815260040161220790613c78565b60405180910390fd5b60015f60146101000a81548160ff02191690831515021790555060045481111561226f576040517f08c379a000000000000000000000000000000000000000000000000000000000815260040161226690614636565b60405180910390fd5b6006544761227d9190613d8c565b8111156122bf576040517f08c379a00000000000000000000000000000000000000000000000000000000081526004016122b69061469e565b60405180910390fd5b8060045f8282546122d09190613d8c565b925050819055505f5f5f9054906101000a900473ffffffffffffffffffffffffffffffffffffffff1673ffffffffffffffffffffffffffffffffffffffff168260405161231c90613dec565b5f6040518083038185875af1925050503d805f8114612356576040519150601f19603f3d011682016040523d82523d5f602084013e61235b565b606091505b505090508061239f576040517f08c379a000000000000000000000000000000000000000000000000000000000815260040161239690613e4a565b60405180910390fd5b7f4455dc2790fe3a7d24ee5fb3a1ce166d487d207d58e64ff9a603bf80f656a837826040516123ce91906132ac565b60405180910390a1505f5f60146101000a81548160ff02191690831515021790555050565b5f5f9054906101000a900473ffffffffffffffffffffffffffffffffffffffff1673ffffffffffffffffffffffffffffffffffffffff163373ffffffffffffffffffffffffffffffffffffffff1614612481576040517f08c379a000000000000000000000000000000000000000000000000000000000815260040161247890613eb2565b60405180910390fd5b5f600b5f6101000a81548160ff0219169083151502179055507f152cbfe4e8597a33181d2da9ed5162e734ca8b263b9eb6105f169287a39908f660016040516124ca91906136f4565b60405180910390a1565b611b5881565b5f600654471015905090565b60035481565b6001602052805f5260405f205f91509050805f015f9054906101000a900473ffffffffffffffffffffffffffffffffffffffff1690806001015f9054906101000a900473ffffffffffffffffffffffffffffffffffffffff1690806002015490806003015490806004015490806005015490806006015490806007015f9054906101000a900460ff16905088565b5f60149054906101000a900460ff16156125c9576040517f08c379a00000000000000000000000000000000000000000000000000000000081526004016125c090613c78565b60405180910390fd5b60015f60146101000a81548160ff0219169083151502179055505f60015f8381526020019081526020015f209050806007015f9054906101000a900460ff16612647576040517f08c379a000000000000000000000000000000000000000000000000000000000815260040161263e906142e7565b60405180910390fd5b805f015f9054906101000a900473ffffffffffffffffffffffffffffffffffffffff1673ffffffffffffffffffffffffffffffffffffffff163373ffffffffffffffffffffffffffffffffffffffff1614806126f15750806001015f9054906101000a900473ffffffffffffffffffffffffffffffffffffffff1673ffffffffffffffffffffffffffffffffffffffff163373ffffffffffffffffffffffffffffffffffffffff16145b612730576040517f08c379a00000000000000000000000000000000000000000000000000000000081526004016127279061472c565b60405180910390fd5b5f61273a83612d72565b90505f81836006015484600201546127529190613d8c565b61275c9190613d8c565b90505f836007015f6101000a81548160ff0219169083151502179055505f82111561284e575f836001015f9054906101000a900473ffffffffffffffffffffffffffffffffffffffff1673ffffffffffffffffffffffffffffffffffffffff16836040516127c990613dec565b5f6040518083038185875af1925050503d805f8114612803576040519150601f19603f3d011682016040523d82523d5f602084013e612808565b606091505b505090508061284c576040517f08c379a0000000000000000000000000000000000000000000000000000000008152600401612843906147ba565b60405180910390fd5b505b5f811115612922575f835f015f9054906101000a900473ffffffffffffffffffffffffffffffffffffffff1673ffffffffffffffffffffffffffffffffffffffff168260405161289d90613dec565b5f6040518083038185875af1925050503d805f81146128d7576040519150601f19603f3d011682016040523d82523d5f602084013e6128dc565b606091505b5050905080612920576040517f08c379a000000000000000000000000000000000000000000000000000000000815260040161291790614822565b60405180910390fd5b505b826001015f9054906101000a900473ffffffffffffffffffffffffffffffffffffffff1673ffffffffffffffffffffffffffffffffffffffff16835f015f9054906101000a900473ffffffffffffffffffffffffffffffffffffffff1673ffffffffffffffffffffffffffffffffffffffff16857fb6e64e9a8283cc563b12fc25832dcf2be0fe8b949c63eccb2ba81a4f997c8a1e84866040516129c792919061396f565b60405180910390a45050505f5f60146101000a81548160ff02191690831515021790555050565b60075481565b60095481565b60605f5f5f5f6005600654600754600954600b5f9054906101000a900460ff16848054612a26906139c3565b80601f0160208091040260200160405190810160405280929190818152602001828054612a52906139c3565b8015612a9d5780601f10612a7457610100808354040283529160200191612a9d565b820191905f5260205f20905b815481529060010190602001808311612a8057829003601f168201915b50505050509450945094509450945094509091929394565b60065481565b612ac36131c8565b60015f8381526020019081526020015f20604051806101000160405290815f82015f9054906101000a900473ffffffffffffffffffffffffffffffffffffffff1673ffffffffffffffffffffffffffffffffffffffff1673ffffffffffffffffffffffffffffffffffffffff168152602001600182015f9054906101000a900473ffffffffffffffffffffffffffffffffffffffff1673ffffffffffffffffffffffffffffffffffffffff1673ffffffffffffffffffffffffffffffffffffffff1681526020016002820154815260200160038201548152602001600482015481526020016005820154815260200160068201548152602001600782015f9054906101000a900460ff1615151515815250509050919050565b5f5f9054906101000a900473ffffffffffffffffffffffffffffffffffffffff1681565b5f5f60065403612c1457600a549050612c8e565b5f612710611b58600354612c289190613a9a565b612c329190613b08565b90505f60065461271061016d84612c499190613a9a565b612c539190613a9a565b612c5d9190613b08565b90505f600a548211612c7157600a54612c73565b815b90506127108111612c845780612c88565b6127105b93505050505b90565b600b5f9054906101000a900460ff1681565b5f5f9054906101000a900473ffffffffffffffffffffffffffffffffffffffff1673ffffffffffffffffffffffffffffffffffffffff163373ffffffffffffffffffffffffffffffffffffffff1614612d31576040517f08c379a0000000000000000000000000000000000000000000000000000000008152600401612d2890613eb2565b60405180910390fd5b806009819055507f41d466ebd06fb97e7786086ac8b69b7eb7da798592036251291d34e9791cde0181604051612d6791906132ac565b60405180910390a150565b5f5f60015f8481526020019081526020015f209050806007015f9054906101000a900460ff16612da5575f915050612e18565b5f4290505f82600501548211612dbb5781612dc1565b82600501545b90505f836004015482612dd49190613d8c565b90505f846003015482612de79190613a9a565b90505f85600601548211612dfb575f612e0c565b856006015482612e0b9190613d8c565b5b90508096505050505050505b919050565b5f5f5f600654600754600954925092509250909192565b5f5f9054906101000a900473ffffffffffffffffffffffffffffffffffffffff1673ffffffffffffffffffffffffffffffffffffffff163373ffffffffffffffffffffffffffffffffffffffff1614612ec2576040517f08c379a0000000000000000000000000000000000000000000000000000000008152600401612eb990613eb2565b60405180910390fd5b3073ffffffffffffffffffffffffffffffffffffffff16635ce239506040518163ffffffff1660e01b8152600401602060405180830381865afa158015612f0b573d5f5f3e3d5ffd5b505050506040513d601f19601f82011682018060405250810190612f2f9190614854565b15612f6f576040517f08c379a0000000000000000000000000000000000000000000000000000000008152600401612f66906148ef565b60405180910390fd5b5f600b5f6101000a81548160ff0219169083151502179055507f152cbfe4e8597a33181d2da9ed5162e734ca8b263b9eb6105f169287a39908f66001604051612fb891906136f4565b60405180910390a1565b612fca613233565b600c5f8373ffffffffffffffffffffffffffffffffffffffff1673ffffffffffffffffffffffffffffffffffffffff1681526020019081526020015f206040518060a00160405290815f8201548152602001600182015481526020016002820154815260200160038201548152602001600482015f9054906101000a900460ff1615151515815250509050919050565b60085481565b5f600254905090565b5f5f611b58610bb8915091509091565b5f5f3073ffffffffffffffffffffffffffffffffffffffff1663308e401e846040518263ffffffff1660e01b81526004016130b491906138d7565b602060405180830381865afa1580156130cf573d5f5f3e3d5ffd5b505050506040513d601f19601f820116820180604052508101906130f39190614921565b905060075481116131045780613108565b6007545b915050919050565b610bb881565b5f5f5f5f47935060065492506007549150600454905090919293565b5f5f60065403613144575f90506131c3565b5f612710600a846131559190613a9a565b61315f9190613b08565b90505f612710611b58836131739190613a9a565b61317d9190613b08565b90505f60065461271061016d846131949190613a9a565b61319e9190613a9a565b6131a89190613b08565b905061271081116131b957806131bd565b6127105b93505050505b919050565b6040518061010001604052805f73ffffffffffffffffffffffffffffffffffffffff1681526020015f73ffffffffffffffffffffffffffffffffffffffff1681526020015f81526020015f81526020015f81526020015f81526020015f81526020015f151581525090565b6040518060a001604052805f81526020015f81526020015f81526020015f81526020015f151581525090565b5f819050919050565b6132718161325f565b82525050565b5f60608201905061328a5f830186613268565b6132976020830185613268565b6132a46040830184613268565b949350505050565b5f6020820190506132bf5f830184613268565b92915050565b5f604051905090565b5f5ffd5b5f5ffd5b5f73ffffffffffffffffffffffffffffffffffffffff82169050919050565b5f6132ff826132d6565b9050919050565b61330f816132f5565b8114613319575f5ffd5b50565b5f8135905061332a81613306565b92915050565b5f60208284031215613345576133446132ce565b5b5f6133528482850161331c565b91505092915050565b5f81519050919050565b5f82825260208201905092915050565b8281835e5f83830152505050565b5f601f19601f8301169050919050565b5f61339d8261335b565b6133a78185613365565b93506133b7818560208601613375565b6133c081613383565b840191505092915050565b5f6020820190508181035f8301526133e38184613393565b905092915050565b5f8115159050919050565b6133ff816133eb565b82525050565b5f60a0820190506134185f830188613268565b6134256020830187613268565b6134326040830186613268565b61343f6060830185613268565b61344c60808301846133f6565b9695505050505050565b5f6080820190506134695f830187613268565b6134766020830186613268565b6134836040830185613268565b6134906060830184613268565b95945050505050565b6134a28161325f565b81146134ac575f5ffd5b50565b5f813590506134bd81613499565b92915050565b5f602082840312156134d8576134d76132ce565b5b5f6134e5848285016134af565b91505092915050565b6134f7816133eb565b8114613501575f5ffd5b50565b5f81359050613512816134ee565b92915050565b5f6020828403121561352d5761352c6132ce565b5b5f61353a84828501613504565b91505092915050565b5f5ffd5b5f5ffd5b7f4e487b71000000000000000000000000000000000000000000000000000000005f52604160045260245ffd5b61358182613383565b810181811067ffffffffffffffff821117156135a05761359f61354b565b5b80604052505050565b5f6135b26132c5565b90506135be8282613578565b919050565b5f67ffffffffffffffff8211156135dd576135dc61354b565b5b6135e682613383565b9050602081019050919050565b828183375f83830152505050565b5f61361361360e846135c3565b6135a9565b90508281526020810184848401111561362f5761362e613547565b5b61363a8482856135f3565b509392505050565b5f82601f83011261365657613655613543565b5b8135613666848260208601613601565b91505092915050565b5f60208284031215613684576136836132ce565b5b5f82013567ffffffffffffffff8111156136a1576136a06132d2565b5b6136ad84828501613642565b91505092915050565b5f5f604083850312156136cc576136cb6132ce565b5b5f6136d98582860161331c565b92505060206136ea858286016134af565b9150509250929050565b5f6020820190506137075f8301846133f6565b92915050565b613716816132f5565b82525050565b5f610100820190506137305f83018b61370d565b61373d602083018a61370d565b61374a6040830189613268565b6137576060830188613268565b6137646080830187613268565b61377160a0830186613268565b61377e60c0830185613268565b61378b60e08301846133f6565b9998505050505050505050565b5f60a0820190508181035f8301526137b08188613393565b90506137bf6020830187613268565b6137cc6040830186613268565b6137d96060830185613268565b6137e660808301846133f6565b9695505050505050565b6137f9816132f5565b82525050565b6138088161325f565b82525050565b613817816133eb565b82525050565b61010082015f8201516138325f8501826137f0565b50602082015161384560208501826137f0565b50604082015161385860408501826137ff565b50606082015161386b60608501826137ff565b50608082015161387e60808501826137ff565b5060a082015161389160a08501826137ff565b5060c08201516138a460c08501826137ff565b5060e08201516138b760e085018261380e565b50505050565b5f610100820190506138d15f83018461381d565b92915050565b5f6020820190506138ea5f83018461370d565b92915050565b60a082015f8201516139045f8501826137ff565b50602082015161391760208501826137ff565b50604082015161392a60408501826137ff565b50606082015161393d60608501826137ff565b506080820151613950608085018261380e565b50505050565b5f60a0820190506139695f8301846138f0565b92915050565b5f6040820190506139825f830185613268565b61398f6020830184613268565b9392505050565b7f4e487b71000000000000000000000000000000000000000000000000000000005f52602260045260245ffd5b5f60028204905060018216806139da57607f821691505b6020821081036139ed576139ec613996565b5b50919050565b7f4e487b71000000000000000000000000000000000000000000000000000000005f52601160045260245ffd5b5f613a2a8261325f565b91507fffffffffffffffffffffffffffffffffffffffffffffffffffffffffffffffff8203613a5c57613a5b6139f3565b5b600182019050919050565b5f613a718261325f565b9150613a7c8361325f565b9250828201905080821115613a9457613a936139f3565b5b92915050565b5f613aa48261325f565b9150613aaf8361325f565b9250828202613abd8161325f565b91508282048414831517613ad457613ad36139f3565b5b5092915050565b7f4e487b71000000000000000000000000000000000000000000000000000000005f52601260045260245ffd5b5f613b128261325f565b9150613b1d8361325f565b925082613b2d57613b2c613adb565b5b828204905092915050565b7f536f6e6963527573683a205661756c74206973207061757365640000000000005f82015250565b5f613b6c601a83613365565b9150613b7782613b38565b602082019050919050565b5f6020820190508181035f830152613b9981613b60565b9050919050565b7f536f6e6963527573683a20416d6f756e74206d75737420626520706f736974695f8201527f7665000000000000000000000000000000000000000000000000000000000000602082015250565b5f613bfa602283613365565b9150613c0582613ba0565b604082019050919050565b5f6020820190508181035f830152613c2781613bee565b9050919050565b7f536f6e6963527573683a205265656e7472616e742063616c6c000000000000005f82015250565b5f613c62601983613365565b9150613c6d82613c2e565b602082019050919050565b5f6020820190508181035f830152613c8f81613c56565b9050919050565b7f536f6e6963527573683a204e6f20616374697665207374616b650000000000005f82015250565b5f613cca601a83613365565b9150613cd582613c96565b602082019050919050565b5f6020820190508181035f830152613cf781613cbe565b9050919050565b7f536f6e6963527573683a20496e73756666696369656e74207374616b656420615f8201527f6d6f756e74000000000000000000000000000000000000000000000000000000602082015250565b5f613d58602583613365565b9150613d6382613cfe565b604082019050919050565b5f6020820190508181035f830152613d8581613d4c565b9050919050565b5f613d968261325f565b9150613da18361325f565b9250828203905081811115613db957613db86139f3565b5b92915050565b5f81905092915050565b50565b5f613dd75f83613dbf565b9150613de282613dc9565b5f82019050919050565b5f613df682613dcc565b9150819050919050565b7f536f6e6963527573683a205472616e73666572206661696c65640000000000005f82015250565b5f613e34601a83613365565b9150613e3f82613e00565b602082019050919050565b5f6020820190508181035f830152613e6181613e28565b9050919050565b7f536f6e6963527573683a204e6f7420746865206f776e657200000000000000005f82015250565b5f613e9c601883613365565b9150613ea782613e68565b602082019050919050565b5f6020820190508181035f830152613ec981613e90565b9050919050565b5f819050815f5260205f209050919050565b5f6020601f8301049050919050565b5f82821b905092915050565b5f60088302613f2c7fffffffffffffffffffffffffffffffffffffffffffffffffffffffffffffffff82613ef1565b613f368683613ef1565b95508019841693508086168417925050509392505050565b5f819050919050565b5f613f71613f6c613f678461325f565b613f4e565b61325f565b9050919050565b5f819050919050565b613f8a83613f57565b613f9e613f9682613f78565b848454613efd565b825550505050565b5f5f905090565b613fb5613fa6565b613fc0818484613f81565b505050565b5b81811015613fe357613fd85f82613fad565b600181019050613fc6565b5050565b601f82111561402857613ff981613ed0565b61400284613ee2565b81016020851015614011578190505b61402561401d85613ee2565b830182613fc5565b50505b505050565b5f82821c905092915050565b5f6140485f198460080261402d565b1980831691505092915050565b5f6140608383614039565b9150826002028217905092915050565b6140798261335b565b67ffffffffffffffff8111156140925761409161354b565b5b61409c82546139c3565b6140a7828285613fe7565b5f60209050601f8311600181146140d8575f84156140c6578287015190505b6140d08582614055565b865550614137565b601f1984166140e686613ed0565b5f5b8281101561410d578489015182556001820191506020850194506020810190506140e8565b8683101561412a5784890151614126601f891682614039565b8355505b6001600288020188555050505b505050505050565b7f536f6e6963527573683a204e6f207265776172647320746f20636c61696d00005f82015250565b5f614173601e83613365565b915061417e8261413f565b602082019050919050565b5f6020820190508181035f8301526141a081614167565b9050919050565b7f536f6e6963527573683a204e6f207265776172647320617661696c61626c65205f8201527f746f20636c61696d000000000000000000000000000000000000000000000000602082015250565b5f614201602883613365565b915061420c826141a7565b604082019050919050565b5f6020820190508181035f83015261422e816141f5565b9050919050565b7f536f6e6963527573683a20416c7265616479207374616b6564000000000000005f82015250565b5f614269601983613365565b915061427482614235565b602082019050919050565b5f6020820190508181035f8301526142968161425d565b9050919050565b7f536f6e6963527573683a2053747265616d206973206e6f7420616374697665005f82015250565b5f6142d1601f83613365565b91506142dc8261429d565b602082019050919050565b5f6020820190508181035f8301526142fe816142c5565b9050919050565b7f536f6e6963527573683a204f6e6c7920726563697069656e742063616e2077695f8201527f7468647261770000000000000000000000000000000000000000000000000000602082015250565b5f61435f602683613365565b915061436a82614305565b604082019050919050565b5f6020820190508181035f83015261438c81614353565b9050919050565b7f536f6e6963527573683a204e6f7468696e6720746f20776974686472617700005f82015250565b5f6143c7601e83613365565b91506143d282614393565b602082019050919050565b5f6020820190508181035f8301526143f4816143bb565b9050919050565b7f536f6e6963527573683a20496e76616c696420726563697069656e74000000005f82015250565b5f61442f601c83613365565b915061443a826143fb565b602082019050919050565b5f6020820190508181035f83015261445c81614423565b9050919050565b7f536f6e6963527573683a2043616e6e6f742073747265616d20746f2073656c665f82015250565b5f614497602083613365565b91506144a282614463565b602082019050919050565b5f6020820190508181035f8301526144c48161448b565b9050919050565b7f536f6e6963527573683a204475726174696f6e206d75737420626520706f73695f8201527f7469766500000000000000000000000000000000000000000000000000000000602082015250565b5f614525602483613365565b9150614530826144cb565b604082019050919050565b5f6020820190508181035f83015261455281614519565b9050919050565b5f60e08201905061456c5f83018a613268565b6145796020830189613268565b6145866040830188613268565b6145936060830187613268565b6145a06080830186613268565b6145ad60a0830185613268565b6145ba60c0830184613268565b98975050505050505050565b7f536f6e6963527573683a20416d6f756e74206578636565647320617661696c615f8201527f626c6520726576656e7565000000000000000000000000000000000000000000602082015250565b5f614620602b83613365565b915061462b826145c6565b604082019050919050565b5f6020820190508181035f83015261464d81614614565b9050919050565b7f536f6e6963527573683a20496e73756666696369656e742062616c616e6365005f82015250565b5f614688601f83613365565b915061469382614654565b602082019050919050565b5f6020820190508181035f8301526146b58161467c565b9050919050565b7f536f6e6963527573683a204f6e6c792073656e646572206f72207265636970695f8201527f656e742063616e2063616e63656c000000000000000000000000000000000000602082015250565b5f614716602e83613365565b9150614721826146bc565b604082019050919050565b5f6020820190508181035f8301526147438161470a565b9050919050565b7f536f6e6963527573683a20526563697069656e7420726566756e64206661696c5f8201527f6564000000000000000000000000000000000000000000000000000000000000602082015250565b5f6147a4602283613365565b91506147af8261474a565b604082019050919050565b5f6020820190508181035f8301526147d181614798565b9050919050565b7f536f6e6963527573683a2053656e64657220726566756e64206661696c6564005f82015250565b5f61480c601f83613365565b9150614817826147d8565b602082019050919050565b5f6020820190508181035f83015261483981614800565b9050919050565b5f8151905061484e816134ee565b92915050565b5f60208284031215614869576148686132ce565b5b5f61487684828501614840565b91505092915050565b7f536f6e6963527573683a20436f6e747261637420697320736f6c76656e742c205f8201527f6e6f20656d657267656e6379206e656564656400000000000000000000000000602082015250565b5f6148d9603383613365565b91506148e48261487f565b604082019050919050565b5f6020820190508181035f830152614906816148cd565b9050919050565b5f8151905061491b81613499565b92915050565b5f60208284031215614936576149356132ce565b5b5f6149438482850161490d565b9150509291505056fea264697066735822122047e5370bcd1944124a518d551a755f3673c931426a43aa7420142e009332af6864736f6c634300081e0033","linkReferences":{}},"methodIdentifiers":{"OWNER_SHARE_BPS()":"f4ed1743","STAKER_SHARE_BPS()":"5c69d3a6","STREAMING_FEE_BPS()":"2914051f","baseAPY()":"214405a9","cancelStream(uint256)":"6db9241b","claimRewards()":"372500ab","createStream(address,uint256)":"3df7fb8c","emergencyPause()":"51858e27","emergencyReturnStakes()":"b7980d16","getBalanceInfo()":"fc00e628","getClaimableBalance(uint256)":"a4424d5a","getClaimableRewards(address)":"308e401e","getCurrentAPY()":"962ca496","getFeeInfo()":"0002eab7","getProjectedAPY(uint256)":"fc10a6cc","getRealisticClaimableRewards(address)":"ef42466c","getRevenueSplit()":"e1d37e60","getStream(uint256)":"894e9a0d","getStreamingActivity()":"18d74c43","getTotalStreams()":"e126559a","getUserStake(address)":"bbadc93a","getVaultInfo()":"7f98aa71","getVaultStats()":"a59aa5a6","isSolvent()":"5ce23950","lastUpdateTime()":"c8f33c91","nextStreamId()":"1e99d569","owner()":"8da5cb5b","ownerRevenue()":"00292526","rewardRate()":"7b0a47ee","setVaultPaused(bool)":"315e4ec3","stake()":"3a4b66f1","stakes(address)":"16934fc4","streams(uint256)":"64d60d91","totalFeesCollected()":"60c6d8ae","totalRewardsAvailable()":"6de813f1","totalStaked()":"817b1cd2","unstake(uint256)":"2e17de78","updateRewardRate(uint256)":"9ef3a261","updateVaultParams(string)":"320541b2","userRewards(address)":"0660f1e8","vaultActive()":"9e591bc6","vaultName()":"0ace9ca0","withdrawFromStream(uint256)":"3a597f48","withdrawOwnerRevenue(uint256)":"49240629"},"id":19}