{"abi":[{"type":"constructor","inputs":[{"name":"_vaultName","type":"string","internalType":"string"},{"name":"_baseRewardRate","type":"uint256","internalType":"uint256"},{"name":"_charityAddress","type":"address","internalType":"address"}],"stateMutability":"nonpayable"},{"type":"receive","stateMutability":"payable"},{"type":"function","name":"ACTIVITY_WINDOW","inputs":[],"outputs":[{"name":"","type":"uint256","internalType":"uint256"}],"stateMutability":"view"},{"type":"function","name":"STREAMING_FEE_BPS","inputs":[],"outputs":[{"name":"","type":"uint256","internalType":"uint256"}],"stateMutability":"view"},{"type":"function","name":"apyCapBPS","inputs":[],"outputs":[{"name":"","type":"uint256","internalType":"uint256"}],"stateMutability":"view"},{"type":"function","name":"baseRewardRate","inputs":[],"outputs":[{"name":"","type":"uint256","internalType":"uint256"}],"stateMutability":"view"},{"type":"function","name":"calculateExcessFunds","inputs":[],"outputs":[{"name":"","type":"uint256","internalType":"uint256"}],"stateMutability":"view"},{"type":"function","name":"cancelStream","inputs":[{"name":"streamId","type":"uint256","internalType":"uint256"}],"outputs":[],"stateMutability":"nonpayable"},{"type":"function","name":"charityAddress","inputs":[],"outputs":[{"name":"","type":"address","internalType":"address"}],"stateMutability":"view"},{"type":"function","name":"charityFunds","inputs":[],"outputs":[{"name":"","type":"uint256","internalType":"uint256"}],"stateMutability":"view"},{"type":"function","name":"claimRewards","inputs":[],"outputs":[],"stateMutability":"nonpayable"},{"type":"function","name":"createStream","inputs":[{"name":"recipient","type":"address","internalType":"address"},{"name":"duration","type":"uint256","internalType":"uint256"}],"outputs":[],"stateMutability":"payable"},{"type":"function","name":"distributeExcessFunds","inputs":[],"outputs":[],"stateMutability":"nonpayable"},{"type":"function","name":"emergencyPause","inputs":[],"outputs":[],"stateMutability":"nonpayable"},{"type":"function","name":"getActivityInfo","inputs":[],"outputs":[{"name":"","type":"uint256","internalType":"uint256"},{"name":"","type":"uint256","internalType":"uint256"},{"name":"","type":"uint256","internalType":"uint256"}],"stateMutability":"view"},{"type":"function","name":"getBalanceInfo","inputs":[],"outputs":[{"name":"balance","type":"uint256","internalType":"uint256"},{"name":"totalStakedAmount","type":"uint256","internalType":"uint256"},{"name":"availableForRewards","type":"uint256","internalType":"uint256"},{"name":"ownerRevenueAvailable","type":"uint256","internalType":"uint256"},{"name":"charityFundsAvailable","type":"uint256","internalType":"uint256"}],"stateMutability":"view"},{"type":"function","name":"getClaimableBalance","inputs":[{"name":"streamId","type":"uint256","internalType":"uint256"}],"outputs":[{"name":"","type":"uint256","internalType":"uint256"}],"stateMutability":"view"},{"type":"function","name":"getCurrentAPY","inputs":[],"outputs":[{"name":"","type":"uint256","internalType":"uint256"}],"stateMutability":"view"},{"type":"function","name":"getFeeInfo","inputs":[],"outputs":[{"name":"","type":"uint256","internalType":"uint256"},{"name":"","type":"uint256","internalType":"uint256"},{"name":"","type":"uint256","internalType":"uint256"},{"name":"","type":"uint256","internalType":"uint256"}],"stateMutability":"view"},{"type":"function","name":"getRevenueSplit","inputs":[],"outputs":[{"name":"","type":"uint256","internalType":"uint256"},{"name":"","type":"uint256","internalType":"uint256"}],"stateMutability":"view"},{"type":"function","name":"getStream","inputs":[{"name":"streamId","type":"uint256","internalType":"uint256"}],"outputs":[{"name":"","type":"tuple","internalType":"struct SonicRushActivityBased.Stream","components":[{"name":"sender","type":"address","internalType":"address"},{"name":"recipient","type":"address","internalType":"address"},{"name":"totalAmount","type":"uint256","internalType":"uint256"},{"name":"flowRate","type":"uint256","internalType":"uint256"},{"name":"startTime","type":"uint256","internalType":"uint256"},{"name":"stopTime","type":"uint256","internalType":"uint256"},{"name":"amountWithdrawn","type":"uint256","internalType":"uint256"},{"name":"isActive","type":"bool","internalType":"bool"}]}],"stateMutability":"view"},{"type":"function","name":"getTotalStreams","inputs":[],"outputs":[{"name":"","type":"uint256","internalType":"uint256"}],"stateMutability":"view"},{"type":"function","name":"getUserStake","inputs":[{"name":"user","type":"address","internalType":"address"}],"outputs":[{"name":"","type":"tuple","internalType":"struct SonicRushActivityBased.Stake","components":[{"name":"amount","type":"uint256","internalType":"uint256"},{"name":"startTime","type":"uint256","internalType":"uint256"},{"name":"lastClaimTime","type":"uint256","internalType":"uint256"},{"name":"accumulatedRewards","type":"uint256","internalType":"uint256"},{"name":"isActive","type":"bool","internalType":"bool"}]}],"stateMutability":"view"},{"type":"function","name":"getVaultStats","inputs":[],"outputs":[{"name":"","type":"uint256","internalType":"uint256"},{"name":"","type":"uint256","internalType":"uint256"},{"name":"","type":"uint256","internalType":"uint256"}],"stateMutability":"view"},{"type":"function","name":"isSolvent","inputs":[],"outputs":[{"name":"","type":"bool","internalType":"bool"}],"stateMutability":"view"},{"type":"function","name":"lastActivityUpdate","inputs":[],"outputs":[{"name":"","type":"uint256","internalType":"uint256"}],"stateMutability":"view"},{"type":"function","name":"lastUpdateTime","inputs":[],"outputs":[{"name":"","type":"uint256","internalType":"uint256"}],"stateMutability":"view"},{"type":"function","name":"nextStreamId","inputs":[],"outputs":[{"name":"","type":"uint256","internalType":"uint256"}],"stateMutability":"view"},{"type":"function","name":"owner","inputs":[],"outputs":[{"name":"","type":"address","internalType":"address"}],"stateMutability":"view"},{"type":"function","name":"ownerRevenue","inputs":[],"outputs":[{"name":"","type":"uint256","internalType":"uint256"}],"stateMutability":"view"},{"type":"function","name":"ownerShareBPS","inputs":[],"outputs":[{"name":"","type":"uint256","internalType":"uint256"}],"stateMutability":"view"},{"type":"function","name":"setVaultPaused","inputs":[{"name":"paused","type":"bool","internalType":"bool"}],"outputs":[],"stateMutability":"nonpayable"},{"type":"function","name":"stake","inputs":[],"outputs":[],"stateMutability":"payable"},{"type":"function","name":"stakerShareBPS","inputs":[],"outputs":[{"name":"","type":"uint256","internalType":"uint256"}],"stateMutability":"view"},{"type":"function","name":"stakes","inputs":[{"name":"","type":"address","internalType":"address"}],"outputs":[{"name":"amount","type":"uint256","internalType":"uint256"},{"name":"startTime","type":"uint256","internalType":"uint256"},{"name":"lastClaimTime","type":"uint256","internalType":"uint256"},{"name":"accumulatedRewards","type":"uint256","internalType":"uint256"},{"name":"isActive","type":"bool","internalType":"bool"}],"stateMutability":"view"},{"type":"function","name":"streams","inputs":[{"name":"","type":"uint256","internalType":"uint256"}],"outputs":[{"name":"sender","type":"address","internalType":"address"},{"name":"recipient","type":"address","internalType":"address"},{"name":"totalAmount","type":"uint256","internalType":"uint256"},{"name":"flowRate","type":"uint256","internalType":"uint256"},{"name":"startTime","type":"uint256","internalType":"uint256"},{"name":"stopTime","type":"uint256","internalType":"uint256"},{"name":"amountWithdrawn","type":"uint256","internalType":"uint256"},{"name":"isActive","type":"bool","internalType":"bool"}],"stateMutability":"view"},{"type":"function","name":"totalRewardsAvailable","inputs":[],"outputs":[{"name":"","type":"uint256","internalType":"uint256"}],"stateMutability":"view"},{"type":"function","name":"totalStaked","inputs":[],"outputs":[{"name":"","type":"uint256","internalType":"uint256"}],"stateMutability":"view"},{"type":"function","name":"totalStreamVolume24h","inputs":[],"outputs":[{"name":"","type":"uint256","internalType":"uint256"}],"stateMutability":"view"},{"type":"function","name":"unstake","inputs":[{"name":"amount","type":"uint256","internalType":"uint256"}],"outputs":[],"stateMutability":"nonpayable"},{"type":"function","name":"updateRewardRate","inputs":[{"name":"newRate","type":"uint256","internalType":"uint256"}],"outputs":[],"stateMutability":"nonpayable"},{"type":"function","name":"updateVaultParams","inputs":[{"name":"_vaultName","type":"string","internalType":"string"}],"outputs":[],"stateMutability":"nonpayable"},{"type":"function","name":"userRewards","inputs":[{"name":"","type":"address","internalType":"address"}],"outputs":[{"name":"","type":"uint256","internalType":"uint256"}],"stateMutability":"view"},{"type":"function","name":"vaultActive","inputs":[],"outputs":[{"name":"","type":"bool","internalType":"bool"}],"stateMutability":"view"},{"type":"function","name":"vaultName","inputs":[],"outputs":[{"name":"","type":"string","internalType":"string"}],"stateMutability":"view"},{"type":"function","name":"withdrawCharityFunds","inputs":[{"name":"amount","type":"uint256","internalType":"uint256"}],"outputs":[],"stateMutability":"nonpayable"},{"type":"function","name":"withdrawFromStream","inputs":[{"name":"streamId","type":"uint256","internalType":"uint256"}],"outputs":[],"stateMutability":"nonpayable"},{"type":"function","name":"withdrawOwnerRevenue","inputs":[{"name":"amount","type":"uint256","internalType":"uint256"}],"outputs":[],"stateMutability":"nonpayable"},{"type":"event","name":"CharityFundsWithdrawn","inputs":[{"name":"charity","type":"address","indexed":true,"internalType":"address"},{"name":"amount","type":"uint256","indexed":false,"internalType":"uint256"}],"anonymous":false},{"type":"event","name":"ExcessFundsDistributed","inputs":[{"name":"totalExcess","type":"uint256","indexed":false,"internalType":"uint256"},{"name":"ownerShare","type":"uint256","indexed":false,"internalType":"uint256"},{"name":"charityShare","type":"uint256","indexed":false,"internalType":"uint256"},{"name":"stakerBonus","type":"uint256","indexed":false,"internalType":"uint256"}],"anonymous":false},{"type":"event","name":"OwnerRevenueWithdrawn","inputs":[{"name":"owner","type":"address","indexed":true,"internalType":"address"},{"name":"amount","type":"uint256","indexed":false,"internalType":"uint256"}],"anonymous":false},{"type":"event","name":"RewardsClaimed","inputs":[{"name":"user","type":"address","indexed":true,"internalType":"address"},{"name":"amount","type":"uint256","indexed":false,"internalType":"uint256"}],"anonymous":false},{"type":"event","name":"Staked","inputs":[{"name":"user","type":"address","indexed":true,"internalType":"address"},{"name":"amount","type":"uint256","indexed":false,"internalType":"uint256"}],"anonymous":false},{"type":"event","name":"StreamCancelled","inputs":[{"name":"streamId","type":"uint256","indexed":true,"internalType":"uint256"},{"name":"sender","type":"address","indexed":true,"internalType":"address"},{"name":"recipient","type":"address","indexed":true,"internalType":"address"},{"name":"senderBalance","type":"uint256","indexed":false,"internalType":"uint256"},{"name":"recipientBalance","type":"uint256","indexed":false,"internalType":"uint256"}],"anonymous":false},{"type":"event","name":"StreamCreated","inputs":[{"name":"streamId","type":"uint256","indexed":true,"internalType":"uint256"},{"name":"sender","type":"address","indexed":true,"internalType":"address"},{"name":"recipient","type":"address","indexed":true,"internalType":"address"},{"name":"totalAmount","type":"uint256","indexed":false,"internalType":"uint256"},{"name":"flowRate","type":"uint256","indexed":false,"internalType":"uint256"},{"name":"startTime","type":"uint256","indexed":false,"internalType":"uint256"},{"name":"stopTime","type":"uint256","indexed":false,"internalType":"uint256"},{"name":"feeCollected","type":"uint256","indexed":false,"internalType":"uint256"},{"name":"stakerShare","type":"uint256","indexed":false,"internalType":"uint256"},{"name":"ownerShare","type":"uint256","indexed":false,"internalType":"uint256"}],"anonymous":false},{"type":"event","name":"Unstaked","inputs":[{"name":"user","type":"address","indexed":true,"internalType":"address"},{"name":"amount","type":"uint256","indexed":false,"internalType":"uint256"}],"anonymous":false},{"type":"event","name":"Withdrawn","inputs":[{"name":"streamId","type":"uint256","indexed":true,"internalType":"uint256"},{"name":"recipient","type":"address","indexed":true,"internalType":"address"},{"name":"amount","type":"uint256","indexed":false,"internalType":"uint256"}],"anonymous":false}],"bytecode":{"object":"0x6080604052610fa0600455611770600555610fa0600655348015610021575f5ffd5b506040516151fa3803806151fa833981810160405281019061004391906103bf565b5f73ffffffffffffffffffffffffffffffffffffffff168173ffffffffffffffffffffffffffffffffffffffff16036100b1576040517f08c379a00000000000000000000000000000000000000000000000000000000081526004016100a8906104ab565b60405180910390fd5b3373ffffffffffffffffffffffffffffffffffffffff168173ffffffffffffffffffffffffffffffffffffffff160361011f576040517f08c379a000000000000000000000000000000000000000000000000000000000815260040161011690610539565b60405180910390fd5b335f5f6101000a81548173ffffffffffffffffffffffffffffffffffffffff021916908373ffffffffffffffffffffffffffffffffffffffff1602179055508060015f6101000a81548173ffffffffffffffffffffffffffffffffffffffff021916908373ffffffffffffffffffffffffffffffffffffffff16021790555082600990816101ad919061075e565b5081600d819055506001600e5f6101000a81548160ff02191690831515021790555042600c819055504260088190555050505061082d565b5f604051905090565b5f5ffd5b5f5ffd5b5f5ffd5b5f5ffd5b5f601f19601f8301169050919050565b7f4e487b71000000000000000000000000000000000000000000000000000000005f52604160045260245ffd5b610244826101fe565b810181811067ffffffffffffffff821117156102635761026261020e565b5b80604052505050565b5f6102756101e5565b9050610281828261023b565b919050565b5f67ffffffffffffffff8211156102a05761029f61020e565b5b6102a9826101fe565b9050602081019050919050565b8281835e5f83830152505050565b5f6102d66102d184610286565b61026c565b9050828152602081018484840111156102f2576102f16101fa565b5b6102fd8482856102b6565b509392505050565b5f82601f830112610319576103186101f6565b5b81516103298482602086016102c4565b91505092915050565b5f819050919050565b61034481610332565b811461034e575f5ffd5b50565b5f8151905061035f8161033b565b92915050565b5f73ffffffffffffffffffffffffffffffffffffffff82169050919050565b5f61038e82610365565b9050919050565b61039e81610384565b81146103a8575f5ffd5b50565b5f815190506103b981610395565b92915050565b5f5f5f606084860312156103d6576103d56101ee565b5b5f84015167ffffffffffffffff8111156103f3576103f26101f2565b5b6103ff86828701610305565b935050602061041086828701610351565b9250506040610421868287016103ab565b9150509250925092565b5f82825260208201905092915050565b7f536f6e6963527573683a20496e76616c696420636861726974792061646472655f8201527f7373000000000000000000000000000000000000000000000000000000000000602082015250565b5f61049560228361042b565b91506104a08261043b565b604082019050919050565b5f6020820190508181035f8301526104c281610489565b9050919050565b7f536f6e6963527573683a20436861726974792063616e6e6f74206265206f776e5f8201527f6572000000000000000000000000000000000000000000000000000000000000602082015250565b5f61052360228361042b565b915061052e826104c9565b604082019050919050565b5f6020820190508181035f83015261055081610517565b9050919050565b5f81519050919050565b7f4e487b71000000000000000000000000000000000000000000000000000000005f52602260045260245ffd5b5f60028204905060018216806105a557607f821691505b6020821081036105b8576105b7610561565b5b50919050565b5f819050815f5260205f209050919050565b5f6020601f8301049050919050565b5f82821b905092915050565b5f6008830261061a7fffffffffffffffffffffffffffffffffffffffffffffffffffffffffffffffff826105df565b61062486836105df565b95508019841693508086168417925050509392505050565b5f819050919050565b5f61065f61065a61065584610332565b61063c565b610332565b9050919050565b5f819050919050565b61067883610645565b61068c61068482610666565b8484546105eb565b825550505050565b5f5f905090565b6106a3610694565b6106ae81848461066f565b505050565b5b818110156106d1576106c65f8261069b565b6001810190506106b4565b5050565b601f821115610716576106e7816105be565b6106f0846105d0565b810160208510156106ff578190505b61071361070b856105d0565b8301826106b3565b50505b505050565b5f82821c905092915050565b5f6107365f198460080261071b565b1980831691505092915050565b5f61074e8383610727565b9150826002028217905092915050565b61076782610557565b67ffffffffffffffff8111156107805761077f61020e565b5b61078a825461058e565b6107958282856106d5565b5f60209050601f8311600181146107c6575f84156107b4578287015190505b6107be8582610743565b865550610825565b601f1984166107d4866105be565b5f5b828110156107fb578489015182556001820191506020850194506020810190506107d6565b868310156108185784890151610814601f891682610727565b8355505b6001600288020188555050505b505050505050565b6149c08061083a5f395ff3fe60806040526004361061027e575f3560e01c80636de813f11161014e578063a4424d5a116100c0578063c8f33c9111610079578063c8f33c911461091d578063d8dfc97414610947578063e126559a14610971578063e17901d81461099b578063e1d37e60146109c5578063fc00e628146109f057610285565b8063a4424d5a146107fb578063a59aa5a614610837578063afbf344014610863578063afcf2fc41461088d578063b2bea01b146108b7578063bbadc93a146108e157610285565b80638da5cb5b116101125780638da5cb5b146107155780638ee313921461073f578063962ca496146107695780639a97b078146107935780639e591bc6146107a95780639ef3a261146107d357610285565b80636de813f1146106315780636f82f0971461065b5780637eb6386214610685578063817b1cd2146106af578063894e9a0d146106d957610285565b80633a4b66f1116101f25780635ce23950116101ab5780635ce239501461051c57806364d60d911461054657806365242a2414610589578063667c9fe2146105b35780636b3324e0146105dd5780636db9241b1461060957610285565b80633a4b66f1146104685780633a597f48146104725780633df7fb8c1461049a57806349240629146104b657806351858e27146104de5780635c9a5101146104f457610285565b80631e99d569116102445780631e99d569146103865780632914051f146103b05780632e17de78146103da578063315e4ec314610402578063320541b21461042a578063372500ab1461045257610285565b806202eab714610289578062292526146102b65780630660f1e8146102e05780630ace9ca01461031c57806316934fc41461034657610285565b3661028557005b5f5ffd5b348015610294575f5ffd5b5061029d610a1e565b6040516102ad94939291906133e4565b60405180910390f35b3480156102c1575f5ffd5b506102ca610a39565b6040516102d79190613427565b60405180910390f35b3480156102eb575f5ffd5b50610306600480360381019061030191906134ab565b610a3f565b6040516103139190613427565b60405180910390f35b348015610327575f5ffd5b50610330610a54565b60405161033d9190613546565b60405180910390f35b348015610351575f5ffd5b5061036c600480360381019061036791906134ab565b610ae0565b60405161037d959493929190613580565b60405180910390f35b348015610391575f5ffd5b5061039a610b1e565b6040516103a79190613427565b60405180910390f35b3480156103bb575f5ffd5b506103c4610b24565b6040516103d19190613427565b60405180910390f35b3480156103e5575f5ffd5b5061040060048036038101906103fb91906135fb565b610b29565b005b34801561040d575f5ffd5b5061042860048036038101906104239190613650565b610e6e565b005b348015610435575f5ffd5b50610450600480360381019061044b91906137a7565b610f19565b005b34801561045d575f5ffd5b50610466610fba565b005b61047061139b565b005b34801561047d575f5ffd5b50610498600480360381019061049391906135fb565b61165a565b005b6104b460048036038101906104af91906137ee565b611963565b005b3480156104c1575f5ffd5b506104dc60048036038101906104d791906135fb565b611d77565b005b3480156104e9575f5ffd5b506104f2612020565b005b3480156104ff575f5ffd5b5061051a600480360381019061051591906135fb565b6120c9565b005b348015610527575f5ffd5b50610530612375565b60405161053d919061382c565b60405180910390f35b348015610551575f5ffd5b5061056c600480360381019061056791906135fb565b61238e565b604051610580989796959493929190613854565b60405180910390f35b348015610594575f5ffd5b5061059d61241c565b6040516105aa9190613427565b60405180910390f35b3480156105be575f5ffd5b506105c76124e4565b6040516105d49190613427565b60405180910390f35b3480156105e8575f5ffd5b506105f16124ea565b604051610600939291906138d0565b60405180910390f35b348015610614575f5ffd5b5061062f600480360381019061062a91906135fb565b612506565b005b34801561063c575f5ffd5b506106456128df565b6040516106529190613427565b60405180910390f35b348015610666575f5ffd5b5061066f6128e5565b60405161067c9190613427565b60405180910390f35b348015610690575f5ffd5b506106996128ec565b6040516106a69190613427565b60405180910390f35b3480156106ba575f5ffd5b506106c36128f2565b6040516106d09190613427565b60405180910390f35b3480156106e4575f5ffd5b506106ff60048036038101906106fa91906135fb565b6128f8565b60405161070c91906139d2565b60405180910390f35b348015610720575f5ffd5b50610729612a19565b60405161073691906139ec565b60405180910390f35b34801561074a575f5ffd5b50610753612a3d565b6040516107609190613427565b60405180910390f35b348015610774575f5ffd5b5061077d612a43565b60405161078a9190613427565b60405180910390f35b34801561079e575f5ffd5b506107a7612add565b005b3480156107b4575f5ffd5b506107bd612d1b565b6040516107ca919061382c565b60405180910390f35b3480156107de575f5ffd5b506107f960048036038101906107f491906135fb565b612d2d565b005b348015610806575f5ffd5b50610821600480360381019061081c91906135fb565b612dc5565b60405161082e9190613427565b60405180910390f35b348015610842575f5ffd5b5061084b612f5c565b60405161085a939291906138d0565b60405180910390f35b34801561086e575f5ffd5b50610877612f73565b6040516108849190613427565b60405180910390f35b348015610898575f5ffd5b506108a1612f79565b6040516108ae91906139ec565b60405180910390f35b3480156108c2575f5ffd5b506108cb612f9e565b6040516108d89190613427565b60405180910390f35b3480156108ec575f5ffd5b50610907600480360381019061090291906134ab565b612fa4565b6040516109149190613a6b565b60405180910390f35b348015610928575f5ffd5b5061093161303c565b60405161093e9190613427565b60405180910390f35b348015610952575f5ffd5b5061095b613042565b6040516109689190613427565b60405180910390f35b34801561097c575f5ffd5b50610985613048565b6040516109929190613427565b60405180910390f35b3480156109a6575f5ffd5b506109af613051565b6040516109bc9190613427565b60405180910390f35b3480156109d0575f5ffd5b506109d9613057565b6040516109e7929190613a84565b60405180910390f35b3480156109fb575f5ffd5b50610a04613067565b604051610a15959493929190613aab565b60405180910390f35b5f5f5f5f600a5f601154601254935093509350935090919293565b60115481565b6010602052805f5260405f205f915090505481565b60098054610a6190613b29565b80601f0160208091040260200160405190810160405280929190818152602001828054610a8d90613b29565b8015610ad85780601f10610aaf57610100808354040283529160200191610ad8565b820191905f5260205f20905b815481529060010190602001808311610abb57829003601f168201915b505050505081565b600f602052805f5260405f205f91509050805f015490806001015490806002015490806003015490806004015f9054906101000a900460ff16905085565b60035481565b600a81565b600160149054906101000a900460ff1615610b79576040517f08c379a0000000000000000000000000000000000000000000000000000000008152600401610b7090613ba3565b60405180910390fd5b60018060146101000a81548160ff021916908315150217905550600e5f9054906101000a900460ff16610be1576040517f08c379a0000000000000000000000000000000000000000000000000000000008152600401610bd890613c0b565b60405180910390fd5b5f8111610c23576040517f08c379a0000000000000000000000000000000000000000000000000000000008152600401610c1a90613c99565b60405180910390fd5b5f600f5f3373ffffffffffffffffffffffffffffffffffffffff1673ffffffffffffffffffffffffffffffffffffffff1681526020019081526020015f209050806004015f9054906101000a900460ff16610cb3576040517f08c379a0000000000000000000000000000000000000000000000000000000008152600401610caa90613d01565b60405180910390fd5b805f0154821115610cf9576040517f08c379a0000000000000000000000000000000000000000000000000000000008152600401610cf090613d8f565b60405180910390fd5b610d023361308a565b81815f015f828254610d149190613dda565b9250508190555081600a5f828254610d2c9190613dda565b925050819055505f815f015403610d59575f816004015f6101000a81548160ff0219169083151502179055505b5f3373ffffffffffffffffffffffffffffffffffffffff1683604051610d7e90613e3a565b5f6040518083038185875af1925050503d805f8114610db8576040519150601f19603f3d011682016040523d82523d5f602084013e610dbd565b606091505b5050905080610e01576040517f08c379a0000000000000000000000000000000000000000000000000000000008152600401610df890613e98565b60405180910390fd5b3373ffffffffffffffffffffffffffffffffffffffff167f0f5bb82176feb1b5e747e28471aa92156a04d9f3ab9f45f28e2d704232b93f7584604051610e479190613427565b60405180910390a250505f600160146101000a81548160ff02191690831515021790555050565b5f5f9054906101000a900473ffffffffffffffffffffffffffffffffffffffff1673ffffffffffffffffffffffffffffffffffffffff163373ffffffffffffffffffffffffffffffffffffffff1614610efc576040517f08c379a0000000000000000000000000000000000000000000000000000000008152600401610ef390613f00565b60405180910390fd5b8015600e5f6101000a81548160ff02191690831515021790555050565b5f5f9054906101000a900473ffffffffffffffffffffffffffffffffffffffff1673ffffffffffffffffffffffffffffffffffffffff163373ffffffffffffffffffffffffffffffffffffffff1614610fa7576040517f08c379a0000000000000000000000000000000000000000000000000000000008152600401610f9e90613f00565b60405180910390fd5b8060099081610fb691906140be565b5050565b600160149054906101000a900460ff161561100a576040517f08c379a000000000000000000000000000000000000000000000000000000000815260040161100190613ba3565b60405180910390fd5b60018060146101000a81548160ff021916908315150217905550600e5f9054906101000a900460ff16611072576040517f08c379a000000000000000000000000000000000000000000000000000000000815260040161106990613c0b565b60405180910390fd5b600f5f3373ffffffffffffffffffffffffffffffffffffffff1673ffffffffffffffffffffffffffffffffffffffff1681526020019081526020015f206004015f9054906101000a900460ff166110fe576040517f08c379a00000000000000000000000000000000000000000000000000000000081526004016110f590613d01565b60405180910390fd5b6111073361308a565b5f60105f3373ffffffffffffffffffffffffffffffffffffffff1673ffffffffffffffffffffffffffffffffffffffff1681526020019081526020015f205490505f811161118a576040517f08c379a0000000000000000000000000000000000000000000000000000000008152600401611181906141fd565b60405180910390fd5b5f600b5490505f4790505f600a5482116111a4575f6111b3565b600a54826111b29190613dda565b5b9050828411156111c1578293505b808411156111cd578093505b5f841161120f576040517f08c379a0000000000000000000000000000000000000000000000000000000008152600401611206906141fd565b60405180910390fd5b8360105f3373ffffffffffffffffffffffffffffffffffffffff1673ffffffffffffffffffffffffffffffffffffffff1681526020019081526020015f205f82825461125b9190613dda565b9250508190555083600b54106112845783600b5f82825461127c9190613dda565b925050819055505b5f3373ffffffffffffffffffffffffffffffffffffffff16856040516112a990613e3a565b5f6040518083038185875af1925050503d805f81146112e3576040519150601f19603f3d011682016040523d82523d5f602084013e6112e8565b606091505b505090508061132c576040517f08c379a000000000000000000000000000000000000000000000000000000000815260040161132390613e98565b60405180910390fd5b3373ffffffffffffffffffffffffffffffffffffffff167ffc30cddea38e2bf4d6ea7d3f9ed3b6ad7f176419f4963bd81318067a4aee73fe866040516113729190613427565b60405180910390a250505050505f600160146101000a81548160ff021916908315150217905550565b600160149054906101000a900460ff16156113eb576040517f08c379a00000000000000000000000000000000000000000000000000000000081526004016113e290613ba3565b60405180910390fd5b60018060146101000a81548160ff021916908315150217905550600e5f9054906101000a900460ff16611453576040517f08c379a000000000000000000000000000000000000000000000000000000000815260040161144a90613c0b565b60405180910390fd5b5f3411611495576040517f08c379a000000000000000000000000000000000000000000000000000000000815260040161148c90613c99565b60405180910390fd5b600f5f3373ffffffffffffffffffffffffffffffffffffffff1673ffffffffffffffffffffffffffffffffffffffff1681526020019081526020015f206004015f9054906101000a900460ff1615611522576040517f08c379a000000000000000000000000000000000000000000000000000000000815260040161151990614265565b60405180910390fd5b6040518060a001604052803481526020014281526020014281526020015f815260200160011515815250600f5f3373ffffffffffffffffffffffffffffffffffffffff1673ffffffffffffffffffffffffffffffffffffffff1681526020019081526020015f205f820151815f01556020820151816001015560408201518160020155606082015181600301556080820151816004015f6101000a81548160ff02191690831515021790555090505034600a5f8282546115e29190614283565b9250508190555042600c819055503373ffffffffffffffffffffffffffffffffffffffff167f9e71bc8eea02a63969f509818f2dafb9254532904319f9dbda79b67bd34a5f3d346040516116369190613427565b60405180910390a25f600160146101000a81548160ff021916908315150217905550565b600160149054906101000a900460ff16156116aa576040517f08c379a00000000000000000000000000000000000000000000000000000000081526004016116a190613ba3565b60405180910390fd5b60018060146101000a81548160ff0219169083151502179055505f60025f8381526020019081526020015f209050806007015f9054906101000a900460ff16611728576040517f08c379a000000000000000000000000000000000000000000000000000000000815260040161171f90614300565b60405180910390fd5b806001015f9054906101000a900473ffffffffffffffffffffffffffffffffffffffff1673ffffffffffffffffffffffffffffffffffffffff163373ffffffffffffffffffffffffffffffffffffffff16146117b9576040517f08c379a00000000000000000000000000000000000000000000000000000000081526004016117b09061438e565b60405180910390fd5b5f6117c383612dc5565b90505f8111611807576040517f08c379a00000000000000000000000000000000000000000000000000000000081526004016117fe906143f6565b60405180910390fd5b80826006015f82825461181a9190614283565b92505081905550816002015482600601541061184c575f826007015f6101000a81548160ff0219169083151502179055505b5f3373ffffffffffffffffffffffffffffffffffffffff168260405161187190613e3a565b5f6040518083038185875af1925050503d805f81146118ab576040519150601f19603f3d011682016040523d82523d5f602084013e6118b0565b606091505b50509050806118f4576040517f08c379a00000000000000000000000000000000000000000000000000000000081526004016118eb90613e98565b60405180910390fd5b3373ffffffffffffffffffffffffffffffffffffffff16847fcf7d23a3cbe4e8b36ff82fd1b05b1b17373dc7804b4ebbd6e2356716ef2023728460405161193b9190613427565b60405180910390a35050505f600160146101000a81548160ff02191690831515021790555050565b5f73ffffffffffffffffffffffffffffffffffffffff168273ffffffffffffffffffffffffffffffffffffffff16036119d1576040517f08c379a00000000000000000000000000000000000000000000000000000000081526004016119c89061445e565b60405180910390fd5b3373ffffffffffffffffffffffffffffffffffffffff168273ffffffffffffffffffffffffffffffffffffffff1603611a3f576040517f08c379a0000000000000000000000000000000000000000000000000000000008152600401611a36906144c6565b60405180910390fd5b5f8111611a81576040517f08c379a0000000000000000000000000000000000000000000000000000000008152600401611a7890614554565b60405180910390fd5b5f3411611ac3576040517f08c379a0000000000000000000000000000000000000000000000000000000008152600401611aba90613c99565b60405180910390fd5b5f612710600a34611ad49190614572565b611ade91906145e0565b90505f8134611aed9190613dda565b90505f8382611afc91906145e0565b90506040518061010001604052803373ffffffffffffffffffffffffffffffffffffffff1681526020018673ffffffffffffffffffffffffffffffffffffffff1681526020018381526020018281526020014281526020018542611b609190614283565b81526020015f81526020016001151581525060025f60035481526020019081526020015f205f820151815f015f6101000a81548173ffffffffffffffffffffffffffffffffffffffff021916908373ffffffffffffffffffffffffffffffffffffffff1602179055506020820151816001015f6101000a81548173ffffffffffffffffffffffffffffffffffffffff021916908373ffffffffffffffffffffffffffffffffffffffff16021790555060408201518160020155606082015181600301556080820151816004015560a0820151816005015560c0820151816006015560e0820151816007015f6101000a81548160ff021916908315150217905550905050611c6c34613176565b5f61271060045485611c7e9190614572565b611c8891906145e0565b90505f61271060055486611c9c9190614572565b611ca691906145e0565b905081600b5f828254611cb99190614283565b925050819055508060115f828254611cd19190614283565b925050819055508673ffffffffffffffffffffffffffffffffffffffff163373ffffffffffffffffffffffffffffffffffffffff166003547f43cb4d865b9c1192ef137dd712f4231e31430f82250c2600c2e6db99cb65cf2e8787428c42611d399190614283565b8c8a8a604051611d4f9796959493929190614610565b60405180910390a460035f815480929190611d699061467d565b919050555050505050505050565b5f5f9054906101000a900473ffffffffffffffffffffffffffffffffffffffff1673ffffffffffffffffffffffffffffffffffffffff163373ffffffffffffffffffffffffffffffffffffffff1614611e05576040517f08c379a0000000000000000000000000000000000000000000000000000000008152600401611dfc90613f00565b60405180910390fd5b600160149054906101000a900460ff1615611e55576040517f08c379a0000000000000000000000000000000000000000000000000000000008152600401611e4c90613ba3565b60405180910390fd5b60018060146101000a81548160ff021916908315150217905550601154811115611eb4576040517f08c379a0000000000000000000000000000000000000000000000000000000008152600401611eab90614734565b60405180910390fd5b8060115f828254611ec59190613dda565b925050819055505f5f5f9054906101000a900473ffffffffffffffffffffffffffffffffffffffff1673ffffffffffffffffffffffffffffffffffffffff1682604051611f1190613e3a565b5f6040518083038185875af1925050503d805f8114611f4b576040519150601f19603f3d011682016040523d82523d5f602084013e611f50565b606091505b5050905080611f94576040517f08c379a0000000000000000000000000000000000000000000000000000000008152600401611f8b90613e98565b60405180910390fd5b5f5f9054906101000a900473ffffffffffffffffffffffffffffffffffffffff1673ffffffffffffffffffffffffffffffffffffffff167f6a564e4f3f31d40be9719c1c142131fea80ed670e9b82f494604cfb5e6a633ad83604051611ffa9190613427565b60405180910390a2505f600160146101000a81548160ff02191690831515021790555050565b5f5f9054906101000a900473ffffffffffffffffffffffffffffffffffffffff1673ffffffffffffffffffffffffffffffffffffffff163373ffffffffffffffffffffffffffffffffffffffff16146120ae576040517f08c379a00000000000000000000000000000000000000000000000000000000081526004016120a590613f00565b60405180910390fd5b5f600e5f6101000a81548160ff021916908315150217905550565b600160149054906101000a900460ff1615612119576040517f08c379a000000000000000000000000000000000000000000000000000000000815260040161211090613ba3565b60405180910390fd5b60018060146101000a81548160ff02191690831515021790555060015f9054906101000a900473ffffffffffffffffffffffffffffffffffffffff1673ffffffffffffffffffffffffffffffffffffffff163373ffffffffffffffffffffffffffffffffffffffff16146121c2576040517f08c379a00000000000000000000000000000000000000000000000000000000081526004016121b9906147c2565b60405180910390fd5b601254811115612207576040517f08c379a00000000000000000000000000000000000000000000000000000000081526004016121fe90614850565b60405180910390fd5b8060125f8282546122189190613dda565b925050819055505f60015f9054906101000a900473ffffffffffffffffffffffffffffffffffffffff1673ffffffffffffffffffffffffffffffffffffffff168260405161226590613e3a565b5f6040518083038185875af1925050503d805f811461229f576040519150601f19603f3d011682016040523d82523d5f602084013e6122a4565b606091505b50509050806122e8576040517f08c379a00000000000000000000000000000000000000000000000000000000081526004016122df90613e98565b60405180910390fd5b60015f9054906101000a900473ffffffffffffffffffffffffffffffffffffffff1673ffffffffffffffffffffffffffffffffffffffff167fb9f0cd103a71c34a5dbdf731ed198fc1c7dfcb2f65b8ff5244143ae3473371c08360405161234f9190613427565b60405180910390a2505f600160146101000a81548160ff02191690831515021790555050565b5f600b54600a546123869190614283565b471015905090565b6002602052805f5260405f205f91509050805f015f9054906101000a900473ffffffffffffffffffffffffffffffffffffffff1690806001015f9054906101000a900473ffffffffffffffffffffffffffffffffffffffff1690806002015490806003015490806004015490806005015490806006015490806007015f9054906101000a900460ff16905088565b5f5f600a540361242e575f90506124e1565b5f606461016d6018600d546124416131b7565b61244b9190614572565b6124559190614572565b61245f9190614572565b61246991906145e0565b90505f600a54612710600b5461247f9190614572565b61248991906145e0565b90505f81836124989190614283565b905060065481116124ae575f93505050506124e1565b5f600654826124bd9190613dda565b905061271081600a546124d09190614572565b6124da91906145e0565b9450505050505b90565b60055481565b5f5f5f6007546008546124fb6131b7565b925092509250909192565b600160149054906101000a900460ff1615612556576040517f08c379a000000000000000000000000000000000000000000000000000000000815260040161254d90613ba3565b60405180910390fd5b60018060146101000a81548160ff0219169083151502179055505f60025f8381526020019081526020015f209050806007015f9054906101000a900460ff166125d4576040517f08c379a00000000000000000000000000000000000000000000000000000000081526004016125cb90614300565b60405180910390fd5b805f015f9054906101000a900473ffffffffffffffffffffffffffffffffffffffff1673ffffffffffffffffffffffffffffffffffffffff163373ffffffffffffffffffffffffffffffffffffffff1614612664576040517f08c379a000000000000000000000000000000000000000000000000000000000815260040161265b906148de565b60405180910390fd5b5f61266e83612dc5565b90505f81836006015484600201546126869190613dda565b6126909190613dda565b90505f836007015f6101000a81548160ff0219169083151502179055505f821115612782575f836001015f9054906101000a900473ffffffffffffffffffffffffffffffffffffffff1673ffffffffffffffffffffffffffffffffffffffff16836040516126fd90613e3a565b5f6040518083038185875af1925050503d805f8114612737576040519150601f19603f3d011682016040523d82523d5f602084013e61273c565b606091505b5050905080612780576040517f08c379a000000000000000000000000000000000000000000000000000000000815260040161277790613e98565b60405180910390fd5b505b5f811115612834575f3373ffffffffffffffffffffffffffffffffffffffff16826040516127af90613e3a565b5f6040518083038185875af1925050503d805f81146127e9576040519150601f19603f3d011682016040523d82523d5f602084013e6127ee565b606091505b5050905080612832576040517f08c379a000000000000000000000000000000000000000000000000000000000815260040161282990613e98565b60405180910390fd5b505b826001015f9054906101000a900473ffffffffffffffffffffffffffffffffffffffff1673ffffffffffffffffffffffffffffffffffffffff163373ffffffffffffffffffffffffffffffffffffffff16857fb6e64e9a8283cc563b12fc25832dcf2be0fe8b949c63eccb2ba81a4f997c8a1e84866040516128b7929190613a84565b60405180910390a45050505f600160146101000a81548160ff02191690831515021790555050565b600b5481565b6201518081565b60075481565b600a5481565b612900613335565b60025f8381526020019081526020015f20604051806101000160405290815f82015f9054906101000a900473ffffffffffffffffffffffffffffffffffffffff1673ffffffffffffffffffffffffffffffffffffffff1673ffffffffffffffffffffffffffffffffffffffff168152602001600182015f9054906101000a900473ffffffffffffffffffffffffffffffffffffffff1673ffffffffffffffffffffffffffffffffffffffff1673ffffffffffffffffffffffffffffffffffffffff1681526020016002820154815260200160038201548152602001600482015481526020016005820154815260200160068201548152602001600782015f9054906101000a900460ff1615151515815250509050919050565b5f5f9054906101000a900473ffffffffffffffffffffffffffffffffffffffff1681565b60085481565b5f5f600a5403612a55575f9050612ada565b5f606461016d6018600d54612a686131b7565b612a729190614572565b612a7c9190614572565b612a869190614572565b612a9091906145e0565b90505f600a54612710600b54612aa69190614572565b612ab091906145e0565b90505f8183612abf9190614283565b90506006548111612ad05780612ad4565b6006545b93505050505b90565b5f5f9054906101000a900473ffffffffffffffffffffffffffffffffffffffff1673ffffffffffffffffffffffffffffffffffffffff163373ffffffffffffffffffffffffffffffffffffffff1614612b6b576040517f08c379a0000000000000000000000000000000000000000000000000000000008152600401612b6290613f00565b60405180910390fd5b600160149054906101000a900460ff1615612bbb576040517f08c379a0000000000000000000000000000000000000000000000000000000008152600401612bb290613ba3565b60405180910390fd5b60018060146101000a81548160ff0219169083151502179055505f612bde61241c565b90505f8111612c22576040517f08c379a0000000000000000000000000000000000000000000000000000000008152600401612c199061496c565b60405180910390fd5b5f6064603283612c329190614572565b612c3c91906145e0565b90505f6064601e84612c4e9190614572565b612c5891906145e0565b90505f6064601485612c6a9190614572565b612c7491906145e0565b90508260115f828254612c879190614283565b925050819055508160125f828254612c9f9190614283565b9250508190555080600b5f828254612cb79190614283565b925050819055507f08712c1d64ccd18a70ea1d386d112f0c6241aef58c9622d0d30eac4cbc697f9a84848484604051612cf394939291906133e4565b60405180910390a1505050505f600160146101000a81548160ff021916908315150217905550565b600e5f9054906101000a900460ff1681565b5f5f9054906101000a900473ffffffffffffffffffffffffffffffffffffffff1673ffffffffffffffffffffffffffffffffffffffff163373ffffffffffffffffffffffffffffffffffffffff1614612dbb576040517f08c379a0000000000000000000000000000000000000000000000000000000008152600401612db290613f00565b60405180910390fd5b80600d8190555050565b5f5f60025f8481526020019081526020015f20604051806101000160405290815f82015f9054906101000a900473ffffffffffffffffffffffffffffffffffffffff1673ffffffffffffffffffffffffffffffffffffffff1673ffffffffffffffffffffffffffffffffffffffff168152602001600182015f9054906101000a900473ffffffffffffffffffffffffffffffffffffffff1673ffffffffffffffffffffffffffffffffffffffff1673ffffffffffffffffffffffffffffffffffffffff1681526020016002820154815260200160038201548152602001600482015481526020016005820154815260200160068201548152602001600782015f9054906101000a900460ff16151515158152505090508060e00151612eed575f915050612f57565b5f42905081608001518111612f06575f92505050612f57565b5f826080015182612f179190613dda565b90505f836060015182612f2a9190614572565b90508360400151811115612f4057836040015190505b8360c0015181612f509190613dda565b9450505050505b919050565b5f5f5f600a54600b54600354925092509250909192565b600d5481565b60015f9054906101000a900473ffffffffffffffffffffffffffffffffffffffff1681565b60065481565b612fac6133a0565b600f5f8373ffffffffffffffffffffffffffffffffffffffff1673ffffffffffffffffffffffffffffffffffffffff1681526020019081526020015f206040518060a00160405290815f8201548152602001600182015481526020016002820154815260200160038201548152602001600482015f9054906101000a900460ff1615151515815250509050919050565b600c5481565b60045481565b5f600354905090565b60125481565b5f5f600454600554915091509091565b5f5f5f5f5f479450600a549350600b549250601154915060125490509091929394565b5f600f5f8373ffffffffffffffffffffffffffffffffffffffff1673ffffffffffffffffffffffffffffffffffffffff1681526020019081526020015f209050806004015f9054906101000a900460ff166130e55750613173565b5f6130ef83613227565b90505f811115613167578060105f8573ffffffffffffffffffffffffffffffffffffffff1673ffffffffffffffffffffffffffffffffffffffff1681526020019081526020015f205f8282546131459190614283565b9250508190555080826003015f82825461315f9190614283565b925050819055505b42826002018190555050505b50565b62015180600854426131889190613dda565b1061319c575f600781905550426008819055505b8060075f8282546131ad9190614283565b9250508190555050565b5f5f600754036131c9575f9050613224565b68056bc75e2d6310000060075410156131e55760649050613224565b681b1ae4d6e2ef50000060075410156132015760c89050613224565b683635c9adc5dea00000600754101561321e576101f49050613224565b6103e890505b90565b5f5f60075403613239575f9050613330565b5f600f5f8473ffffffffffffffffffffffffffffffffffffffff1673ffffffffffffffffffffffffffffffffffffffff1681526020019081526020015f206040518060a00160405290815f8201548152602001600182015481526020016002820154815260200160038201548152602001600482015f9054906101000a900460ff16151515158152505090505f8160400151426132d69190613dda565b90505f6132e16131b7565b90505f630225510083600d54865f01516132fb9190614572565b6133059190614572565b61330f91906145e0565b90506064828261331f9190614572565b61332991906145e0565b9450505050505b919050565b6040518061010001604052805f73ffffffffffffffffffffffffffffffffffffffff1681526020015f73ffffffffffffffffffffffffffffffffffffffff1681526020015f81526020015f81526020015f81526020015f81526020015f81526020015f151581525090565b6040518060a001604052805f81526020015f81526020015f81526020015f81526020015f151581525090565b5f819050919050565b6133de816133cc565b82525050565b5f6080820190506133f75f8301876133d5565b61340460208301866133d5565b61341160408301856133d5565b61341e60608301846133d5565b95945050505050565b5f60208201905061343a5f8301846133d5565b92915050565b5f604051905090565b5f5ffd5b5f5ffd5b5f73ffffffffffffffffffffffffffffffffffffffff82169050919050565b5f61347a82613451565b9050919050565b61348a81613470565b8114613494575f5ffd5b50565b5f813590506134a581613481565b92915050565b5f602082840312156134c0576134bf613449565b5b5f6134cd84828501613497565b91505092915050565b5f81519050919050565b5f82825260208201905092915050565b8281835e5f83830152505050565b5f601f19601f8301169050919050565b5f613518826134d6565b61352281856134e0565b93506135328185602086016134f0565b61353b816134fe565b840191505092915050565b5f6020820190508181035f83015261355e818461350e565b905092915050565b5f8115159050919050565b61357a81613566565b82525050565b5f60a0820190506135935f8301886133d5565b6135a060208301876133d5565b6135ad60408301866133d5565b6135ba60608301856133d5565b6135c76080830184613571565b9695505050505050565b6135da816133cc565b81146135e4575f5ffd5b50565b5f813590506135f5816135d1565b92915050565b5f602082840312156136105761360f613449565b5b5f61361d848285016135e7565b91505092915050565b61362f81613566565b8114613639575f5ffd5b50565b5f8135905061364a81613626565b92915050565b5f6020828403121561366557613664613449565b5b5f6136728482850161363c565b91505092915050565b5f5ffd5b5f5ffd5b7f4e487b71000000000000000000000000000000000000000000000000000000005f52604160045260245ffd5b6136b9826134fe565b810181811067ffffffffffffffff821117156136d8576136d7613683565b5b80604052505050565b5f6136ea613440565b90506136f682826136b0565b919050565b5f67ffffffffffffffff82111561371557613714613683565b5b61371e826134fe565b9050602081019050919050565b828183375f83830152505050565b5f61374b613746846136fb565b6136e1565b9050828152602081018484840111156137675761376661367f565b5b61377284828561372b565b509392505050565b5f82601f83011261378e5761378d61367b565b5b813561379e848260208601613739565b91505092915050565b5f602082840312156137bc576137bb613449565b5b5f82013567ffffffffffffffff8111156137d9576137d861344d565b5b6137e58482850161377a565b91505092915050565b5f5f6040838503121561380457613803613449565b5b5f61381185828601613497565b9250506020613822858286016135e7565b9150509250929050565b5f60208201905061383f5f830184613571565b92915050565b61384e81613470565b82525050565b5f610100820190506138685f83018b613845565b613875602083018a613845565b61388260408301896133d5565b61388f60608301886133d5565b61389c60808301876133d5565b6138a960a08301866133d5565b6138b660c08301856133d5565b6138c360e0830184613571565b9998505050505050505050565b5f6060820190506138e35f8301866133d5565b6138f060208301856133d5565b6138fd60408301846133d5565b949350505050565b61390e81613470565b82525050565b61391d816133cc565b82525050565b61392c81613566565b82525050565b61010082015f8201516139475f850182613905565b50602082015161395a6020850182613905565b50604082015161396d6040850182613914565b5060608201516139806060850182613914565b5060808201516139936080850182613914565b5060a08201516139a660a0850182613914565b5060c08201516139b960c0850182613914565b5060e08201516139cc60e0850182613923565b50505050565b5f610100820190506139e65f830184613932565b92915050565b5f6020820190506139ff5f830184613845565b92915050565b60a082015f820151613a195f850182613914565b506020820151613a2c6020850182613914565b506040820151613a3f6040850182613914565b506060820151613a526060850182613914565b506080820151613a656080850182613923565b50505050565b5f60a082019050613a7e5f830184613a05565b92915050565b5f604082019050613a975f8301856133d5565b613aa460208301846133d5565b9392505050565b5f60a082019050613abe5f8301886133d5565b613acb60208301876133d5565b613ad860408301866133d5565b613ae560608301856133d5565b613af260808301846133d5565b9695505050505050565b7f4e487b71000000000000000000000000000000000000000000000000000000005f52602260045260245ffd5b5f6002820490506001821680613b4057607f821691505b602082108103613b5357613b52613afc565b5b50919050565b7f536f6e6963527573683a205265656e7472616e742063616c6c000000000000005f82015250565b5f613b8d6019836134e0565b9150613b9882613b59565b602082019050919050565b5f6020820190508181035f830152613bba81613b81565b9050919050565b7f536f6e6963527573683a205661756c74206973207061757365640000000000005f82015250565b5f613bf5601a836134e0565b9150613c0082613bc1565b602082019050919050565b5f6020820190508181035f830152613c2281613be9565b9050919050565b7f536f6e6963527573683a20416d6f756e74206d75737420626520706f736974695f8201527f7665000000000000000000000000000000000000000000000000000000000000602082015250565b5f613c836022836134e0565b9150613c8e82613c29565b604082019050919050565b5f6020820190508181035f830152613cb081613c77565b9050919050565b7f536f6e6963527573683a204e6f20616374697665207374616b650000000000005f82015250565b5f613ceb601a836134e0565b9150613cf682613cb7565b602082019050919050565b5f6020820190508181035f830152613d1881613cdf565b9050919050565b7f536f6e6963527573683a20496e73756666696369656e74207374616b656420615f8201527f6d6f756e74000000000000000000000000000000000000000000000000000000602082015250565b5f613d796025836134e0565b9150613d8482613d1f565b604082019050919050565b5f6020820190508181035f830152613da681613d6d565b9050919050565b7f4e487b71000000000000000000000000000000000000000000000000000000005f52601160045260245ffd5b5f613de4826133cc565b9150613def836133cc565b9250828203905081811115613e0757613e06613dad565b5b92915050565b5f81905092915050565b50565b5f613e255f83613e0d565b9150613e3082613e17565b5f82019050919050565b5f613e4482613e1a565b9150819050919050565b7f536f6e6963527573683a205472616e73666572206661696c65640000000000005f82015250565b5f613e82601a836134e0565b9150613e8d82613e4e565b602082019050919050565b5f6020820190508181035f830152613eaf81613e76565b9050919050565b7f536f6e6963527573683a204e6f7420746865206f776e657200000000000000005f82015250565b5f613eea6018836134e0565b9150613ef582613eb6565b602082019050919050565b5f6020820190508181035f830152613f1781613ede565b9050919050565b5f819050815f5260205f209050919050565b5f6020601f8301049050919050565b5f82821b905092915050565b5f60088302613f7a7fffffffffffffffffffffffffffffffffffffffffffffffffffffffffffffffff82613f3f565b613f848683613f3f565b95508019841693508086168417925050509392505050565b5f819050919050565b5f613fbf613fba613fb5846133cc565b613f9c565b6133cc565b9050919050565b5f819050919050565b613fd883613fa5565b613fec613fe482613fc6565b848454613f4b565b825550505050565b5f5f905090565b614003613ff4565b61400e818484613fcf565b505050565b5b81811015614031576140265f82613ffb565b600181019050614014565b5050565b601f8211156140765761404781613f1e565b61405084613f30565b8101602085101561405f578190505b61407361406b85613f30565b830182614013565b50505b505050565b5f82821c905092915050565b5f6140965f198460080261407b565b1980831691505092915050565b5f6140ae8383614087565b9150826002028217905092915050565b6140c7826134d6565b67ffffffffffffffff8111156140e0576140df613683565b5b6140ea8254613b29565b6140f5828285614035565b5f60209050601f831160018114614126575f8415614114578287015190505b61411e85826140a3565b865550614185565b601f19841661413486613f1e565b5f5b8281101561415b57848901518255600182019150602085019450602081019050614136565b868310156141785784890151614174601f891682614087565b8355505b6001600288020188555050505b505050505050565b7f536f6e6963527573683a204e6f207265776172647320617661696c61626c65205f8201527f746f20636c61696d000000000000000000000000000000000000000000000000602082015250565b5f6141e76028836134e0565b91506141f28261418d565b604082019050919050565b5f6020820190508181035f830152614214816141db565b9050919050565b7f536f6e6963527573683a20416c7265616479207374616b6564000000000000005f82015250565b5f61424f6019836134e0565b915061425a8261421b565b602082019050919050565b5f6020820190508181035f83015261427c81614243565b9050919050565b5f61428d826133cc565b9150614298836133cc565b92508282019050808211156142b0576142af613dad565b5b92915050565b7f536f6e6963527573683a2053747265616d206e6f7420616374697665000000005f82015250565b5f6142ea601c836134e0565b91506142f5826142b6565b602082019050919050565b5f6020820190508181035f830152614317816142de565b9050919050565b7f536f6e6963527573683a204f6e6c7920726563697069656e742063616e2077695f8201527f7468647261770000000000000000000000000000000000000000000000000000602082015250565b5f6143786026836134e0565b91506143838261431e565b604082019050919050565b5f6020820190508181035f8301526143a58161436c565b9050919050565b7f536f6e6963527573683a204e6f2066756e647320746f207769746864726177005f82015250565b5f6143e0601f836134e0565b91506143eb826143ac565b602082019050919050565b5f6020820190508181035f83015261440d816143d4565b9050919050565b7f536f6e6963527573683a20496e76616c696420726563697069656e74000000005f82015250565b5f614448601c836134e0565b915061445382614414565b602082019050919050565b5f6020820190508181035f8301526144758161443c565b9050919050565b7f536f6e6963527573683a2043616e6e6f742073747265616d20746f2073656c665f82015250565b5f6144b06020836134e0565b91506144bb8261447c565b602082019050919050565b5f6020820190508181035f8301526144dd816144a4565b9050919050565b7f536f6e6963527573683a204475726174696f6e206d75737420626520706f73695f8201527f7469766500000000000000000000000000000000000000000000000000000000602082015250565b5f61453e6024836134e0565b9150614549826144e4565b604082019050919050565b5f6020820190508181035f83015261456b81614532565b9050919050565b5f61457c826133cc565b9150614587836133cc565b9250828202614595816133cc565b915082820484148315176145ac576145ab613dad565b5b5092915050565b7f4e487b71000000000000000000000000000000000000000000000000000000005f52601260045260245ffd5b5f6145ea826133cc565b91506145f5836133cc565b925082614605576146046145b3565b5b828204905092915050565b5f60e0820190506146235f83018a6133d5565b61463060208301896133d5565b61463d60408301886133d5565b61464a60608301876133d5565b61465760808301866133d5565b61466460a08301856133d5565b61467160c08301846133d5565b98975050505050505050565b5f614687826133cc565b91507fffffffffffffffffffffffffffffffffffffffffffffffffffffffffffffffff82036146b9576146b8613dad565b5b600182019050919050565b7f536f6e6963527573683a20496e73756666696369656e74206f776e65722072655f8201527f76656e7565000000000000000000000000000000000000000000000000000000602082015250565b5f61471e6025836134e0565b9150614729826146c4565b604082019050919050565b5f6020820190508181035f83015261474b81614712565b9050919050565b7f536f6e6963527573683a204f6e6c7920636861726974792063616e20776974685f8201527f6472617700000000000000000000000000000000000000000000000000000000602082015250565b5f6147ac6024836134e0565b91506147b782614752565b604082019050919050565b5f6020820190508181035f8301526147d9816147a0565b9050919050565b7f536f6e6963527573683a20496e73756666696369656e742063686172697479205f8201527f66756e6473000000000000000000000000000000000000000000000000000000602082015250565b5f61483a6025836134e0565b9150614845826147e0565b604082019050919050565b5f6020820190508181035f8301526148678161482e565b9050919050565b7f536f6e6963527573683a204f6e6c792073656e6465722063616e2063616e63655f8201527f6c00000000000000000000000000000000000000000000000000000000000000602082015250565b5f6148c86021836134e0565b91506148d38261486e565b604082019050919050565b5f6020820190508181035f8301526148f5816148bc565b9050919050565b7f536f6e6963527573683a204e6f206578636573732066756e647320746f2064695f8201527f7374726962757465000000000000000000000000000000000000000000000000602082015250565b5f6149566028836134e0565b9150614961826148fc565b604082019050919050565b5f6020820190508181035f8301526149838161494a565b905091905056fea264697066735822122053f40e6bc9764f31b6c29e839ad92b167cf607b741221b301c2bacb2c2786bf064736f6c634300081e0033","linkReferences":{}},"methodIdentifiers":{"ACTIVITY_WINDOW()":"6f82f097","STREAMING_FEE_BPS()":"2914051f","apyCapBPS()":"b2bea01b","baseRewardRate()":"afbf3440","calculateExcessFunds()":"65242a24","cancelStream(uint256)":"6db9241b","charityAddress()":"afcf2fc4","charityFunds()":"e17901d8","claimRewards()":"372500ab","createStream(address,uint256)":"3df7fb8c","distributeExcessFunds()":"9a97b078","emergencyPause()":"51858e27","getActivityInfo()":"6b3324e0","getBalanceInfo()":"fc00e628","getClaimableBalance(uint256)":"a4424d5a","getCurrentAPY()":"962ca496","getFeeInfo()":"0002eab7","getRevenueSplit()":"e1d37e60","getStream(uint256)":"894e9a0d","getTotalStreams()":"e126559a","getUserStake(address)":"bbadc93a","getVaultStats()":"a59aa5a6","isSolvent()":"5ce23950","lastActivityUpdate()":"8ee31392","lastUpdateTime()":"c8f33c91","nextStreamId()":"1e99d569","owner()":"8da5cb5b","ownerRevenue()":"00292526","ownerShareBPS()":"667c9fe2","setVaultPaused(bool)":"315e4ec3","stake()":"3a4b66f1","stakerShareBPS()":"d8dfc974","stakes(address)":"16934fc4","streams(uint256)":"64d60d91","totalRewardsAvailable()":"6de813f1","totalStaked()":"817b1cd2","totalStreamVolume24h()":"7eb63862","unstake(uint256)":"2e17de78","updateRewardRate(uint256)":"9ef3a261","updateVaultParams(string)":"320541b2","userRewards(address)":"0660f1e8","vaultActive()":"9e591bc6","vaultName()":"0ace9ca0","withdrawCharityFunds(uint256)":"5c9a5101","withdrawFromStream(uint256)":"3a597f48","withdrawOwnerRevenue(uint256)":"49240629"},"id":17}